{"contracts/InsuranceClaims.sol":{"InsuranceClaims":{"abi":[{"inputs":[],"stateMutability":"nonpayable","type":"constructor"},{"anonymous":false,"inputs":[{"indexed":true,"internalType":"uint256","name":"claimId","type":"uint256"},{"indexed":true,"internalType":"uint256","name":"policyNumber","type":"uint256"},{"indexed":true,"internalType":"address","name":"claimant","type":"address"},{"indexed":false,"internalType":"uint256","name":"paidAmount","type":"uint256"}],"name":"ClaimProcessed","type":"event"},{"anonymous":false,"inputs":[{"indexed":true,"internalType":"uint256","name":"claimId","type":"uint256"},{"indexed":true,"internalType":"uint256","name":"policyNumber","type":"uint256"},{"indexed":true,"internalType":"address","name":"claimant","type":"address"},{"indexed":false,"internalType":"uint256","name":"amount","type":"uint256"},{"indexed":false,"internalType":"string","name":"treatmentType","type":"string"}],"name":"ClaimSubmitted","type":"event"},{"anonymous":false,"inputs":[{"indexed":true,"internalType":"uint256","name":"claimId","type":"uint256"}],"name":"ClaimVerified","type":"event"},{"anonymous":false,"inputs":[{"indexed":true,"internalType":"uint256","name":"policyNumber","type":"uint256"},{"indexed":true,"internalType":"address","name":"policyholder","type":"address"},{"indexed":false,"internalType":"uint256","name":"coverageAmount","type":"uint256"},{"indexed":false,"internalType":"uint256","name":"startDate","type":"uint256"},{"indexed":false,"internalType":"uint256","name":"endDate","type":"uint256"},{"indexed":false,"internalType":"string","name":"policyType","type":"string"}],"name":"PolicyCreated","type":"event"},{"anonymous":false,"inputs":[{"indexed":true,"internalType":"uint256","name":"policyNumber","type":"uint256"},{"indexed":true,"internalType":"address","name":"provider","type":"address"},{"indexed":true,"internalType":"address","name":"holder","type":"address"},{"indexed":false,"internalType":"uint256","name":"premium","type":"uint256"}],"name":"PolicyPurchased","type":"event"},{"anonymous":false,"inputs":[{"indexed":true,"internalType":"uint256","name":"templateId","type":"uint256"},{"indexed":true,"internalType":"address","name":"provider","type":"address"},{"indexed":false,"internalType":"string","name":"policyType","type":"string"},{"indexed":false,"internalType":"uint256","name":"coverageAmount","type":"uint256"},{"indexed":false,"internalType":"uint256","name":"premium","type":"uint256"}],"name":"PolicyTemplateCreated","type":"event"},{"inputs":[{"internalType":"string","name":"_policyType","type":"string"},{"internalType":"uint256","name":"_coverageAmount","type":"uint256"},{"internalType":"uint256","name":"_premium","type":"uint256"},{"internalType":"uint256","name":"_insuranceExpDate","type":"uint256"},{"internalType":"uint256","name":"_maxClaimsPerYear","type":"uint256"},{"internalType":"string","name":"_description","type":"string"},{"internalType":"string","name":"_termsAndConditions","type":"string"}],"name":"addPolicyTemplate","outputs":[],"stateMutability":"nonpayable","type":"function"},{"inputs":[{"internalType":"uint256","name":"","type":"uint256"}],"name":"claims","outputs":[{"internalType":"uint256","name":"policyNumber","type":"uint256"},{"internalType":"address","name":"policyholder","type":"address"},{"internalType":"uint256","name":"amount","type":"uint256"},{"internalType":"string","name":"treatmentType","type":"string"},{"internalType":"uint256","name":"timestamp","type":"uint256"},{"internalType":"bool","name":"isVerified","type":"bool"},{"internalType":"bool","name":"isPaid","type":"bool"},{"internalType":"uint256","name":"paidAmount","type":"uint256"},{"internalType":"string","name":"aabhaId","type":"string"},{"internalType":"uint256","name":"patientAdmissionDate","type":"uint256"},{"internalType":"uint256","name":"flightId","type":"uint256"},{"internalType":"bool","name":"flightCancellationStatus","type":"bool"},{"internalType":"uint256","name":"flightDelayMinutes","type":"uint256"},{"internalType":"uint256","name":"flightDurationMinutes","type":"uint256"}],"stateMutability":"view","type":"function"},{"inputs":[{"internalType":"uint256","name":"","type":"uint256"}],"name":"claimsCountPerYear","outputs":[{"internalType":"uint256","name":"","type":"uint256"}],"stateMutability":"view","type":"function"},{"inputs":[{"internalType":"address","name":"_policyholder","type":"address"},{"internalType":"uint256","name":"_coverageAmount","type":"uint256"},{"internalType":"uint256","name":"_startDate","type":"uint256"},{"internalType":"uint256","name":"_endDate","type":"uint256"},{"internalType":"string","name":"_policyType","type":"string"},{"internalType":"uint256","name":"_maxCoveragePerClaim","type":"uint256"},{"internalType":"uint256","name":"_copayPercentage","type":"uint256"},{"internalType":"string[]","name":"_coveredTreatments","type":"string[]"},{"internalType":"string[]","name":"_excludedTreatments","type":"string[]"},{"internalType":"uint256","name":"_waitingPeriod","type":"uint256"},{"internalType":"uint256","name":"_maxClaimsPerYear","type":"uint256"},{"internalType":"bool","name":"_preExistingConditionsCovered","type":"bool"},{"internalType":"uint256","name":"_maxHospitalizationDays","type":"uint256"},{"internalType":"uint256","name":"_maxRoomRent","type":"uint256"},{"internalType":"uint256","name":"_maxICUCharges","type":"uint256"},{"internalType":"uint256","name":"_maxOperationCharges","type":"uint256"},{"internalType":"uint256","name":"_maxMedicineCharges","type":"uint256"},{"internalType":"uint256","name":"_maxDiagnosticCharges","type":"uint256"},{"internalType":"uint256","name":"_maxAmbulanceCharges","type":"uint256"},{"internalType":"uint256","name":"_maxPreHospitalizationDays","type":"uint256"},{"internalType":"uint256","name":"_maxPostHospitalizationDays","type":"uint256"},{"internalType":"uint256","name":"_delayTimeMinutes","type":"uint256"},{"internalType":"bool","name":"_cancellationStatus","type":"bool"},{"internalType":"uint256","name":"_travelTimeHours","type":"uint256"}],"name":"createPolicy","outputs":[],"stateMutability":"nonpayable","type":"function"},{"inputs":[],"name":"getAllPolicyTemplates","outputs":[{"components":[{"internalType":"address","name":"provider","type":"address"},{"internalType":"string","name":"policyType","type":"string"},{"internalType":"uint256","name":"coverageAmount","type":"uint256"},{"internalType":"uint256","name":"premium","type":"uint256"},{"internalType":"uint256","name":"insuranceExpDate","type":"uint256"},{"internalType":"uint256","name":"maxClaimsPerYear","type":"uint256"},{"internalType":"string","name":"description","type":"string"},{"internalType":"string","name":"termsAndConditions","type":"string"},{"internalType":"bool","name":"isActive","type":"bool"},{"internalType":"uint256","name":"createdAt","type":"uint256"}],"internalType":"struct InsuranceClaims.PolicyTemplate[]","name":"","type":"tuple[]"}],"stateMutability":"view","type":"function"},{"inputs":[{"internalType":"uint256","name":"_claimId","type":"uint256"}],"name":"getClaim","outputs":[{"internalType":"uint256","name":"policyNumber","type":"uint256"},{"internalType":"address","name":"policyholder","type":"address"},{"internalType":"uint256","name":"amount","type":"uint256"},{"internalType":"string","name":"treatmentType","type":"string"},{"internalType":"uint256","name":"timestamp","type":"uint256"},{"internalType":"bool","name":"isVerified","type":"bool"},{"internalType":"bool","name":"isPaid","type":"bool"},{"internalType":"uint256","name":"paidAmount","type":"uint256"},{"internalType":"string","name":"aabhaId","type":"string"},{"internalType":"uint256","name":"patientAdmissionDate","type":"uint256"},{"internalType":"uint256","name":"flightId","type":"uint256"},{"internalType":"bool","name":"flightCancellationStatus","type":"bool"},{"internalType":"uint256","name":"flightDelayMinutes","type":"uint256"},{"internalType":"uint256","name":"flightDurationMinutes","type":"uint256"}],"stateMutability":"view","type":"function"},{"inputs":[{"internalType":"address","name":"_holder","type":"address"}],"name":"getPoliciesByHolder","outputs":[{"internalType":"uint256[]","name":"","type":"uint256[]"}],"stateMutability":"view","type":"function"},{"inputs":[{"internalType":"address","name":"_provider","type":"address"}],"name":"getPoliciesByProvider","outputs":[{"internalType":"uint256[]","name":"","type":"uint256[]"}],"stateMutability":"view","type":"function"},{"inputs":[{"internalType":"uint256","name":"_policyNumber","type":"uint256"}],"name":"getPolicy","outputs":[{"internalType":"address","name":"policyholder","type":"address"},{"internalType":"uint256","name":"coverageAmount","type":"uint256"},{"internalType":"uint256","name":"startDate","type":"uint256"},{"internalType":"uint256","name":"endDate","type":"uint256"},{"internalType":"string","name":"policyType","type":"string"},{"internalType":"bool","name":"isActive","type":"bool"}],"stateMutability":"view","type":"function"},{"inputs":[{"internalType":"address","name":"_provider","type":"address"}],"name":"getPolicyTemplatesByProvider","outputs":[{"components":[{"internalType":"address","name":"provider","type":"address"},{"internalType":"string","name":"policyType","type":"string"},{"internalType":"uint256","name":"coverageAmount","type":"uint256"},{"internalType":"uint256","name":"premium","type":"uint256"},{"internalType":"uint256","name":"insuranceExpDate","type":"uint256"},{"internalType":"uint256","name":"maxClaimsPerYear","type":"uint256"},{"internalType":"string","name":"description","type":"string"},{"internalType":"string","name":"termsAndConditions","type":"string"},{"internalType":"bool","name":"isActive","type":"bool"},{"internalType":"uint256","name":"createdAt","type":"uint256"}],"internalType":"struct InsuranceClaims.PolicyTemplate[]","name":"","type":"tuple[]"}],"stateMutability":"view","type":"function"},{"inputs":[],"name":"insurer","outputs":[{"internalType":"address","name":"","type":"address"}],"stateMutability":"view","type":"function"},{"inputs":[],"name":"nextClaimId","outputs":[{"internalType":"uint256","name":"","type":"uint256"}],"stateMutability":"view","type":"function"},{"inputs":[],"name":"nextPolicyNumber","outputs":[{"internalType":"uint256","name":"","type":"uint256"}],"stateMutability":"view","type":"function"},{"inputs":[],"name":"nextRecordId","outputs":[{"internalType":"uint256","name":"","type":"uint256"}],"stateMutability":"view","type":"function"},{"inputs":[],"name":"nextTemplateId","outputs":[{"internalType":"uint256","name":"","type":"uint256"}],"stateMutability":"view","type":"function"},{"inputs":[],"name":"owner","outputs":[{"internalType":"address","name":"","type":"address"}],"stateMutability":"view","type":"function"},{"inputs":[{"internalType":"uint256","name":"","type":"uint256"}],"name":"policies","outputs":[{"internalType":"address","name":"policyholder","type":"address"},{"internalType":"uint256","name":"coverageAmount","type":"uint256"},{"internalType":"uint256","name":"startDate","type":"uint256"},{"internalType":"uint256","name":"endDate","type":"uint256"},{"internalType":"string","name":"policyType","type":"string"},{"internalType":"bool","name":"isActive","type":"bool"},{"components":[{"internalType":"uint256","name":"maxCoveragePerClaim","type":"uint256"},{"internalType":"uint256","name":"copayPercentage","type":"uint256"},{"internalType":"string[]","name":"coveredTreatments","type":"string[]"},{"internalType":"string[]","name":"excludedTreatments","type":"string[]"},{"internalType":"uint256","name":"waitingPeriod","type":"uint256"},{"internalType":"uint256","name":"maxClaimsPerYear","type":"uint256"},{"internalType":"bool","name":"preExistingConditionsCovered","type":"bool"},{"internalType":"uint256","name":"maxHospitalizationDays","type":"uint256"},{"internalType":"uint256","name":"maxRoomRent","type":"uint256"},{"internalType":"uint256","name":"maxICUCharges","type":"uint256"},{"internalType":"uint256","name":"maxOperationCharges","type":"uint256"},{"internalType":"uint256","name":"maxMedicineCharges","type":"uint256"},{"internalType":"uint256","name":"maxDiagnosticCharges","type":"uint256"},{"internalType":"uint256","name":"maxAmbulanceCharges","type":"uint256"},{"internalType":"uint256","name":"maxPreHospitalizationDays","type":"uint256"},{"internalType":"uint256","name":"maxPostHospitalizationDays","type":"uint256"},{"internalType":"uint256","name":"delayTimeMinutes","type":"uint256"},{"internalType":"bool","name":"cancellationStatus","type":"bool"},{"internalType":"uint256","name":"travelTimeHours","type":"uint256"}],"internalType":"struct InsuranceClaims.PolicyTerms","name":"terms","type":"tuple"},{"internalType":"uint256","name":"claimsCount","type":"uint256"}],"stateMutability":"view","type":"function"},{"inputs":[{"internalType":"uint256","name":"","type":"uint256"},{"internalType":"uint256","name":"","type":"uint256"}],"name":"policyClaims","outputs":[{"internalType":"uint256","name":"","type":"uint256"}],"stateMutability":"view","type":"function"},{"inputs":[{"internalType":"uint256","name":"","type":"uint256"}],"name":"policyProviders","outputs":[{"internalType":"address","name":"","type":"address"}],"stateMutability":"view","type":"function"},{"inputs":[{"internalType":"uint256","name":"","type":"uint256"}],"name":"policyTemplates","outputs":[{"internalType":"address","name":"provider","type":"address"},{"internalType":"string","name":"policyType","type":"string"},{"internalType":"uint256","name":"coverageAmount","type":"uint256"},{"internalType":"uint256","name":"premium","type":"uint256"},{"internalType":"uint256","name":"insuranceExpDate","type":"uint256"},{"internalType":"uint256","name":"maxClaimsPerYear","type":"uint256"},{"internalType":"string","name":"description","type":"string"},{"internalType":"string","name":"termsAndConditions","type":"string"},{"internalType":"bool","name":"isActive","type":"bool"},{"internalType":"uint256","name":"createdAt","type":"uint256"}],"stateMutability":"view","type":"function"},{"inputs":[{"internalType":"uint256","name":"_claimId","type":"uint256"}],"name":"processClaim","outputs":[],"stateMutability":"nonpayable","type":"function"},{"inputs":[{"internalType":"address","name":"","type":"address"},{"internalType":"uint256","name":"","type":"uint256"}],"name":"providerPolicies","outputs":[{"internalType":"uint256","name":"","type":"uint256"}],"stateMutability":"view","type":"function"},{"inputs":[{"internalType":"uint256","name":"_templateId","type":"uint256"}],"name":"purchasePolicy","outputs":[],"stateMutability":"payable","type":"function"},{"inputs":[{"internalType":"address","name":"_insurer","type":"address"}],"name":"setInsurer","outputs":[],"stateMutability":"nonpayable","type":"function"},{"inputs":[{"internalType":"uint256","name":"_policyNumber","type":"uint256"},{"internalType":"uint256","name":"_amount","type":"uint256"},{"internalType":"string","name":"_treatmentType","type":"string"},{"internalType":"string","name":"_aabhaId","type":"string"},{"internalType":"uint256","name":"_patientAdmissionDate","type":"uint256"},{"internalType":"uint256","name":"_flightId","type":"uint256"},{"internalType":"bool","name":"_flightCancellationStatus","type":"bool"},{"internalType":"uint256","name":"_flightDelayMinutes","type":"uint256"},{"internalType":"uint256","name":"_flightDurationMinutes","type":"uint256"}],"name":"submitClaim","outputs":[],"stateMutability":"nonpayable","type":"function"},{"inputs":[{"internalType":"address","name":"","type":"address"},{"internalType":"uint256","name":"","type":"uint256"}],"name":"userPolicies","outputs":[{"internalType":"uint256","name":"","type":"uint256"}],"stateMutability":"view","type":"function"},{"inputs":[{"internalType":"uint256","name":"_claimId","type":"uint256"}],"name":"verifyClaim","outputs":[],"stateMutability":"nonpayable","type":"function"}],"evm":{"bytecode":{"linkReferences":{},"object":"6080806040523461003c57600080546001600160a01b03191633179055600160028190556003819055600481905560065561389490816100428239f35b600080fdfe6080604052600436101561001257600080fd5b60003560e01c8062c84c0414612e5957806304dcccc6146122f5578063055b0840146117ac578063161ef13d1461178e5780632b07fce3146116b85780632d4dbb96146116405780633147b2cc1461154b57806334790e44146114c75780633d36adc51461147d5780633f0318cd1461138b578063560eb394146113525780635aef2447146112815780637257dfc91461114f5780638da5cb5b1461112657806393057c79146110f2578063a0021cf1146110d4578063a888c2cd1461101d578063a8e7410814610f87578063c0d7e2b614610d36578063c1260c9a14610aaa578063c22fc75914610a7e578063d12edcce14610a60578063d3e89483146107ca578063dbc837c5146107a1578063dbde207d14610783578063f79a0020146101a15763fcbe91471461014457600080fd5b3461019c57604036600319011261019c5761015d6130b5565b6001600160a01b031660009081526008602052604090208054602435919082101561019c5760209161018e9161326d565b90546040519160031b1c8152f35b600080fd5b3461019c5760e036600319011261019c576004356001600160401b03811161019c576101d190369060040161305f565b60a4356001600160401b03811161019c576101f090369060040161305f565b9060c4356001600160401b03811161019c5761021090369060040161305f565b9181511561073e5761022560243515156133dc565b6044918235156106f057426064351115610698576084351561063e578151156105fa578351156105aa576006549161025c8361343a565b600655826000526005602052604060002090336001600160601b0360a01b83541617825582516001600160401b03811161049f576102aa816102a1600186015461319d565b60018601613460565b806020601f821160011461053d57600091610532575b508160011b916000199060031b1c19161760018301555b602435600283015584356003830155606435600483015560843560058301558051906001600160401b03821161049f5781906103238261031a600687015461319d565b60068701613460565b602090601f83116001146104c0576000926104b5575b50508160011b916000199060031b1c19161760068201555b6007810185516001600160401b03811161049f5761037981610373845461319d565b84613460565b6020601f82116001146104155781907f8e7cdd9d98e09543e85896be390aa235ea710584f5cc9eed52445aacd355548d96979860009261040a575b50508160011b916000199060031b1c19161790555b60088101600160ff198254161790556009429101556103f360405191606083526060830190612edd565b9360243560208301523560408201528033940390a3005b0151905088806103b4565b601f198216978360005260206000209860005b8181106104875750917f8e7cdd9d98e09543e85896be390aa235ea710584f5cc9eed52445aacd355548d9798999184600195941061046e575b505050811b0190556103c9565b015160001960f88460031b161c19169055888080610461565b838301518b556001909a019960209384019301610428565b634e487b7160e01b600052604160045260246000fd5b015190508780610339565b9250600684016000526020600020906000935b601f1984168510610517576001945083601f198116106104fe575b505050811b016006820155610351565b015160001960f88460031b161c191690558780806104ee565b818101518355602094850194600190930192909101906104d3565b9050840151886102c0565b91506001840160005260206000206000925b601f1983168410610592576001935082601f19811610610579575b5050811b0160018301556102d7565b86015160001960f88460031b161c19169055888061056a565b8681015182556020938401936001909201910161054f565b60405162461bcd60e51b8152602060048201526024808201527f5465726d7320616e6420636f6e646974696f6e732063616e6e6f74206265206581850152636d70747960e01b6064820152608490fd5b60405162461bcd60e51b815260206004820152601b60248201527f4465736372697074696f6e2063616e6e6f7420626520656d707479000000000081850152606490fd5b60405162461bcd60e51b815260206004820152602d60248201527f4d617820636c61696d73207065722079656172206d7573742062652067726561818501526c746572207468616e207a65726f60981b6064820152608490fd5b60405162461bcd60e51b815260206004820152602b60248201527f496e737572616e6365206578706972792064617465206d75737420626520696e818501526a207468652066757475726560a81b6064820152608490fd5b60405162461bcd60e51b815260206004820152602160248201527f5072656d69756d206d7573742062652067726561746572207468616e207a657281850152606f60f81b6064820152608490fd5b60405162461bcd60e51b815260206004820152601b60248201527f506f6c69637920747970652063616e6e6f7420626520656d70747900000000006044820152606490fd5b3461019c57600036600319011261019c576020600454604051908152f35b3461019c57600036600319011261019c576001546040516001600160a01b039091168152602090f35b3461019c57602036600319011261019c57600435600052600a602052604060002060018060a01b038154166001820154916002810154600382015491604051906108228261081b81600485016131d7565b038361303e565b60ff600582015416916040519461026086018681106001600160401b0382111761049f5761095b93601991604052600681015488526007810154602089015261086d60088201613322565b604089015261087e60098201613322565b6060890152600a8101546080890152600b81015460a089015260ff600c82015416151560c0890152600d81015460e0890152600e810154610100890152600f81015461012089015260108101546101408901526011810154610160890152601281015461018089015260138101546101a089015260148101546101c089015260158101546101e0890152601681015461020089015260ff6017820154161515610220890152601881015461024089015201549460405198899889526020890152604088015260608701526101006080870152610100860190612edd565b90151560a085015283810360c08501528251815260208301516020820152610240806109ad61099b60408701516102606040870152610260860190613387565b60608701518582036060870152613387565b946080810151608085015260a081015160a085015260c0810151151560c085015260e081015160e08501526101008101516101008501526101208101516101208501526101408101516101408501526101608101516101608501526101808101516101808501526101a08101516101a08501526101c08101516101c08501526101e08101516101e08501526102008101516102008501526102208101511515610220850152015191015260e08301520390f35b3461019c57600036600319011261019c576020600654604051908152f35b3461019c57602036600319011261019c57600435600052600d6020526020604060002054604051908152f35b60208060031936011261019c5760043580151580610d2b575b15610cf05760005260058152604060002060ff60088201541615610cb257600381019081543410610c76576004810180544211610c3a577fdea7dba60c96f43197d6382538a72502339e2c6a37b4091d6e1799b2f594b77b9060025492610b298461343a565b60025583600052600a86526040600020847f040c4be14b60aea566c81b5a163dafa67bfa53127ad672a5af714bd08beeed6c6001600160601b0360a01b943386855416178455600285018054600186015542600286015581546003860155600060196001880196610b9d88600483016135fc565b60058101600160ff1982541617905501553360005260078b52610bc48460406000206136d4565b60018060a01b03968787541660005260088c52610be58560406000206136d4565b878754168560005260098d52604060002091825416179055549054604051918252428b83015260408201526080606082015280610c27339560808301906131d7565b0390a354169254936040519485523394a4005b60405162461bcd60e51b815260048101859052601460248201527315195b5c1b185d19481a185cc8195e1c1a5c995960621b6044820152606490fd5b60405162461bcd60e51b8152600481018490526014602482015273125b9cdd59999a58da595b9d081c185e5b595b9d60621b6044820152606490fd5b60405162461bcd60e51b815260048101839052601660248201527554656d706c617465206973206e6f742061637469766560501b6044820152606490fd5b60405162461bcd60e51b8152600481018390526013602482015272125b9d985b1a59081d195b5c1b185d19481251606a1b6044820152606490fd5b506006548110610ac3565b3461019c5760208060031936011261019c576004359081600052600b8152610d6760046040600020015415156137fb565b81600052600b81526040600020908154600052600a81526040600020604051610d9e81610d9781600486016131d7565b038261303e565b828151910120610dac613709565b80519084012003610e805750610dc5600783015461319d565b15610e4957600882015415610e0c57506005905b01805460ff191660011790557f393efda0b92bc01071b66a816d6bcddde867b8c91da505a0f309d9133a53650a600080a2005b6064906040519062461bcd60e51b8252600482015260166024820152754d697373696e672061646d697373696f6e206461746560501b6044820152fd5b6064906040519062461bcd60e51b82526004820152601060248201526f135a5cdcda5b99c8105050921048125160821b6044820152fd5b600983015415610f4e57610e9e600b8401546016830154101561374d565b600c8301546018820154603c810290808204603c1490151715610f3857610ec69111156137a3565b60ff601781600a8601541692015416151590151503610ee85750600590610dd9565b6084906040519062461bcd60e51b82526004820152602360248201527f466c696768742063616e63656c6c6174696f6e20737461747573206d69736d616044820152620e8c6d60eb1b6064820152fd5b634e487b7160e01b600052601160045260246000fd5b60405162461bcd60e51b8152600481018390526011602482015270135a5cdcda5b99c8199b1a59da1d081251607a1b6044820152606490fd5b3461019c57602036600319011261019c57610fa06130b5565b6000546001600160a01b03919082163303610fce57166001600160601b0360a01b6001541617600155600080f35b60405162461bcd60e51b815260206004820152602160248201527f4f6e6c79206f776e65722063616e2063616c6c20746869732066756e6374696f6044820152603760f91b6064820152608490fd5b3461019c57602036600319011261019c57600435600052600b602052604060002080546110d060018060a01b0360018401541691600284015493604051916110738361106c81600386016131d7565b038461303e565b60048201549060058301546006840154604051906110988261081b8160078a016131d7565b60088601549260098701549460ff600a8901541696600c600b8a0154990154996040519d8e9d8e9460ff808860081c1697169561329b565b0390f35b3461019c57600036600319011261019c576020600354604051908152f35b3461019c57602036600319011261019c576004356000526009602052602060018060a01b0360406000205416604051908152f35b3461019c57600036600319011261019c576000546040516001600160a01b039091168152602090f35b3461019c5760208060031936011261019c5760043580600052600b8252604060002090600582019283549060ff8216156112485760ff8260081c1661120f5783549384600052600a825260406000209560076002830154970154808802908882041488151715610f3857606490048703968711610f38576101007f0849691c977f9a77b8daa21c9421d1b771d1b125cbcf97b43d24f17128f6d4359461ff0019161790558560068201556001808060a01b039101541694604051908152a4005b6064906040519062461bcd60e51b82526004820152601260248201527110db185a5b48185b1c9958591e481c185a5960721b6044820152fd5b6064906040519062461bcd60e51b82526004820152601260248201527110db185a5b481b9bdd081d995c9a599a595960721b6044820152fd5b3461019c57602036600319011261019c5760043580600052600b6020526112b160046040600020015415156137fb565b600052600b60205260406000208054906110d060018060a01b036001830154169160028101549360048201549060058301546006840154600760088601549160098701549360ff600a8901541695600b89015497600c8a01549961133a604051916113238361106c81600385016131d7565b61133360405180998193016131d7565b038761303e565b6040519d8e9d8e9460ff808860081c1697169561329b565b3461019c57604036600319011261019c57602435600435600052600c6020526040600020805482101561019c5760209161018e9161326d565b3461019c5760208060031936011261019c576113a56130b5565b6006546001600160a01b0391821692909190600060015b84811061144357506113cd906134a7565b9360009160015b8581106113e957604051806110d08982612f1d565b80600052600582526040600020838682541614611410575b5061140b9061343a565b6113d4565b61140b919461142161143c92613552565b61142b828b61353e565b52611436818a61353e565b5061343a565b9390611401565b806000526005835285846040600020541614611468575b6114639061343a565b6113bc565b906114756114639161343a565b91905061145a565b3461019c57604036600319011261019c576114966130b5565b6001600160a01b031660009081526007602052604090208054602435919082101561019c5760209161018e9161326d565b3461019c5760208060031936011261019c576001600160a01b036114e96130b5565b1660005260078152604060002090604051908181845491828152019360005281600020916000905b828210611534576110d0856115288189038261303e565b60405191829182613162565b835486529485019460019384019390910190611511565b3461019c57602036600319011261019c576004356000526005602052604060002060018060a01b038154166040519161158b8361106c81600185016131d7565b600281015461162d60038301549161161f6004850154916005860154604051906115bc8261081b8160068c016131d7565b604051946115d1866113338160078d016131d7565b600960ff60088b015416990154976115fd6040519c8d9c8d5260208d61014091829101528d0190612edd565b9460408c015260608b015260808a015260a089015287820360c0890152612edd565b9085820360e0870152612edd565b9115156101008401526101208301520390f35b3461019c5760208060031936011261019c576001600160a01b036116626130b5565b1660005260088152604060002090604051908181845491828152019360005281600020916000905b8282106116a1576110d0856115288189038261303e565b83548652948501946001938401939091019061168a565b3461019c57602036600319011261019c576004356000908152600a6020526040902080546001600160a01b03168015611751576001820154916117456004600283015460038401549061171d60ff6005870154169561106c60405180968193016131d7565b604051968796875260208701526040860152606085015260c0608085015260c0840190612edd565b90151560a08301520390f35b60405162461bcd60e51b8152602060048201526015602482015274141bdb1a58de48191bd95cc81b9bdd08195e1a5cdd605a1b6044820152606490fd5b3461019c57600036600319011261019c576020600254604051908152f35b3461019c5761030036600319011261019c576117c66130b5565b60849081356001600160401b03811161019c576117e790369060040161305f565b9160e4356001600160401b03811161019c576118079036906004016130e2565b91610104356001600160401b03811161019c576118289036906004016130e2565b92610164351515610164350361019c576102c43515156102c4350361019c576001546001600160a01b039390841633036122a757838316156122625761187160243515156133dc565b604435156122285760443560643511156121dc5760243560a4351161217e57606460c4351161213157605a61012435116120e357610144351515806120d5575b1561207e5761016d610184351161202957601e6102643511611fd157603c6102843511611f78576101e06102a43511611f345760306102e43511611ee75750845160208601908120611901613709565b6020815191012014908115611ecb575b5015611e9057600254936119248561343a565b60025584600052600a6020526040600020918484166001600160601b0360a01b84541617835560243560018401556044356002840155606435600384015586516001600160401b03811161049f5761198c81611983600487015461319d565b60048701613460565b806020601f8211600114611e2257600091611e17575b508160011b916000199060031b1c19161760048401555b60a435600684015560c4356007840155805190600160401b821161049f576008840154826008860155808310611d9f575b5060200190600884016000526020600020916000905b828210611cc25750505050805190600160401b821161049f576009830154826009850155808310611c4a575b5060200190600983016000526020600020916000905b828210611b675788887f040c4be14b60aea566c81b5a163dafa67bfa53127ad672a5af714bd08beeed6c8989600060198b61012435600a82015561014435600b820155611aa161016435600c83019060ff801983541691151516179055565b61018435600d8201556101a435600e8201556101c435600f8201556101e43560108201556102043560118201556102243560128201556102443560138201556102643560148201556102843560158201556102a4356016820155611b176102c435601783019060ff801983541691151516179055565b6102e435601882015560058101600160ff198254161790550155611b626040519283926024358452604435602085015260643560408501526080606085015216956080830190612edd565b0390a3005b80518051906001600160401b03821161049f57611b8e82611b88885461319d565b88613460565b602090601f8311600114611bda579282600194936020938695600092611bcf575b5050600019600383901b1c191690841b1787555b01940191019092611a42565b015190508e80611baf565b908660005260206000209160005b601f1985168110611c32575083602093600196938796938794601f19811610611c19575b505050811b018755611bc3565b015160001960f88460031b161c191690558e8080611c0c565b91926020600181928685015181550194019201611be8565b600984016000526020600020908382015b8183018110611c6b575050611a2c565b80611c786001925461319d565b80611c85575b5001611c5b565b601f81118314611c9b5750600081555b8b611c7e565b600090828252611cb9601f60208420920160051c8201858301613449565b81835555611c95565b80518051906001600160401b03821161049f57611ce382611b88885461319d565b602090601f8311600114611d2f579282600194936020938695600092611d24575b5050600019600383901b1c191690841b1787555b01940191019092611a00565b015190508f80611d04565b908660005260206000209160005b601f1985168110611d87575083602093600196938796938794601f19811610611d6e575b505050811b018755611d18565b015160001960f88460031b161c191690558f8080611d61565b91926020600181928685015181550194019201611d3d565b600885016000526020600020908382015b8183018110611dc05750506119ea565b80611dcd6001925461319d565b80611dda575b5001611db0565b601f81118314611df05750600081555b8c611dd3565b600090828252611e0e601f60208420920160051c8201858301613449565b81835555611dea565b9050880151896119a2565b91506004850160005260206000206000925b8a601f1984168510611e7957506001935082601f19811610611e60575b5050811b0160048401556119b9565b8a015160001960f88460031b161c191690558980611e51565b810151825560209384019360019092019101611e34565b60405162461bcd60e51b8152602060048201526013602482015272496e76616c696420706f6c696379207479706560681b6044820152606490fd5b905085519020611ed961372b565b602081519101201486611911565b60405162461bcd60e51b815260206004820152602260248201527f54726176656c2074696d652063616e6e6f742065786365656420343820686f75604482015261727360f01b6064820152fd5b606460405162461bcd60e51b815260206004820152602060248201527f44656c61792074696d652063616e6e6f7420657863656564203820686f7572736044820152fd5b60405162461bcd60e51b815260206004820152602e60248201527f4d617820706f73742d686f73706974616c697a6174696f6e206461797320636160448201526d06e6e6f74206578636565642036360941b6064820152fd5b60405162461bcd60e51b815260206004820152602d60248201527f4d6178207072652d686f73706974616c697a6174696f6e20646179732063616e60448201526c06e6f742065786365656420333609c1b6064820152fd5b60405162461bcd60e51b815260206004820152602a60248201527f4d617820686f73706974616c697a6174696f6e20646179732063616e6e6f74206044820152696578636565642033363560b01b6064820152fd5b60405162461bcd60e51b815260206004820152602c60248201527f4d617820636c61696d73207065722079656172206d757374206265206265747760448201526b065656e203120616e642031360a41b6064820152fd5b50600a6101443511156118b1565b60405162461bcd60e51b8152602060048201526024808201527f57616974696e6720706572696f642063616e6e6f7420657863656564203930206044820152636461797360e01b6064820152fd5b60405162461bcd60e51b815260206004820152602260248201527f436f7061792070657263656e746167652063616e6e6f74206578636565642031604482015261030360f41b6064820152fd5b60405162461bcd60e51b815260206004820152603360248201527f4d617820636f7665726167652070657220636c61696d2063616e6e6f742065786044820152726365656420746f74616c20636f76657261676560681b6064820152fd5b60405162461bcd60e51b815260206004820152602160248201527f456e642064617465206d757374206265206166746572207374617274206461746044820152606560f81b6064820152fd5b60405162461bcd60e51b8152602060048201526012602482015271496e76616c6964207374617274206461746560701b6044820152606490fd5b60405162461bcd60e51b815260206004820152601c60248201527f496e76616c696420706f6c696379686f6c6465722061646472657373000000006044820152606490fd5b60405162461bcd60e51b815260206004820152602360248201527f4f6e6c7920696e73757265722063616e2063616c6c20746869732066756e637460448201526234b7b760e91b6064820152fd5b3461019c5761012036600319011261019c576044356001600160401b03811161019c5761232690369060040161305f565b60649081356001600160401b03811161019c5761234790369060040161305f565b9160c4351515908160c4350361019c57600435600052600a60205260406000209160018060a01b038354163303612e095760ff60058401541615612dcf576002830154600a8401546201518090818102918183041490151715610f38578101809111610f38574210612d8c5760038301544211612d585760243515612d0557600683015460243511612ca9576019830154600b8401541115612c665760405160048401906123f981610d9781856131d7565b60208151910120612408613709565b60208151910120146000146129f857508451156129a9576084908135156129555760a43561290d576128c15760e43561287c57610104356128345750600982015460005b8181106127bc5750506000806008840154905b81811061276f575b50501561272d57505b6003549261247d8461343a565b60035583600052600b602052604060002090600435825560018201336001600160601b0360a01b825416179055602435600283015583516001600160401b03811161049f576124dc816124d3600386015461319d565b60038601613460565b806020601f82116001146126c0576000916126b5575b508160011b916000199060031b1c19161760038301555b80516001600160401b03811161049f578060078401926125338261252d865461319d565b86613460565b602090601f831160011461264f57600092612644575b50508160011b916000199060031b1c19161790555b608435600882015560a435600982015561258960c435600a83019060ff801983541691151516179055565b60e435600b82015561010435600c8201556005810161ffff1981541690556000600682015560044291015560196125c28183015461343a565b910155600435600052600c6020526125de8260406000206136d4565b600435600052600d60205260406000206125f8815461343a565b9055604051916024358352604060208401527fd91ad459d6781ac1a94eb5c677e1aa55ab8d256cae923e543a7e969235a041ca33938061263f600435956040830190612edd565b0390a4005b015190508780612549565b6000858152602081209350601f198516905b81811061269d5750908460019594939210612684575b505050811b01905561255e565b015160001960f88460031b161c19169055878080612677565b92936020600181928786015181550195019301612661565b9050850151876124f2565b91506003840160005260206000206000925b601f1983168410612715576001935082601f198116106126fc575b5050811b016003830155612509565b87015160001960f88460031b161c1916905587806126ed565b878101518255602093840193600190920191016126d2565b60405162461bcd60e51b815260206004820152601f60248201527f54726561746d656e74206e6f7420636f766572656420627920706f6c696379006044820152fd5b610d9761278f612782836008890161326d565b50604051928380926131d7565b6020815191012086516020880120146127b0576127ab9061343a565b61245f565b50505060018580612467565b610d976127cf612782836009880161326d565b6020815191012085516020870120146127f0576127eb9061343a565b61244c565b60405162461bcd60e51b815260206004820152601c60248201527f54726561746d656e74206578636c7564656420627920706f6c6963790000000060448201528390fd5b906e333634b3b43a10323ab930ba34b7b760891b6040519162461bcd60e51b835260206004840152602f602484015260008051602061383f8339815191526044840152820152fd5b906b666c696768742064656c617960a01b6040519162461bcd60e51b835260206004840152602c602484015260008051602061383f8339815191526044840152820152fd5b9072333634b3b43a1031b0b731b2b63630ba34b7b760691b6040519162461bcd60e51b8352602060048401526033602484015260008051602061383f8339815191526044840152820152fd5b50906d666c696768742064657461696c7360901b6040519162461bcd60e51b835260206004840152602e602484015260008051602061383f8339815191526044840152820152fd5b509067696f6e206461746560c01b6040519162461bcd60e51b835260206004840152602860248401527f4865616c746820636c61696d206d75737420696e636c7564652061646d6973736044840152820152fd5b60405162461bcd60e51b815260206004820152602260248201527f4865616c746820636c61696d206d75737420696e636c75646520414142484120604482015261125160f21b81840152608490fd5b610d979150612a0d90604051928380926131d7565b60208151910120612a1c61372b565b6020815191012014612a2f575b50612470565b8351612c1157608435612bb65760a43515612b6657612a56601683015460e435111561374d565b6018820154603c810290808204603c1490151715610f3857612a7d906101043511156137a3565b82517f43a6044c82f40f17c19f58406df90bff8d5298e48537704f37a8075c5f36d46f602085019182206444454c415960d81b6020604051612abe81613023565b60058152015214908115612b14575b50612a295760405162461bcd60e51b815260206004820152601960248201527f496e76616c69642074726176656c20636c61696d2074797065000000000000006044820152fd5b7f0f36baceb8c936b84649ec32484e0932b39d39183361a521f946479fe73660029150845190206b21a0a721a2a62620aa24a7a760a11b6020604051612b5981613023565b600c815201521485612acd565b6084906208125160ea1b6040519162461bcd60e51b835260206004840152602360248401527f54726176656c20636c61696d206d75737420696e636c75646520666c696768746044840152820152fd5b6084906d61646d697373696f6e206461746560901b6040519162461bcd60e51b835260206004840152602e60248401527f54726176656c20636c61696d2073686f756c64206e6f7420696e636c756465206044840152820152fd5b60849067105050921048125160c21b6040519162461bcd60e51b835260206004840152602860248401527f54726176656c20636c61696d2073686f756c64206e6f7420696e636c756465206044840152820152fd5b5060405162461bcd60e51b815260206004820152601f60248201527f4d6178696d756d20636c61696d732070657220796561722072656163686564006044820152fd5b60405162461bcd60e51b815260206004820152602f60248201527f436c61696d20616d6f756e742065786365656473206d6178696d756d20636f7660448201526e65726167652070657220636c61696d60881b81840152608490fd5b60405162461bcd60e51b815260206004820152602660248201527f436c61696d20616d6f756e74206d7573742062652067726561746572207468616044820152656e207a65726f60d01b81840152608490fd5b5060405162461bcd60e51b815260206004820152600e60248201526d141bdb1a58de48195e1c1a5c995960921b6044820152fd5b5060405162461bcd60e51b815260206004820152601760248201527f57616974696e6720706572696f64206e6f74206f7665720000000000000000006044820152fd5b5060405162461bcd60e51b8152602060048201526014602482015273506f6c696379206973206e6f742061637469766560601b6044820152fd5b60405162461bcd60e51b815260206004820152602360248201527f4f6e6c7920706f6c696379686f6c6465722063616e207375626d697420636c61604482015262696d7360e81b81840152608490fd5b3461019c57600036600319011261019c5760065460001990818101818111610f3857612e84906134a7565b9160015b828110612e9d57604051806110d08682612f1d565b80600052600560205260406000209082810191818311610f3857612ed892612ec761143692613552565b612ed1828961353e565b528661353e565b612e88565b919082519283825260005b848110612f09575050826000602080949584010152601f8019910116010190565b602081830181015184830182015201612ee8565b602080820190808352835180925260409283810182858560051b8401019601946000925b858410612f52575050505050505090565b909192939495968580600192603f198582030187528a5190848060a01b038251168152612fde612fcb612f92858501516101408088870152850190612edd565b898501518a850152606080860151908501526080808601519085015260a0808601519085015260c0808601519085830390860152612edd565b60e0808501519084830390850152612edd565b916101008082015115159083015261012080910151910152990194019401929594939190612f41565b61014081019081106001600160401b0382111761049f57604052565b604081019081106001600160401b0382111761049f57604052565b90601f801991011681019081106001600160401b0382111761049f57604052565b81601f8201121561019c578035906001600160401b03821161049f5760405192613093601f8401601f19166020018561303e565b8284526020838301011161019c57816000926020809301838601378301015290565b600435906001600160a01b038216820361019c57565b6001600160401b03811161049f5760051b60200190565b9080601f8301121561019c578135906130fa826130cb565b92613108604051948561303e565b828452602092838086019160051b8301019280841161019c57848301915b8483106131365750505050505090565b82356001600160401b03811161019c5786916131578484809489010161305f565b815201920191613126565b6020908160408183019282815285518094520193019160005b828110613189575050505090565b83518552938101939281019260010161317b565b90600182811c921680156131cd575b60208310146131b757565b634e487b7160e01b600052602260045260246000fd5b91607f16916131ac565b90600092918054916131e88361319d565b91828252600193848116908160001461324a575060011461320a575b50505050565b90919394506000526020928360002092846000945b838610613236575050505001019038808080613204565b80548587018301529401938590820161321f565b9294505050602093945060ff191683830152151560051b01019038808080613204565b80548210156132855760005260206000200190600090565b634e487b7160e01b600052603260045260246000fd5b9a9793999e9d9c9961330397938c60206101a09f9c9899956132dc95835260018060a01b031691015260408d015260608c6101c091829101528c0190612edd565b9460808b0152151560a08a0152151560c089015260e0880152868203610100880152612edd565b9761012085015261014084015215156101608301526101808201520152565b90815461332e816130cb565b9260409361333e8551918261303e565b828152809460208092019260005281600020906000935b85851061336457505050505050565b6001848192845161337981610d97818a6131d7565b815201930194019391613355565b90815180825260208092019182818360051b85019501936000915b8483106133b25750505050505090565b90919293949584806133cc83856001950387528a51612edd565b98019301930191949392906133a2565b156133e357565b60405162461bcd60e51b815260206004820152602960248201527f436f76657261676520616d6f756e74206d7573742062652067726561746572206044820152687468616e207a65726f60b81b6064820152608490fd5b6000198114610f385760010190565b818110613454575050565b60008155600101613449565b9190601f811161346f57505050565b61349b926000526020600020906020601f840160051c8301931061349d575b601f0160051c0190613449565b565b909150819061348e565b906134b1826130cb565b6040906134c08251918261303e565b83815280936134d1601f19916130cb565b019160005b8381106134e35750505050565b60209082516134f181613007565b6000815260608390808284015260008684015260008184015260006080840152600060a08401528060c084015260e0830152600061010083015260006101208301528286010152016134d6565b80518210156132855760209160051b010190565b9060405161355f81613007565b6101206009829460018060a01b03815416845260405161358681610d9781600186016131d7565b6020850152600281015460408501526003810154606085015260048101546080850152600581015460a08501526040516135c781610d9781600686016131d7565b60c08501526040516135e081610d9781600786016131d7565b60e085015260ff60088201541615156101008501520154910152565b908082146136d05761360e815461319d565b906001600160401b03821161049f57819061362d8261252d865461319d565b600090601f831160011461366457600092613659575b50508160011b916000199060031b1c1916179055565b015490503880613643565b81526020808220858352818320935090601f1985169083905b8282106136b757505090846001959493921061369e575b505050811b019055565b015460001960f88460031b161c19169055388080613694565b849581929585015481556001809101960194019061367d565b5050565b8054600160401b81101561049f576136f19160018201815561326d565b819291549060031b91821b91600019901b1916179055565b6040519061371682613023565b60068252650908a8298a8960d31b6020830152565b6040519061373882613023565b600682526515149055915360d21b6020830152565b1561375457565b60405162461bcd60e51b815260206004820152602160248201527f466c696768742064656c6179206578636565647320706f6c696379206c696d696044820152601d60fa1b6064820152608490fd5b156137aa57565b60405162461bcd60e51b8152602060048201526024808201527f466c69676874206475726174696f6e206578636565647320706f6c696379206c6044820152631a5b5a5d60e21b6064820152608490fd5b1561380257565b60405162461bcd60e51b815260206004820152601460248201527310db185a5b48191bd95cc81b9bdd08195e1a5cdd60621b6044820152606490fdfe4865616c746820636c61696d2073686f756c64206e6f7420696e636c75646520a26469706673582212209ebe74f913ca43ccf267077b616418478a2529c0b2fa64f24855b7bd78b9d9cf64736f6c63430008130033","opcodes":"PUSH1 0x80 DUP1 PUSH1 0x40 MSTORE CALLVALUE PUSH2 0x3C JUMPI PUSH1 0x0 DUP1 SLOAD PUSH1 0x1 PUSH1 0x1 PUSH1 0xA0 SHL SUB NOT AND CALLER OR SWAP1 SSTORE PUSH1 0x1 PUSH1 0x2 DUP2 SWAP1 SSTORE PUSH1 0x3 DUP2 SWAP1 SSTORE PUSH1 0x4 DUP2 SWAP1 SSTORE PUSH1 0x6 SSTORE PUSH2 0x3894 SWAP1 DUP2 PUSH2 0x42 DUP3 CODECOPY RETURN JUMPDEST PUSH1 0x0 DUP1 REVERT INVALID PUSH1 0x80 PUSH1 0x40 MSTORE PUSH1 0x4 CALLDATASIZE LT ISZERO PUSH2 0x12 JUMPI PUSH1 0x0 DUP1 REVERT JUMPDEST PUSH1 0x0 CALLDATALOAD PUSH1 0xE0 SHR DUP1 PUSH3 0xC84C04 EQ PUSH2 0x2E59 JUMPI DUP1 PUSH4 0x4DCCCC6 EQ PUSH2 0x22F5 JUMPI DUP1 PUSH4 0x55B0840 EQ PUSH2 0x17AC JUMPI DUP1 PUSH4 0x161EF13D EQ PUSH2 0x178E JUMPI DUP1 PUSH4 0x2B07FCE3 EQ PUSH2 0x16B8 JUMPI DUP1 PUSH4 0x2D4DBB96 EQ PUSH2 0x1640 JUMPI DUP1 PUSH4 0x3147B2CC EQ PUSH2 0x154B JUMPI DUP1 PUSH4 0x34790E44 EQ PUSH2 0x14C7 JUMPI DUP1 PUSH4 0x3D36ADC5 EQ PUSH2 0x147D JUMPI DUP1 PUSH4 0x3F0318CD EQ PUSH2 0x138B JUMPI DUP1 PUSH4 0x560EB394 EQ PUSH2 0x1352 JUMPI DUP1 PUSH4 0x5AEF2447 EQ PUSH2 0x1281 JUMPI DUP1 PUSH4 0x7257DFC9 EQ PUSH2 0x114F JUMPI DUP1 PUSH4 0x8DA5CB5B EQ PUSH2 0x1126 JUMPI DUP1 PUSH4 0x93057C79 EQ PUSH2 0x10F2 JUMPI DUP1 PUSH4 0xA0021CF1 EQ PUSH2 0x10D4 JUMPI DUP1 PUSH4 0xA888C2CD EQ PUSH2 0x101D JUMPI DUP1 PUSH4 0xA8E74108 EQ PUSH2 0xF87 JUMPI DUP1 PUSH4 0xC0D7E2B6 EQ PUSH2 0xD36 JUMPI DUP1 PUSH4 0xC1260C9A EQ PUSH2 0xAAA JUMPI DUP1 PUSH4 0xC22FC759 EQ PUSH2 0xA7E JUMPI DUP1 PUSH4 0xD12EDCCE EQ PUSH2 0xA60 JUMPI DUP1 PUSH4 0xD3E89483 EQ PUSH2 0x7CA JUMPI DUP1 PUSH4 0xDBC837C5 EQ PUSH2 0x7A1 JUMPI DUP1 PUSH4 0xDBDE207D EQ PUSH2 0x783 JUMPI DUP1 PUSH4 0xF79A0020 EQ PUSH2 0x1A1 JUMPI PUSH4 0xFCBE9147 EQ PUSH2 0x144 JUMPI PUSH1 0x0 DUP1 REVERT JUMPDEST CALLVALUE PUSH2 0x19C JUMPI PUSH1 0x40 CALLDATASIZE PUSH1 0x3 NOT ADD SLT PUSH2 0x19C JUMPI PUSH2 0x15D PUSH2 0x30B5 JUMP JUMPDEST PUSH1 0x1 PUSH1 0x1 PUSH1 0xA0 SHL SUB AND PUSH1 0x0 SWAP1 DUP2 MSTORE PUSH1 0x8 PUSH1 0x20 MSTORE PUSH1 0x40 SWAP1 KECCAK256 DUP1 SLOAD PUSH1 0x24 CALLDATALOAD SWAP2 SWAP1 DUP3 LT ISZERO PUSH2 0x19C JUMPI PUSH1 0x20 SWAP2 PUSH2 0x18E SWAP2 PUSH2 0x326D JUMP JUMPDEST SWAP1 SLOAD PUSH1 0x40 MLOAD SWAP2 PUSH1 0x3 SHL SHR DUP2 MSTORE RETURN JUMPDEST PUSH1 0x0 DUP1 REVERT JUMPDEST CALLVALUE PUSH2 0x19C JUMPI PUSH1 0xE0 CALLDATASIZE PUSH1 0x3 NOT ADD SLT PUSH2 0x19C JUMPI PUSH1 0x4 CALLDATALOAD PUSH1 0x1 PUSH1 0x1 PUSH1 0x40 SHL SUB DUP2 GT PUSH2 0x19C JUMPI PUSH2 0x1D1 SWAP1 CALLDATASIZE SWAP1 PUSH1 0x4 ADD PUSH2 0x305F JUMP JUMPDEST PUSH1 0xA4 CALLDATALOAD PUSH1 0x1 PUSH1 0x1 PUSH1 0x40 SHL SUB DUP2 GT PUSH2 0x19C JUMPI PUSH2 0x1F0 SWAP1 CALLDATASIZE SWAP1 PUSH1 0x4 ADD PUSH2 0x305F JUMP JUMPDEST SWAP1 PUSH1 0xC4 CALLDATALOAD PUSH1 0x1 PUSH1 0x1 PUSH1 0x40 SHL SUB DUP2 GT PUSH2 0x19C JUMPI PUSH2 0x210 SWAP1 CALLDATASIZE SWAP1 PUSH1 0x4 ADD PUSH2 0x305F JUMP JUMPDEST SWAP2 DUP2 MLOAD ISZERO PUSH2 0x73E JUMPI PUSH2 0x225 PUSH1 0x24 CALLDATALOAD ISZERO ISZERO PUSH2 0x33DC JUMP JUMPDEST PUSH1 0x44 SWAP2 DUP3 CALLDATALOAD ISZERO PUSH2 0x6F0 JUMPI TIMESTAMP PUSH1 0x64 CALLDATALOAD GT ISZERO PUSH2 0x698 JUMPI PUSH1 0x84 CALLDATALOAD ISZERO PUSH2 0x63E JUMPI DUP2 MLOAD ISZERO PUSH2 0x5FA JUMPI DUP4 MLOAD ISZERO PUSH2 0x5AA JUMPI PUSH1 0x6 SLOAD SWAP2 PUSH2 0x25C DUP4 PUSH2 0x343A JUMP JUMPDEST PUSH1 0x6 SSTORE DUP3 PUSH1 0x0 MSTORE PUSH1 0x5 PUSH1 0x20 MSTORE PUSH1 0x40 PUSH1 0x0 KECCAK256 SWAP1 CALLER PUSH1 0x1 PUSH1 0x1 PUSH1 0x60 SHL SUB PUSH1 0xA0 SHL DUP4 SLOAD AND OR DUP3 SSTORE DUP3 MLOAD PUSH1 0x1 PUSH1 0x1 PUSH1 0x40 SHL SUB DUP2 GT PUSH2 0x49F JUMPI PUSH2 0x2AA DUP2 PUSH2 0x2A1 PUSH1 0x1 DUP7 ADD SLOAD PUSH2 0x319D JUMP JUMPDEST PUSH1 0x1 DUP7 ADD PUSH2 0x3460 JUMP JUMPDEST DUP1 PUSH1 0x20 PUSH1 0x1F DUP3 GT PUSH1 0x1 EQ PUSH2 0x53D JUMPI PUSH1 0x0 SWAP2 PUSH2 0x532 JUMPI JUMPDEST POP DUP2 PUSH1 0x1 SHL SWAP2 PUSH1 0x0 NOT SWAP1 PUSH1 0x3 SHL SHR NOT AND OR PUSH1 0x1 DUP4 ADD SSTORE JUMPDEST PUSH1 0x24 CALLDATALOAD PUSH1 0x2 DUP4 ADD SSTORE DUP5 CALLDATALOAD PUSH1 0x3 DUP4 ADD SSTORE PUSH1 0x64 CALLDATALOAD PUSH1 0x4 DUP4 ADD SSTORE PUSH1 0x84 CALLDATALOAD PUSH1 0x5 DUP4 ADD SSTORE DUP1 MLOAD SWAP1 PUSH1 0x1 PUSH1 0x1 PUSH1 0x40 SHL SUB DUP3 GT PUSH2 0x49F JUMPI DUP2 SWAP1 PUSH2 0x323 DUP3 PUSH2 0x31A PUSH1 0x6 DUP8 ADD SLOAD PUSH2 0x319D JUMP JUMPDEST PUSH1 0x6 DUP8 ADD PUSH2 0x3460 JUMP JUMPDEST PUSH1 0x20 SWAP1 PUSH1 0x1F DUP4 GT PUSH1 0x1 EQ PUSH2 0x4C0 JUMPI PUSH1 0x0 SWAP3 PUSH2 0x4B5 JUMPI JUMPDEST POP POP DUP2 PUSH1 0x1 SHL SWAP2 PUSH1 0x0 NOT SWAP1 PUSH1 0x3 SHL SHR NOT AND OR PUSH1 0x6 DUP3 ADD SSTORE JUMPDEST PUSH1 0x7 DUP2 ADD DUP6 MLOAD PUSH1 0x1 PUSH1 0x1 PUSH1 0x40 SHL SUB DUP2 GT PUSH2 0x49F JUMPI PUSH2 0x379 DUP2 PUSH2 0x373 DUP5 SLOAD PUSH2 0x319D JUMP JUMPDEST DUP5 PUSH2 0x3460 JUMP JUMPDEST PUSH1 0x20 PUSH1 0x1F DUP3 GT PUSH1 0x1 EQ PUSH2 0x415 JUMPI DUP2 SWAP1 PUSH32 0x8E7CDD9D98E09543E85896BE390AA235EA710584F5CC9EED52445AACD355548D SWAP7 SWAP8 SWAP9 PUSH1 0x0 SWAP3 PUSH2 0x40A JUMPI JUMPDEST POP POP DUP2 PUSH1 0x1 SHL SWAP2 PUSH1 0x0 NOT SWAP1 PUSH1 0x3 SHL SHR NOT AND OR SWAP1 SSTORE JUMPDEST PUSH1 0x8 DUP2 ADD PUSH1 0x1 PUSH1 0xFF NOT DUP3 SLOAD AND OR SWAP1 SSTORE PUSH1 0x9 TIMESTAMP SWAP2 ADD SSTORE PUSH2 0x3F3 PUSH1 0x40 MLOAD SWAP2 PUSH1 0x60 DUP4 MSTORE PUSH1 0x60 DUP4 ADD SWAP1 PUSH2 0x2EDD JUMP JUMPDEST SWAP4 PUSH1 0x24 CALLDATALOAD PUSH1 0x20 DUP4 ADD MSTORE CALLDATALOAD PUSH1 0x40 DUP3 ADD MSTORE DUP1 CALLER SWAP5 SUB SWAP1 LOG3 STOP JUMPDEST ADD MLOAD SWAP1 POP DUP9 DUP1 PUSH2 0x3B4 JUMP JUMPDEST PUSH1 0x1F NOT DUP3 AND SWAP8 DUP4 PUSH1 0x0 MSTORE PUSH1 0x20 PUSH1 0x0 KECCAK256 SWAP9 PUSH1 0x0 JUMPDEST DUP2 DUP2 LT PUSH2 0x487 JUMPI POP SWAP2 PUSH32 0x8E7CDD9D98E09543E85896BE390AA235EA710584F5CC9EED52445AACD355548D SWAP8 SWAP9 SWAP10 SWAP2 DUP5 PUSH1 0x1 SWAP6 SWAP5 LT PUSH2 0x46E JUMPI JUMPDEST POP POP POP DUP2 SHL ADD SWAP1 SSTORE PUSH2 0x3C9 JUMP JUMPDEST ADD MLOAD PUSH1 0x0 NOT PUSH1 0xF8 DUP5 PUSH1 0x3 SHL AND SHR NOT AND SWAP1 SSTORE DUP9 DUP1 DUP1 PUSH2 0x461 JUMP JUMPDEST DUP4 DUP4 ADD MLOAD DUP12 SSTORE PUSH1 0x1 SWAP1 SWAP11 ADD SWAP10 PUSH1 0x20 SWAP4 DUP5 ADD SWAP4 ADD PUSH2 0x428 JUMP JUMPDEST PUSH4 0x4E487B71 PUSH1 0xE0 SHL PUSH1 0x0 MSTORE PUSH1 0x41 PUSH1 0x4 MSTORE PUSH1 0x24 PUSH1 0x0 REVERT JUMPDEST ADD MLOAD SWAP1 POP DUP8 DUP1 PUSH2 0x339 JUMP JUMPDEST SWAP3 POP PUSH1 0x6 DUP5 ADD PUSH1 0x0 MSTORE PUSH1 0x20 PUSH1 0x0 KECCAK256 SWAP1 PUSH1 0x0 SWAP4 JUMPDEST PUSH1 0x1F NOT DUP5 AND DUP6 LT PUSH2 0x517 JUMPI PUSH1 0x1 SWAP5 POP DUP4 PUSH1 0x1F NOT DUP2 AND LT PUSH2 0x4FE JUMPI JUMPDEST POP POP POP DUP2 SHL ADD PUSH1 0x6 DUP3 ADD SSTORE PUSH2 0x351 JUMP JUMPDEST ADD MLOAD PUSH1 0x0 NOT PUSH1 0xF8 DUP5 PUSH1 0x3 SHL AND SHR NOT AND SWAP1 SSTORE DUP8 DUP1 DUP1 PUSH2 0x4EE JUMP JUMPDEST DUP2 DUP2 ADD MLOAD DUP4 SSTORE PUSH1 0x20 SWAP5 DUP6 ADD SWAP5 PUSH1 0x1 SWAP1 SWAP4 ADD SWAP3 SWAP1 SWAP2 ADD SWAP1 PUSH2 0x4D3 JUMP JUMPDEST SWAP1 POP DUP5 ADD MLOAD DUP9 PUSH2 0x2C0 JUMP JUMPDEST SWAP2 POP PUSH1 0x1 DUP5 ADD PUSH1 0x0 MSTORE PUSH1 0x20 PUSH1 0x0 KECCAK256 PUSH1 0x0 SWAP3 JUMPDEST PUSH1 0x1F NOT DUP4 AND DUP5 LT PUSH2 0x592 JUMPI PUSH1 0x1 SWAP4 POP DUP3 PUSH1 0x1F NOT DUP2 AND LT PUSH2 0x579 JUMPI JUMPDEST POP POP DUP2 SHL ADD PUSH1 0x1 DUP4 ADD SSTORE PUSH2 0x2D7 JUMP JUMPDEST DUP7 ADD MLOAD PUSH1 0x0 NOT PUSH1 0xF8 DUP5 PUSH1 0x3 SHL AND SHR NOT AND SWAP1 SSTORE DUP9 DUP1 PUSH2 0x56A JUMP JUMPDEST DUP7 DUP2 ADD MLOAD DUP3 SSTORE PUSH1 0x20 SWAP4 DUP5 ADD SWAP4 PUSH1 0x1 SWAP1 SWAP3 ADD SWAP2 ADD PUSH2 0x54F JUMP JUMPDEST PUSH1 0x40 MLOAD PUSH3 0x461BCD PUSH1 0xE5 SHL DUP2 MSTORE PUSH1 0x20 PUSH1 0x4 DUP3 ADD MSTORE PUSH1 0x24 DUP1 DUP3 ADD MSTORE PUSH32 0x5465726D7320616E6420636F6E646974696F6E732063616E6E6F742062652065 DUP2 DUP6 ADD MSTORE PUSH4 0x6D707479 PUSH1 0xE0 SHL PUSH1 0x64 DUP3 ADD MSTORE PUSH1 0x84 SWAP1 REVERT JUMPDEST PUSH1 0x40 MLOAD PUSH3 0x461BCD PUSH1 0xE5 SHL DUP2 MSTORE PUSH1 0x20 PUSH1 0x4 DUP3 ADD MSTORE PUSH1 0x1B PUSH1 0x24 DUP3 ADD MSTORE PUSH32 0x4465736372697074696F6E2063616E6E6F7420626520656D7074790000000000 DUP2 DUP6 ADD MSTORE PUSH1 0x64 SWAP1 REVERT JUMPDEST PUSH1 0x40 MLOAD PUSH3 0x461BCD PUSH1 0xE5 SHL DUP2 MSTORE PUSH1 0x20 PUSH1 0x4 DUP3 ADD MSTORE PUSH1 0x2D PUSH1 0x24 DUP3 ADD MSTORE PUSH32 0x4D617820636C61696D73207065722079656172206D7573742062652067726561 DUP2 DUP6 ADD MSTORE PUSH13 0x746572207468616E207A65726F PUSH1 0x98 SHL PUSH1 0x64 DUP3 ADD MSTORE PUSH1 0x84 SWAP1 REVERT JUMPDEST PUSH1 0x40 MLOAD PUSH3 0x461BCD PUSH1 0xE5 SHL DUP2 MSTORE PUSH1 0x20 PUSH1 0x4 DUP3 ADD MSTORE PUSH1 0x2B PUSH1 0x24 DUP3 ADD MSTORE PUSH32 0x496E737572616E6365206578706972792064617465206D75737420626520696E DUP2 DUP6 ADD MSTORE PUSH11 0x2074686520667574757265 PUSH1 0xA8 SHL PUSH1 0x64 DUP3 ADD MSTORE PUSH1 0x84 SWAP1 REVERT JUMPDEST PUSH1 0x40 MLOAD PUSH3 0x461BCD PUSH1 0xE5 SHL DUP2 MSTORE PUSH1 0x20 PUSH1 0x4 DUP3 ADD MSTORE PUSH1 0x21 PUSH1 0x24 DUP3 ADD MSTORE PUSH32 0x5072656D69756D206D7573742062652067726561746572207468616E207A6572 DUP2 DUP6 ADD MSTORE PUSH1 0x6F PUSH1 0xF8 SHL PUSH1 0x64 DUP3 ADD MSTORE PUSH1 0x84 SWAP1 REVERT JUMPDEST PUSH1 0x40 MLOAD PUSH3 0x461BCD PUSH1 0xE5 SHL DUP2 MSTORE PUSH1 0x20 PUSH1 0x4 DUP3 ADD MSTORE PUSH1 0x1B PUSH1 0x24 DUP3 ADD MSTORE PUSH32 0x506F6C69637920747970652063616E6E6F7420626520656D7074790000000000 PUSH1 0x44 DUP3 ADD MSTORE PUSH1 0x64 SWAP1 REVERT JUMPDEST CALLVALUE PUSH2 0x19C JUMPI PUSH1 0x0 CALLDATASIZE PUSH1 0x3 NOT ADD SLT PUSH2 0x19C JUMPI PUSH1 0x20 PUSH1 0x4 SLOAD PUSH1 0x40 MLOAD SWAP1 DUP2 MSTORE RETURN JUMPDEST CALLVALUE PUSH2 0x19C JUMPI PUSH1 0x0 CALLDATASIZE PUSH1 0x3 NOT ADD SLT PUSH2 0x19C JUMPI PUSH1 0x1 SLOAD PUSH1 0x40 MLOAD PUSH1 0x1 PUSH1 0x1 PUSH1 0xA0 SHL SUB SWAP1 SWAP2 AND DUP2 MSTORE PUSH1 0x20 SWAP1 RETURN JUMPDEST CALLVALUE PUSH2 0x19C JUMPI PUSH1 0x20 CALLDATASIZE PUSH1 0x3 NOT ADD SLT PUSH2 0x19C JUMPI PUSH1 0x4 CALLDATALOAD PUSH1 0x0 MSTORE PUSH1 0xA PUSH1 0x20 MSTORE PUSH1 0x40 PUSH1 0x0 KECCAK256 PUSH1 0x1 DUP1 PUSH1 0xA0 SHL SUB DUP2 SLOAD AND PUSH1 0x1 DUP3 ADD SLOAD SWAP2 PUSH1 0x2 DUP2 ADD SLOAD PUSH1 0x3 DUP3 ADD SLOAD SWAP2 PUSH1 0x40 MLOAD SWAP1 PUSH2 0x822 DUP3 PUSH2 0x81B DUP2 PUSH1 0x4 DUP6 ADD PUSH2 0x31D7 JUMP JUMPDEST SUB DUP4 PUSH2 0x303E JUMP JUMPDEST PUSH1 0xFF PUSH1 0x5 DUP3 ADD SLOAD AND SWAP2 PUSH1 0x40 MLOAD SWAP5 PUSH2 0x260 DUP7 ADD DUP7 DUP2 LT PUSH1 0x1 PUSH1 0x1 PUSH1 0x40 SHL SUB DUP3 GT OR PUSH2 0x49F JUMPI PUSH2 0x95B SWAP4 PUSH1 0x19 SWAP2 PUSH1 0x40 MSTORE PUSH1 0x6 DUP2 ADD SLOAD DUP9 MSTORE PUSH1 0x7 DUP2 ADD SLOAD PUSH1 0x20 DUP10 ADD MSTORE PUSH2 0x86D PUSH1 0x8 DUP3 ADD PUSH2 0x3322 JUMP JUMPDEST PUSH1 0x40 DUP10 ADD MSTORE PUSH2 0x87E PUSH1 0x9 DUP3 ADD PUSH2 0x3322 JUMP JUMPDEST PUSH1 0x60 DUP10 ADD MSTORE PUSH1 0xA DUP2 ADD SLOAD PUSH1 0x80 DUP10 ADD MSTORE PUSH1 0xB DUP2 ADD SLOAD PUSH1 0xA0 DUP10 ADD MSTORE PUSH1 0xFF PUSH1 0xC DUP3 ADD SLOAD AND ISZERO ISZERO PUSH1 0xC0 DUP10 ADD MSTORE PUSH1 0xD DUP2 ADD SLOAD PUSH1 0xE0 DUP10 ADD MSTORE PUSH1 0xE DUP2 ADD SLOAD PUSH2 0x100 DUP10 ADD MSTORE PUSH1 0xF DUP2 ADD SLOAD PUSH2 0x120 DUP10 ADD MSTORE PUSH1 0x10 DUP2 ADD SLOAD PUSH2 0x140 DUP10 ADD MSTORE PUSH1 0x11 DUP2 ADD SLOAD PUSH2 0x160 DUP10 ADD MSTORE PUSH1 0x12 DUP2 ADD SLOAD PUSH2 0x180 DUP10 ADD MSTORE PUSH1 0x13 DUP2 ADD SLOAD PUSH2 0x1A0 DUP10 ADD MSTORE PUSH1 0x14 DUP2 ADD SLOAD PUSH2 0x1C0 DUP10 ADD MSTORE PUSH1 0x15 DUP2 ADD SLOAD PUSH2 0x1E0 DUP10 ADD MSTORE PUSH1 0x16 DUP2 ADD SLOAD PUSH2 0x200 DUP10 ADD MSTORE PUSH1 0xFF PUSH1 0x17 DUP3 ADD SLOAD AND ISZERO ISZERO PUSH2 0x220 DUP10 ADD MSTORE PUSH1 0x18 DUP2 ADD SLOAD PUSH2 0x240 DUP10 ADD MSTORE ADD SLOAD SWAP5 PUSH1 0x40 MLOAD SWAP9 DUP10 SWAP9 DUP10 MSTORE PUSH1 0x20 DUP10 ADD MSTORE PUSH1 0x40 DUP9 ADD MSTORE PUSH1 0x60 DUP8 ADD MSTORE PUSH2 0x100 PUSH1 0x80 DUP8 ADD MSTORE PUSH2 0x100 DUP7 ADD SWAP1 PUSH2 0x2EDD JUMP JUMPDEST SWAP1 ISZERO ISZERO PUSH1 0xA0 DUP6 ADD MSTORE DUP4 DUP2 SUB PUSH1 0xC0 DUP6 ADD MSTORE DUP3 MLOAD DUP2 MSTORE PUSH1 0x20 DUP4 ADD MLOAD PUSH1 0x20 DUP3 ADD MSTORE PUSH2 0x240 DUP1 PUSH2 0x9AD PUSH2 0x99B PUSH1 0x40 DUP8 ADD MLOAD PUSH2 0x260 PUSH1 0x40 DUP8 ADD MSTORE PUSH2 0x260 DUP7 ADD SWAP1 PUSH2 0x3387 JUMP JUMPDEST PUSH1 0x60 DUP8 ADD MLOAD DUP6 DUP3 SUB PUSH1 0x60 DUP8 ADD MSTORE PUSH2 0x3387 JUMP JUMPDEST SWAP5 PUSH1 0x80 DUP2 ADD MLOAD PUSH1 0x80 DUP6 ADD MSTORE PUSH1 0xA0 DUP2 ADD MLOAD PUSH1 0xA0 DUP6 ADD MSTORE PUSH1 0xC0 DUP2 ADD MLOAD ISZERO ISZERO PUSH1 0xC0 DUP6 ADD MSTORE PUSH1 0xE0 DUP2 ADD MLOAD PUSH1 0xE0 DUP6 ADD MSTORE PUSH2 0x100 DUP2 ADD MLOAD PUSH2 0x100 DUP6 ADD MSTORE PUSH2 0x120 DUP2 ADD MLOAD PUSH2 0x120 DUP6 ADD MSTORE PUSH2 0x140 DUP2 ADD MLOAD PUSH2 0x140 DUP6 ADD MSTORE PUSH2 0x160 DUP2 ADD MLOAD PUSH2 0x160 DUP6 ADD MSTORE PUSH2 0x180 DUP2 ADD MLOAD PUSH2 0x180 DUP6 ADD MSTORE PUSH2 0x1A0 DUP2 ADD MLOAD PUSH2 0x1A0 DUP6 ADD MSTORE PUSH2 0x1C0 DUP2 ADD MLOAD PUSH2 0x1C0 DUP6 ADD MSTORE PUSH2 0x1E0 DUP2 ADD MLOAD PUSH2 0x1E0 DUP6 ADD MSTORE PUSH2 0x200 DUP2 ADD MLOAD PUSH2 0x200 DUP6 ADD MSTORE PUSH2 0x220 DUP2 ADD MLOAD ISZERO ISZERO PUSH2 0x220 DUP6 ADD MSTORE ADD MLOAD SWAP2 ADD MSTORE PUSH1 0xE0 DUP4 ADD MSTORE SUB SWAP1 RETURN JUMPDEST CALLVALUE PUSH2 0x19C JUMPI PUSH1 0x0 CALLDATASIZE PUSH1 0x3 NOT ADD SLT PUSH2 0x19C JUMPI PUSH1 0x20 PUSH1 0x6 SLOAD PUSH1 0x40 MLOAD SWAP1 DUP2 MSTORE RETURN JUMPDEST CALLVALUE PUSH2 0x19C JUMPI PUSH1 0x20 CALLDATASIZE PUSH1 0x3 NOT ADD SLT PUSH2 0x19C JUMPI PUSH1 0x4 CALLDATALOAD PUSH1 0x0 MSTORE PUSH1 0xD PUSH1 0x20 MSTORE PUSH1 0x20 PUSH1 0x40 PUSH1 0x0 KECCAK256 SLOAD PUSH1 0x40 MLOAD SWAP1 DUP2 MSTORE RETURN JUMPDEST PUSH1 0x20 DUP1 PUSH1 0x3 NOT CALLDATASIZE ADD SLT PUSH2 0x19C JUMPI PUSH1 0x4 CALLDATALOAD DUP1 ISZERO ISZERO DUP1 PUSH2 0xD2B JUMPI JUMPDEST ISZERO PUSH2 0xCF0 JUMPI PUSH1 0x0 MSTORE PUSH1 0x5 DUP2 MSTORE PUSH1 0x40 PUSH1 0x0 KECCAK256 PUSH1 0xFF PUSH1 0x8 DUP3 ADD SLOAD AND ISZERO PUSH2 0xCB2 JUMPI PUSH1 0x3 DUP2 ADD SWAP1 DUP2 SLOAD CALLVALUE LT PUSH2 0xC76 JUMPI PUSH1 0x4 DUP2 ADD DUP1 SLOAD TIMESTAMP GT PUSH2 0xC3A JUMPI PUSH32 0xDEA7DBA60C96F43197D6382538A72502339E2C6A37B4091D6E1799B2F594B77B SWAP1 PUSH1 0x2 SLOAD SWAP3 PUSH2 0xB29 DUP5 PUSH2 0x343A JUMP JUMPDEST PUSH1 0x2 SSTORE DUP4 PUSH1 0x0 MSTORE PUSH1 0xA DUP7 MSTORE PUSH1 0x40 PUSH1 0x0 KECCAK256 DUP5 PUSH32 0x40C4BE14B60AEA566C81B5A163DAFA67BFA53127AD672A5AF714BD08BEEED6C PUSH1 0x1 PUSH1 0x1 PUSH1 0x60 SHL SUB PUSH1 0xA0 SHL SWAP5 CALLER DUP7 DUP6 SLOAD AND OR DUP5 SSTORE PUSH1 0x2 DUP6 ADD DUP1 SLOAD PUSH1 0x1 DUP7 ADD SSTORE TIMESTAMP PUSH1 0x2 DUP7 ADD SSTORE DUP2 SLOAD PUSH1 0x3 DUP7 ADD SSTORE PUSH1 0x0 PUSH1 0x19 PUSH1 0x1 DUP9 ADD SWAP7 PUSH2 0xB9D DUP9 PUSH1 0x4 DUP4 ADD PUSH2 0x35FC JUMP JUMPDEST PUSH1 0x5 DUP2 ADD PUSH1 0x1 PUSH1 0xFF NOT DUP3 SLOAD AND OR SWAP1 SSTORE ADD SSTORE CALLER PUSH1 0x0 MSTORE PUSH1 0x7 DUP12 MSTORE PUSH2 0xBC4 DUP5 PUSH1 0x40 PUSH1 0x0 KECCAK256 PUSH2 0x36D4 JUMP JUMPDEST PUSH1 0x1 DUP1 PUSH1 0xA0 SHL SUB SWAP7 DUP8 DUP8 SLOAD AND PUSH1 0x0 MSTORE PUSH1 0x8 DUP13 MSTORE PUSH2 0xBE5 DUP6 PUSH1 0x40 PUSH1 0x0 KECCAK256 PUSH2 0x36D4 JUMP JUMPDEST DUP8 DUP8 SLOAD AND DUP6 PUSH1 0x0 MSTORE PUSH1 0x9 DUP14 MSTORE PUSH1 0x40 PUSH1 0x0 KECCAK256 SWAP2 DUP3 SLOAD AND OR SWAP1 SSTORE SLOAD SWAP1 SLOAD PUSH1 0x40 MLOAD SWAP2 DUP3 MSTORE TIMESTAMP DUP12 DUP4 ADD MSTORE PUSH1 0x40 DUP3 ADD MSTORE PUSH1 0x80 PUSH1 0x60 DUP3 ADD MSTORE DUP1 PUSH2 0xC27 CALLER SWAP6 PUSH1 0x80 DUP4 ADD SWAP1 PUSH2 0x31D7 JUMP JUMPDEST SUB SWAP1 LOG3 SLOAD AND SWAP3 SLOAD SWAP4 PUSH1 0x40 MLOAD SWAP5 DUP6 MSTORE CALLER SWAP5 LOG4 STOP JUMPDEST PUSH1 0x40 MLOAD PUSH3 0x461BCD PUSH1 0xE5 SHL DUP2 MSTORE PUSH1 0x4 DUP2 ADD DUP6 SWAP1 MSTORE PUSH1 0x14 PUSH1 0x24 DUP3 ADD MSTORE PUSH20 0x15195B5C1B185D19481A185CC8195E1C1A5C9959 PUSH1 0x62 SHL PUSH1 0x44 DUP3 ADD MSTORE PUSH1 0x64 SWAP1 REVERT JUMPDEST PUSH1 0x40 MLOAD PUSH3 0x461BCD PUSH1 0xE5 SHL DUP2 MSTORE PUSH1 0x4 DUP2 ADD DUP5 SWAP1 MSTORE PUSH1 0x14 PUSH1 0x24 DUP3 ADD MSTORE PUSH20 0x125B9CDD59999A58DA595B9D081C185E5B595B9D PUSH1 0x62 SHL PUSH1 0x44 DUP3 ADD MSTORE PUSH1 0x64 SWAP1 REVERT JUMPDEST PUSH1 0x40 MLOAD PUSH3 0x461BCD PUSH1 0xE5 SHL DUP2 MSTORE PUSH1 0x4 DUP2 ADD DUP4 SWAP1 MSTORE PUSH1 0x16 PUSH1 0x24 DUP3 ADD MSTORE PUSH22 0x54656D706C617465206973206E6F7420616374697665 PUSH1 0x50 SHL PUSH1 0x44 DUP3 ADD MSTORE PUSH1 0x64 SWAP1 REVERT JUMPDEST PUSH1 0x40 MLOAD PUSH3 0x461BCD PUSH1 0xE5 SHL DUP2 MSTORE PUSH1 0x4 DUP2 ADD DUP4 SWAP1 MSTORE PUSH1 0x13 PUSH1 0x24 DUP3 ADD MSTORE PUSH19 0x125B9D985B1A59081D195B5C1B185D19481251 PUSH1 0x6A SHL PUSH1 0x44 DUP3 ADD MSTORE PUSH1 0x64 SWAP1 REVERT JUMPDEST POP PUSH1 0x6 SLOAD DUP2 LT PUSH2 0xAC3 JUMP JUMPDEST CALLVALUE PUSH2 0x19C JUMPI PUSH1 0x20 DUP1 PUSH1 0x3 NOT CALLDATASIZE ADD SLT PUSH2 0x19C JUMPI PUSH1 0x4 CALLDATALOAD SWAP1 DUP2 PUSH1 0x0 MSTORE PUSH1 0xB DUP2 MSTORE PUSH2 0xD67 PUSH1 0x4 PUSH1 0x40 PUSH1 0x0 KECCAK256 ADD SLOAD ISZERO ISZERO PUSH2 0x37FB JUMP JUMPDEST DUP2 PUSH1 0x0 MSTORE PUSH1 0xB DUP2 MSTORE PUSH1 0x40 PUSH1 0x0 KECCAK256 SWAP1 DUP2 SLOAD PUSH1 0x0 MSTORE PUSH1 0xA DUP2 MSTORE PUSH1 0x40 PUSH1 0x0 KECCAK256 PUSH1 0x40 MLOAD PUSH2 0xD9E DUP2 PUSH2 0xD97 DUP2 PUSH1 0x4 DUP7 ADD PUSH2 0x31D7 JUMP JUMPDEST SUB DUP3 PUSH2 0x303E JUMP JUMPDEST DUP3 DUP2 MLOAD SWAP2 ADD KECCAK256 PUSH2 0xDAC PUSH2 0x3709 JUMP JUMPDEST DUP1 MLOAD SWAP1 DUP5 ADD KECCAK256 SUB PUSH2 0xE80 JUMPI POP PUSH2 0xDC5 PUSH1 0x7 DUP4 ADD SLOAD PUSH2 0x319D JUMP JUMPDEST ISZERO PUSH2 0xE49 JUMPI PUSH1 0x8 DUP3 ADD SLOAD ISZERO PUSH2 0xE0C JUMPI POP PUSH1 0x5 SWAP1 JUMPDEST ADD DUP1 SLOAD PUSH1 0xFF NOT AND PUSH1 0x1 OR SWAP1 SSTORE PUSH32 0x393EFDA0B92BC01071B66A816D6BCDDDE867B8C91DA505A0F309D9133A53650A PUSH1 0x0 DUP1 LOG2 STOP JUMPDEST PUSH1 0x64 SWAP1 PUSH1 0x40 MLOAD SWAP1 PUSH3 0x461BCD PUSH1 0xE5 SHL DUP3 MSTORE PUSH1 0x4 DUP3 ADD MSTORE PUSH1 0x16 PUSH1 0x24 DUP3 ADD MSTORE PUSH22 0x4D697373696E672061646D697373696F6E2064617465 PUSH1 0x50 SHL PUSH1 0x44 DUP3 ADD MSTORE REVERT JUMPDEST PUSH1 0x64 SWAP1 PUSH1 0x40 MLOAD SWAP1 PUSH3 0x461BCD PUSH1 0xE5 SHL DUP3 MSTORE PUSH1 0x4 DUP3 ADD MSTORE PUSH1 0x10 PUSH1 0x24 DUP3 ADD MSTORE PUSH16 0x135A5CDCDA5B99C81050509210481251 PUSH1 0x82 SHL PUSH1 0x44 DUP3 ADD MSTORE REVERT JUMPDEST PUSH1 0x9 DUP4 ADD SLOAD ISZERO PUSH2 0xF4E JUMPI PUSH2 0xE9E PUSH1 0xB DUP5 ADD SLOAD PUSH1 0x16 DUP4 ADD SLOAD LT ISZERO PUSH2 0x374D JUMP JUMPDEST PUSH1 0xC DUP4 ADD SLOAD PUSH1 0x18 DUP3 ADD SLOAD PUSH1 0x3C DUP2 MUL SWAP1 DUP1 DUP3 DIV PUSH1 0x3C EQ SWAP1 ISZERO OR ISZERO PUSH2 0xF38 JUMPI PUSH2 0xEC6 SWAP2 GT ISZERO PUSH2 0x37A3 JUMP JUMPDEST PUSH1 0xFF PUSH1 0x17 DUP2 PUSH1 0xA DUP7 ADD SLOAD AND SWAP3 ADD SLOAD AND ISZERO ISZERO SWAP1 ISZERO ISZERO SUB PUSH2 0xEE8 JUMPI POP PUSH1 0x5 SWAP1 PUSH2 0xDD9 JUMP JUMPDEST PUSH1 0x84 SWAP1 PUSH1 0x40 MLOAD SWAP1 PUSH3 0x461BCD PUSH1 0xE5 SHL DUP3 MSTORE PUSH1 0x4 DUP3 ADD MSTORE PUSH1 0x23 PUSH1 0x24 DUP3 ADD MSTORE PUSH32 0x466C696768742063616E63656C6C6174696F6E20737461747573206D69736D61 PUSH1 0x44 DUP3 ADD MSTORE PUSH3 0xE8C6D PUSH1 0xEB SHL PUSH1 0x64 DUP3 ADD MSTORE REVERT JUMPDEST PUSH4 0x4E487B71 PUSH1 0xE0 SHL PUSH1 0x0 MSTORE PUSH1 0x11 PUSH1 0x4 MSTORE PUSH1 0x24 PUSH1 0x0 REVERT JUMPDEST PUSH1 0x40 MLOAD PUSH3 0x461BCD PUSH1 0xE5 SHL DUP2 MSTORE PUSH1 0x4 DUP2 ADD DUP4 SWAP1 MSTORE PUSH1 0x11 PUSH1 0x24 DUP3 ADD MSTORE PUSH17 0x135A5CDCDA5B99C8199B1A59DA1D081251 PUSH1 0x7A SHL PUSH1 0x44 DUP3 ADD MSTORE PUSH1 0x64 SWAP1 REVERT JUMPDEST CALLVALUE PUSH2 0x19C JUMPI PUSH1 0x20 CALLDATASIZE PUSH1 0x3 NOT ADD SLT PUSH2 0x19C JUMPI PUSH2 0xFA0 PUSH2 0x30B5 JUMP JUMPDEST PUSH1 0x0 SLOAD PUSH1 0x1 PUSH1 0x1 PUSH1 0xA0 SHL SUB SWAP2 SWAP1 DUP3 AND CALLER SUB PUSH2 0xFCE JUMPI AND PUSH1 0x1 PUSH1 0x1 PUSH1 0x60 SHL SUB PUSH1 0xA0 SHL PUSH1 0x1 SLOAD AND OR PUSH1 0x1 SSTORE PUSH1 0x0 DUP1 RETURN JUMPDEST PUSH1 0x40 MLOAD PUSH3 0x461BCD PUSH1 0xE5 SHL DUP2 MSTORE PUSH1 0x20 PUSH1 0x4 DUP3 ADD MSTORE PUSH1 0x21 PUSH1 0x24 DUP3 ADD MSTORE PUSH32 0x4F6E6C79206F776E65722063616E2063616C6C20746869732066756E6374696F PUSH1 0x44 DUP3 ADD MSTORE PUSH1 0x37 PUSH1 0xF9 SHL PUSH1 0x64 DUP3 ADD MSTORE PUSH1 0x84 SWAP1 REVERT JUMPDEST CALLVALUE PUSH2 0x19C JUMPI PUSH1 0x20 CALLDATASIZE PUSH1 0x3 NOT ADD SLT PUSH2 0x19C JUMPI PUSH1 0x4 CALLDATALOAD PUSH1 0x0 MSTORE PUSH1 0xB PUSH1 0x20 MSTORE PUSH1 0x40 PUSH1 0x0 KECCAK256 DUP1 SLOAD PUSH2 0x10D0 PUSH1 0x1 DUP1 PUSH1 0xA0 SHL SUB PUSH1 0x1 DUP5 ADD SLOAD AND SWAP2 PUSH1 0x2 DUP5 ADD SLOAD SWAP4 PUSH1 0x40 MLOAD SWAP2 PUSH2 0x1073 DUP4 PUSH2 0x106C DUP2 PUSH1 0x3 DUP7 ADD PUSH2 0x31D7 JUMP JUMPDEST SUB DUP5 PUSH2 0x303E JUMP JUMPDEST PUSH1 0x4 DUP3 ADD SLOAD SWAP1 PUSH1 0x5 DUP4 ADD SLOAD PUSH1 0x6 DUP5 ADD SLOAD PUSH1 0x40 MLOAD SWAP1 PUSH2 0x1098 DUP3 PUSH2 0x81B DUP2 PUSH1 0x7 DUP11 ADD PUSH2 0x31D7 JUMP JUMPDEST PUSH1 0x8 DUP7 ADD SLOAD SWAP3 PUSH1 0x9 DUP8 ADD SLOAD SWAP5 PUSH1 0xFF PUSH1 0xA DUP10 ADD SLOAD AND SWAP7 PUSH1 0xC PUSH1 0xB DUP11 ADD SLOAD SWAP10 ADD SLOAD SWAP10 PUSH1 0x40 MLOAD SWAP14 DUP15 SWAP14 DUP15 SWAP5 PUSH1 0xFF DUP1 DUP9 PUSH1 0x8 SHR AND SWAP8 AND SWAP6 PUSH2 0x329B JUMP JUMPDEST SUB SWAP1 RETURN JUMPDEST CALLVALUE PUSH2 0x19C JUMPI PUSH1 0x0 CALLDATASIZE PUSH1 0x3 NOT ADD SLT PUSH2 0x19C JUMPI PUSH1 0x20 PUSH1 0x3 SLOAD PUSH1 0x40 MLOAD SWAP1 DUP2 MSTORE RETURN JUMPDEST CALLVALUE PUSH2 0x19C JUMPI PUSH1 0x20 CALLDATASIZE PUSH1 0x3 NOT ADD SLT PUSH2 0x19C JUMPI PUSH1 0x4 CALLDATALOAD PUSH1 0x0 MSTORE PUSH1 0x9 PUSH1 0x20 MSTORE PUSH1 0x20 PUSH1 0x1 DUP1 PUSH1 0xA0 SHL SUB PUSH1 0x40 PUSH1 0x0 KECCAK256 SLOAD AND PUSH1 0x40 MLOAD SWAP1 DUP2 MSTORE RETURN JUMPDEST CALLVALUE PUSH2 0x19C JUMPI PUSH1 0x0 CALLDATASIZE PUSH1 0x3 NOT ADD SLT PUSH2 0x19C JUMPI PUSH1 0x0 SLOAD PUSH1 0x40 MLOAD PUSH1 0x1 PUSH1 0x1 PUSH1 0xA0 SHL SUB SWAP1 SWAP2 AND DUP2 MSTORE PUSH1 0x20 SWAP1 RETURN JUMPDEST CALLVALUE PUSH2 0x19C JUMPI PUSH1 0x20 DUP1 PUSH1 0x3 NOT CALLDATASIZE ADD SLT PUSH2 0x19C JUMPI PUSH1 0x4 CALLDATALOAD DUP1 PUSH1 0x0 MSTORE PUSH1 0xB DUP3 MSTORE PUSH1 0x40 PUSH1 0x0 KECCAK256 SWAP1 PUSH1 0x5 DUP3 ADD SWAP3 DUP4 SLOAD SWAP1 PUSH1 0xFF DUP3 AND ISZERO PUSH2 0x1248 JUMPI PUSH1 0xFF DUP3 PUSH1 0x8 SHR AND PUSH2 0x120F JUMPI DUP4 SLOAD SWAP4 DUP5 PUSH1 0x0 MSTORE PUSH1 0xA DUP3 MSTORE PUSH1 0x40 PUSH1 0x0 KECCAK256 SWAP6 PUSH1 0x7 PUSH1 0x2 DUP4 ADD SLOAD SWAP8 ADD SLOAD DUP1 DUP9 MUL SWAP1 DUP9 DUP3 DIV EQ DUP9 ISZERO OR ISZERO PUSH2 0xF38 JUMPI PUSH1 0x64 SWAP1 DIV DUP8 SUB SWAP7 DUP8 GT PUSH2 0xF38 JUMPI PUSH2 0x100 PUSH32 0x849691C977F9A77B8DAA21C9421D1B771D1B125CBCF97B43D24F17128F6D435 SWAP5 PUSH2 0xFF00 NOT AND OR SWAP1 SSTORE DUP6 PUSH1 0x6 DUP3 ADD SSTORE PUSH1 0x1 DUP1 DUP1 PUSH1 0xA0 SHL SUB SWAP2 ADD SLOAD AND SWAP5 PUSH1 0x40 MLOAD SWAP1 DUP2 MSTORE LOG4 STOP JUMPDEST PUSH1 0x64 SWAP1 PUSH1 0x40 MLOAD SWAP1 PUSH3 0x461BCD PUSH1 0xE5 SHL DUP3 MSTORE PUSH1 0x4 DUP3 ADD MSTORE PUSH1 0x12 PUSH1 0x24 DUP3 ADD MSTORE PUSH18 0x10DB185A5B48185B1C9958591E481C185A59 PUSH1 0x72 SHL PUSH1 0x44 DUP3 ADD MSTORE REVERT JUMPDEST PUSH1 0x64 SWAP1 PUSH1 0x40 MLOAD SWAP1 PUSH3 0x461BCD PUSH1 0xE5 SHL DUP3 MSTORE PUSH1 0x4 DUP3 ADD MSTORE PUSH1 0x12 PUSH1 0x24 DUP3 ADD MSTORE PUSH18 0x10DB185A5B481B9BDD081D995C9A599A5959 PUSH1 0x72 SHL PUSH1 0x44 DUP3 ADD MSTORE REVERT JUMPDEST CALLVALUE PUSH2 0x19C JUMPI PUSH1 0x20 CALLDATASIZE PUSH1 0x3 NOT ADD SLT PUSH2 0x19C JUMPI PUSH1 0x4 CALLDATALOAD DUP1 PUSH1 0x0 MSTORE PUSH1 0xB PUSH1 0x20 MSTORE PUSH2 0x12B1 PUSH1 0x4 PUSH1 0x40 PUSH1 0x0 KECCAK256 ADD SLOAD ISZERO ISZERO PUSH2 0x37FB JUMP JUMPDEST PUSH1 0x0 MSTORE PUSH1 0xB PUSH1 0x20 MSTORE PUSH1 0x40 PUSH1 0x0 KECCAK256 DUP1 SLOAD SWAP1 PUSH2 0x10D0 PUSH1 0x1 DUP1 PUSH1 0xA0 SHL SUB PUSH1 0x1 DUP4 ADD SLOAD AND SWAP2 PUSH1 0x2 DUP2 ADD SLOAD SWAP4 PUSH1 0x4 DUP3 ADD SLOAD SWAP1 PUSH1 0x5 DUP4 ADD SLOAD PUSH1 0x6 DUP5 ADD SLOAD PUSH1 0x7 PUSH1 0x8 DUP7 ADD SLOAD SWAP2 PUSH1 0x9 DUP8 ADD SLOAD SWAP4 PUSH1 0xFF PUSH1 0xA DUP10 ADD SLOAD AND SWAP6 PUSH1 0xB DUP10 ADD SLOAD SWAP8 PUSH1 0xC DUP11 ADD SLOAD SWAP10 PUSH2 0x133A PUSH1 0x40 MLOAD SWAP2 PUSH2 0x1323 DUP4 PUSH2 0x106C DUP2 PUSH1 0x3 DUP6 ADD PUSH2 0x31D7 JUMP JUMPDEST PUSH2 0x1333 PUSH1 0x40 MLOAD DUP1 SWAP10 DUP2 SWAP4 ADD PUSH2 0x31D7 JUMP JUMPDEST SUB DUP8 PUSH2 0x303E JUMP JUMPDEST PUSH1 0x40 MLOAD SWAP14 DUP15 SWAP14 DUP15 SWAP5 PUSH1 0xFF DUP1 DUP9 PUSH1 0x8 SHR AND SWAP8 AND SWAP6 PUSH2 0x329B JUMP JUMPDEST CALLVALUE PUSH2 0x19C JUMPI PUSH1 0x40 CALLDATASIZE PUSH1 0x3 NOT ADD SLT PUSH2 0x19C JUMPI PUSH1 0x24 CALLDATALOAD PUSH1 0x4 CALLDATALOAD PUSH1 0x0 MSTORE PUSH1 0xC PUSH1 0x20 MSTORE PUSH1 0x40 PUSH1 0x0 KECCAK256 DUP1 SLOAD DUP3 LT ISZERO PUSH2 0x19C JUMPI PUSH1 0x20 SWAP2 PUSH2 0x18E SWAP2 PUSH2 0x326D JUMP JUMPDEST CALLVALUE PUSH2 0x19C JUMPI PUSH1 0x20 DUP1 PUSH1 0x3 NOT CALLDATASIZE ADD SLT PUSH2 0x19C JUMPI PUSH2 0x13A5 PUSH2 0x30B5 JUMP JUMPDEST PUSH1 0x6 SLOAD PUSH1 0x1 PUSH1 0x1 PUSH1 0xA0 SHL SUB SWAP2 DUP3 AND SWAP3 SWAP1 SWAP2 SWAP1 PUSH1 0x0 PUSH1 0x1 JUMPDEST DUP5 DUP2 LT PUSH2 0x1443 JUMPI POP PUSH2 0x13CD SWAP1 PUSH2 0x34A7 JUMP JUMPDEST SWAP4 PUSH1 0x0 SWAP2 PUSH1 0x1 JUMPDEST DUP6 DUP2 LT PUSH2 0x13E9 JUMPI PUSH1 0x40 MLOAD DUP1 PUSH2 0x10D0 DUP10 DUP3 PUSH2 0x2F1D JUMP JUMPDEST DUP1 PUSH1 0x0 MSTORE PUSH1 0x5 DUP3 MSTORE PUSH1 0x40 PUSH1 0x0 KECCAK256 DUP4 DUP7 DUP3 SLOAD AND EQ PUSH2 0x1410 JUMPI JUMPDEST POP PUSH2 0x140B SWAP1 PUSH2 0x343A JUMP JUMPDEST PUSH2 0x13D4 JUMP JUMPDEST PUSH2 0x140B SWAP2 SWAP5 PUSH2 0x1421 PUSH2 0x143C SWAP3 PUSH2 0x3552 JUMP JUMPDEST PUSH2 0x142B DUP3 DUP12 PUSH2 0x353E JUMP JUMPDEST MSTORE PUSH2 0x1436 DUP2 DUP11 PUSH2 0x353E JUMP JUMPDEST POP PUSH2 0x343A JUMP JUMPDEST SWAP4 SWAP1 PUSH2 0x1401 JUMP JUMPDEST DUP1 PUSH1 0x0 MSTORE PUSH1 0x5 DUP4 MSTORE DUP6 DUP5 PUSH1 0x40 PUSH1 0x0 KECCAK256 SLOAD AND EQ PUSH2 0x1468 JUMPI JUMPDEST PUSH2 0x1463 SWAP1 PUSH2 0x343A JUMP JUMPDEST PUSH2 0x13BC JUMP JUMPDEST SWAP1 PUSH2 0x1475 PUSH2 0x1463 SWAP2 PUSH2 0x343A JUMP JUMPDEST SWAP2 SWAP1 POP PUSH2 0x145A JUMP JUMPDEST CALLVALUE PUSH2 0x19C JUMPI PUSH1 0x40 CALLDATASIZE PUSH1 0x3 NOT ADD SLT PUSH2 0x19C JUMPI PUSH2 0x1496 PUSH2 0x30B5 JUMP JUMPDEST PUSH1 0x1 PUSH1 0x1 PUSH1 0xA0 SHL SUB AND PUSH1 0x0 SWAP1 DUP2 MSTORE PUSH1 0x7 PUSH1 0x20 MSTORE PUSH1 0x40 SWAP1 KECCAK256 DUP1 SLOAD PUSH1 0x24 CALLDATALOAD SWAP2 SWAP1 DUP3 LT ISZERO PUSH2 0x19C JUMPI PUSH1 0x20 SWAP2 PUSH2 0x18E SWAP2 PUSH2 0x326D JUMP JUMPDEST CALLVALUE PUSH2 0x19C JUMPI PUSH1 0x20 DUP1 PUSH1 0x3 NOT CALLDATASIZE ADD SLT PUSH2 0x19C JUMPI PUSH1 0x1 PUSH1 0x1 PUSH1 0xA0 SHL SUB PUSH2 0x14E9 PUSH2 0x30B5 JUMP JUMPDEST AND PUSH1 0x0 MSTORE PUSH1 0x7 DUP2 MSTORE PUSH1 0x40 PUSH1 0x0 KECCAK256 SWAP1 PUSH1 0x40 MLOAD SWAP1 DUP2 DUP2 DUP5 SLOAD SWAP2 DUP3 DUP2 MSTORE ADD SWAP4 PUSH1 0x0 MSTORE DUP2 PUSH1 0x0 KECCAK256 SWAP2 PUSH1 0x0 SWAP1 JUMPDEST DUP3 DUP3 LT PUSH2 0x1534 JUMPI PUSH2 0x10D0 DUP6 PUSH2 0x1528 DUP2 DUP10 SUB DUP3 PUSH2 0x303E JUMP JUMPDEST PUSH1 0x40 MLOAD SWAP2 DUP3 SWAP2 DUP3 PUSH2 0x3162 JUMP JUMPDEST DUP4 SLOAD DUP7 MSTORE SWAP5 DUP6 ADD SWAP5 PUSH1 0x1 SWAP4 DUP5 ADD SWAP4 SWAP1 SWAP2 ADD SWAP1 PUSH2 0x1511 JUMP JUMPDEST CALLVALUE PUSH2 0x19C JUMPI PUSH1 0x20 CALLDATASIZE PUSH1 0x3 NOT ADD SLT PUSH2 0x19C JUMPI PUSH1 0x4 CALLDATALOAD PUSH1 0x0 MSTORE PUSH1 0x5 PUSH1 0x20 MSTORE PUSH1 0x40 PUSH1 0x0 KECCAK256 PUSH1 0x1 DUP1 PUSH1 0xA0 SHL SUB DUP2 SLOAD AND PUSH1 0x40 MLOAD SWAP2 PUSH2 0x158B DUP4 PUSH2 0x106C DUP2 PUSH1 0x1 DUP6 ADD PUSH2 0x31D7 JUMP JUMPDEST PUSH1 0x2 DUP2 ADD SLOAD PUSH2 0x162D PUSH1 0x3 DUP4 ADD SLOAD SWAP2 PUSH2 0x161F PUSH1 0x4 DUP6 ADD SLOAD SWAP2 PUSH1 0x5 DUP7 ADD SLOAD PUSH1 0x40 MLOAD SWAP1 PUSH2 0x15BC DUP3 PUSH2 0x81B DUP2 PUSH1 0x6 DUP13 ADD PUSH2 0x31D7 JUMP JUMPDEST PUSH1 0x40 MLOAD SWAP5 PUSH2 0x15D1 DUP7 PUSH2 0x1333 DUP2 PUSH1 0x7 DUP14 ADD PUSH2 0x31D7 JUMP JUMPDEST PUSH1 0x9 PUSH1 0xFF PUSH1 0x8 DUP12 ADD SLOAD AND SWAP10 ADD SLOAD SWAP8 PUSH2 0x15FD PUSH1 0x40 MLOAD SWAP13 DUP14 SWAP13 DUP14 MSTORE PUSH1 0x20 DUP14 PUSH2 0x140 SWAP2 DUP3 SWAP2 ADD MSTORE DUP14 ADD SWAP1 PUSH2 0x2EDD JUMP JUMPDEST SWAP5 PUSH1 0x40 DUP13 ADD MSTORE PUSH1 0x60 DUP12 ADD MSTORE PUSH1 0x80 DUP11 ADD MSTORE PUSH1 0xA0 DUP10 ADD MSTORE DUP8 DUP3 SUB PUSH1 0xC0 DUP10 ADD MSTORE PUSH2 0x2EDD JUMP JUMPDEST SWAP1 DUP6 DUP3 SUB PUSH1 0xE0 DUP8 ADD MSTORE PUSH2 0x2EDD JUMP JUMPDEST SWAP2 ISZERO ISZERO PUSH2 0x100 DUP5 ADD MSTORE PUSH2 0x120 DUP4 ADD MSTORE SUB SWAP1 RETURN JUMPDEST CALLVALUE PUSH2 0x19C JUMPI PUSH1 0x20 DUP1 PUSH1 0x3 NOT CALLDATASIZE ADD SLT PUSH2 0x19C JUMPI PUSH1 0x1 PUSH1 0x1 PUSH1 0xA0 SHL SUB PUSH2 0x1662 PUSH2 0x30B5 JUMP JUMPDEST AND PUSH1 0x0 MSTORE PUSH1 0x8 DUP2 MSTORE PUSH1 0x40 PUSH1 0x0 KECCAK256 SWAP1 PUSH1 0x40 MLOAD SWAP1 DUP2 DUP2 DUP5 SLOAD SWAP2 DUP3 DUP2 MSTORE ADD SWAP4 PUSH1 0x0 MSTORE DUP2 PUSH1 0x0 KECCAK256 SWAP2 PUSH1 0x0 SWAP1 JUMPDEST DUP3 DUP3 LT PUSH2 0x16A1 JUMPI PUSH2 0x10D0 DUP6 PUSH2 0x1528 DUP2 DUP10 SUB DUP3 PUSH2 0x303E JUMP JUMPDEST DUP4 SLOAD DUP7 MSTORE SWAP5 DUP6 ADD SWAP5 PUSH1 0x1 SWAP4 DUP5 ADD SWAP4 SWAP1 SWAP2 ADD SWAP1 PUSH2 0x168A JUMP JUMPDEST CALLVALUE PUSH2 0x19C JUMPI PUSH1 0x20 CALLDATASIZE PUSH1 0x3 NOT ADD SLT PUSH2 0x19C JUMPI PUSH1 0x4 CALLDATALOAD PUSH1 0x0 SWAP1 DUP2 MSTORE PUSH1 0xA PUSH1 0x20 MSTORE PUSH1 0x40 SWAP1 KECCAK256 DUP1 SLOAD PUSH1 0x1 PUSH1 0x1 PUSH1 0xA0 SHL SUB AND DUP1 ISZERO PUSH2 0x1751 JUMPI PUSH1 0x1 DUP3 ADD SLOAD SWAP2 PUSH2 0x1745 PUSH1 0x4 PUSH1 0x2 DUP4 ADD SLOAD PUSH1 0x3 DUP5 ADD SLOAD SWAP1 PUSH2 0x171D PUSH1 0xFF PUSH1 0x5 DUP8 ADD SLOAD AND SWAP6 PUSH2 0x106C PUSH1 0x40 MLOAD DUP1 SWAP7 DUP2 SWAP4 ADD PUSH2 0x31D7 JUMP JUMPDEST PUSH1 0x40 MLOAD SWAP7 DUP8 SWAP7 DUP8 MSTORE PUSH1 0x20 DUP8 ADD MSTORE PUSH1 0x40 DUP7 ADD MSTORE PUSH1 0x60 DUP6 ADD MSTORE PUSH1 0xC0 PUSH1 0x80 DUP6 ADD MSTORE PUSH1 0xC0 DUP5 ADD SWAP1 PUSH2 0x2EDD JUMP JUMPDEST SWAP1 ISZERO ISZERO PUSH1 0xA0 DUP4 ADD MSTORE SUB SWAP1 RETURN JUMPDEST PUSH1 0x40 MLOAD PUSH3 0x461BCD PUSH1 0xE5 SHL DUP2 MSTORE PUSH1 0x20 PUSH1 0x4 DUP3 ADD MSTORE PUSH1 0x15 PUSH1 0x24 DUP3 ADD MSTORE PUSH21 0x141BDB1A58DE48191BD95CC81B9BDD08195E1A5CDD PUSH1 0x5A SHL PUSH1 0x44 DUP3 ADD MSTORE PUSH1 0x64 SWAP1 REVERT JUMPDEST CALLVALUE PUSH2 0x19C JUMPI PUSH1 0x0 CALLDATASIZE PUSH1 0x3 NOT ADD SLT PUSH2 0x19C JUMPI PUSH1 0x20 PUSH1 0x2 SLOAD PUSH1 0x40 MLOAD SWAP1 DUP2 MSTORE RETURN JUMPDEST CALLVALUE PUSH2 0x19C JUMPI PUSH2 0x300 CALLDATASIZE PUSH1 0x3 NOT ADD SLT PUSH2 0x19C JUMPI PUSH2 0x17C6 PUSH2 0x30B5 JUMP JUMPDEST PUSH1 0x84 SWAP1 DUP2 CALLDATALOAD PUSH1 0x1 PUSH1 0x1 PUSH1 0x40 SHL SUB DUP2 GT PUSH2 0x19C JUMPI PUSH2 0x17E7 SWAP1 CALLDATASIZE SWAP1 PUSH1 0x4 ADD PUSH2 0x305F JUMP JUMPDEST SWAP2 PUSH1 0xE4 CALLDATALOAD PUSH1 0x1 PUSH1 0x1 PUSH1 0x40 SHL SUB DUP2 GT PUSH2 0x19C JUMPI PUSH2 0x1807 SWAP1 CALLDATASIZE SWAP1 PUSH1 0x4 ADD PUSH2 0x30E2 JUMP JUMPDEST SWAP2 PUSH2 0x104 CALLDATALOAD PUSH1 0x1 PUSH1 0x1 PUSH1 0x40 SHL SUB DUP2 GT PUSH2 0x19C JUMPI PUSH2 0x1828 SWAP1 CALLDATASIZE SWAP1 PUSH1 0x4 ADD PUSH2 0x30E2 JUMP JUMPDEST SWAP3 PUSH2 0x164 CALLDATALOAD ISZERO ISZERO PUSH2 0x164 CALLDATALOAD SUB PUSH2 0x19C JUMPI PUSH2 0x2C4 CALLDATALOAD ISZERO ISZERO PUSH2 0x2C4 CALLDATALOAD SUB PUSH2 0x19C JUMPI PUSH1 0x1 SLOAD PUSH1 0x1 PUSH1 0x1 PUSH1 0xA0 SHL SUB SWAP4 SWAP1 DUP5 AND CALLER SUB PUSH2 0x22A7 JUMPI DUP4 DUP4 AND ISZERO PUSH2 0x2262 JUMPI PUSH2 0x1871 PUSH1 0x24 CALLDATALOAD ISZERO ISZERO PUSH2 0x33DC JUMP JUMPDEST PUSH1 0x44 CALLDATALOAD ISZERO PUSH2 0x2228 JUMPI PUSH1 0x44 CALLDATALOAD PUSH1 0x64 CALLDATALOAD GT ISZERO PUSH2 0x21DC JUMPI PUSH1 0x24 CALLDATALOAD PUSH1 0xA4 CALLDATALOAD GT PUSH2 0x217E JUMPI PUSH1 0x64 PUSH1 0xC4 CALLDATALOAD GT PUSH2 0x2131 JUMPI PUSH1 0x5A PUSH2 0x124 CALLDATALOAD GT PUSH2 0x20E3 JUMPI PUSH2 0x144 CALLDATALOAD ISZERO ISZERO DUP1 PUSH2 0x20D5 JUMPI JUMPDEST ISZERO PUSH2 0x207E JUMPI PUSH2 0x16D PUSH2 0x184 CALLDATALOAD GT PUSH2 0x2029 JUMPI PUSH1 0x1E PUSH2 0x264 CALLDATALOAD GT PUSH2 0x1FD1 JUMPI PUSH1 0x3C PUSH2 0x284 CALLDATALOAD GT PUSH2 0x1F78 JUMPI PUSH2 0x1E0 PUSH2 0x2A4 CALLDATALOAD GT PUSH2 0x1F34 JUMPI PUSH1 0x30 PUSH2 0x2E4 CALLDATALOAD GT PUSH2 0x1EE7 JUMPI POP DUP5 MLOAD PUSH1 0x20 DUP7 ADD SWAP1 DUP2 KECCAK256 PUSH2 0x1901 PUSH2 0x3709 JUMP JUMPDEST PUSH1 0x20 DUP2 MLOAD SWAP2 ADD KECCAK256 EQ SWAP1 DUP2 ISZERO PUSH2 0x1ECB JUMPI JUMPDEST POP ISZERO PUSH2 0x1E90 JUMPI PUSH1 0x2 SLOAD SWAP4 PUSH2 0x1924 DUP6 PUSH2 0x343A JUMP JUMPDEST PUSH1 0x2 SSTORE DUP5 PUSH1 0x0 MSTORE PUSH1 0xA PUSH1 0x20 MSTORE PUSH1 0x40 PUSH1 0x0 KECCAK256 SWAP2 DUP5 DUP5 AND PUSH1 0x1 PUSH1 0x1 PUSH1 0x60 SHL SUB PUSH1 0xA0 SHL DUP5 SLOAD AND OR DUP4 SSTORE PUSH1 0x24 CALLDATALOAD PUSH1 0x1 DUP5 ADD SSTORE PUSH1 0x44 CALLDATALOAD PUSH1 0x2 DUP5 ADD SSTORE PUSH1 0x64 CALLDATALOAD PUSH1 0x3 DUP5 ADD SSTORE DUP7 MLOAD PUSH1 0x1 PUSH1 0x1 PUSH1 0x40 SHL SUB DUP2 GT PUSH2 0x49F JUMPI PUSH2 0x198C DUP2 PUSH2 0x1983 PUSH1 0x4 DUP8 ADD SLOAD PUSH2 0x319D JUMP JUMPDEST PUSH1 0x4 DUP8 ADD PUSH2 0x3460 JUMP JUMPDEST DUP1 PUSH1 0x20 PUSH1 0x1F DUP3 GT PUSH1 0x1 EQ PUSH2 0x1E22 JUMPI PUSH1 0x0 SWAP2 PUSH2 0x1E17 JUMPI JUMPDEST POP DUP2 PUSH1 0x1 SHL SWAP2 PUSH1 0x0 NOT SWAP1 PUSH1 0x3 SHL SHR NOT AND OR PUSH1 0x4 DUP5 ADD SSTORE JUMPDEST PUSH1 0xA4 CALLDATALOAD PUSH1 0x6 DUP5 ADD SSTORE PUSH1 0xC4 CALLDATALOAD PUSH1 0x7 DUP5 ADD SSTORE DUP1 MLOAD SWAP1 PUSH1 0x1 PUSH1 0x40 SHL DUP3 GT PUSH2 0x49F JUMPI PUSH1 0x8 DUP5 ADD SLOAD DUP3 PUSH1 0x8 DUP7 ADD SSTORE DUP1 DUP4 LT PUSH2 0x1D9F JUMPI JUMPDEST POP PUSH1 0x20 ADD SWAP1 PUSH1 0x8 DUP5 ADD PUSH1 0x0 MSTORE PUSH1 0x20 PUSH1 0x0 KECCAK256 SWAP2 PUSH1 0x0 SWAP1 JUMPDEST DUP3 DUP3 LT PUSH2 0x1CC2 JUMPI POP POP POP POP DUP1 MLOAD SWAP1 PUSH1 0x1 PUSH1 0x40 SHL DUP3 GT PUSH2 0x49F JUMPI PUSH1 0x9 DUP4 ADD SLOAD DUP3 PUSH1 0x9 DUP6 ADD SSTORE DUP1 DUP4 LT PUSH2 0x1C4A JUMPI JUMPDEST POP PUSH1 0x20 ADD SWAP1 PUSH1 0x9 DUP4 ADD PUSH1 0x0 MSTORE PUSH1 0x20 PUSH1 0x0 KECCAK256 SWAP2 PUSH1 0x0 SWAP1 JUMPDEST DUP3 DUP3 LT PUSH2 0x1B67 JUMPI DUP9 DUP9 PUSH32 0x40C4BE14B60AEA566C81B5A163DAFA67BFA53127AD672A5AF714BD08BEEED6C DUP10 DUP10 PUSH1 0x0 PUSH1 0x19 DUP12 PUSH2 0x124 CALLDATALOAD PUSH1 0xA DUP3 ADD SSTORE PUSH2 0x144 CALLDATALOAD PUSH1 0xB DUP3 ADD SSTORE PUSH2 0x1AA1 PUSH2 0x164 CALLDATALOAD PUSH1 0xC DUP4 ADD SWAP1 PUSH1 0xFF DUP1 NOT DUP4 SLOAD AND SWAP2 ISZERO ISZERO AND OR SWAP1 SSTORE JUMP JUMPDEST PUSH2 0x184 CALLDATALOAD PUSH1 0xD DUP3 ADD SSTORE PUSH2 0x1A4 CALLDATALOAD PUSH1 0xE DUP3 ADD SSTORE PUSH2 0x1C4 CALLDATALOAD PUSH1 0xF DUP3 ADD SSTORE PUSH2 0x1E4 CALLDATALOAD PUSH1 0x10 DUP3 ADD SSTORE PUSH2 0x204 CALLDATALOAD PUSH1 0x11 DUP3 ADD SSTORE PUSH2 0x224 CALLDATALOAD PUSH1 0x12 DUP3 ADD SSTORE PUSH2 0x244 CALLDATALOAD PUSH1 0x13 DUP3 ADD SSTORE PUSH2 0x264 CALLDATALOAD PUSH1 0x14 DUP3 ADD SSTORE PUSH2 0x284 CALLDATALOAD PUSH1 0x15 DUP3 ADD SSTORE PUSH2 0x2A4 CALLDATALOAD PUSH1 0x16 DUP3 ADD SSTORE PUSH2 0x1B17 PUSH2 0x2C4 CALLDATALOAD PUSH1 0x17 DUP4 ADD SWAP1 PUSH1 0xFF DUP1 NOT DUP4 SLOAD AND SWAP2 ISZERO ISZERO AND OR SWAP1 SSTORE JUMP JUMPDEST PUSH2 0x2E4 CALLDATALOAD PUSH1 0x18 DUP3 ADD SSTORE PUSH1 0x5 DUP2 ADD PUSH1 0x1 PUSH1 0xFF NOT DUP3 SLOAD AND OR SWAP1 SSTORE ADD SSTORE PUSH2 0x1B62 PUSH1 0x40 MLOAD SWAP3 DUP4 SWAP3 PUSH1 0x24 CALLDATALOAD DUP5 MSTORE PUSH1 0x44 CALLDATALOAD PUSH1 0x20 DUP6 ADD MSTORE PUSH1 0x64 CALLDATALOAD PUSH1 0x40 DUP6 ADD MSTORE PUSH1 0x80 PUSH1 0x60 DUP6 ADD MSTORE AND SWAP6 PUSH1 0x80 DUP4 ADD SWAP1 PUSH2 0x2EDD JUMP JUMPDEST SUB SWAP1 LOG3 STOP JUMPDEST DUP1 MLOAD DUP1 MLOAD SWAP1 PUSH1 0x1 PUSH1 0x1 PUSH1 0x40 SHL SUB DUP3 GT PUSH2 0x49F JUMPI PUSH2 0x1B8E DUP3 PUSH2 0x1B88 DUP9 SLOAD PUSH2 0x319D JUMP JUMPDEST DUP9 PUSH2 0x3460 JUMP JUMPDEST PUSH1 0x20 SWAP1 PUSH1 0x1F DUP4 GT PUSH1 0x1 EQ PUSH2 0x1BDA JUMPI SWAP3 DUP3 PUSH1 0x1 SWAP5 SWAP4 PUSH1 0x20 SWAP4 DUP7 SWAP6 PUSH1 0x0 SWAP3 PUSH2 0x1BCF JUMPI JUMPDEST POP POP PUSH1 0x0 NOT PUSH1 0x3 DUP4 SWAP1 SHL SHR NOT AND SWAP1 DUP5 SHL OR DUP8 SSTORE JUMPDEST ADD SWAP5 ADD SWAP2 ADD SWAP1 SWAP3 PUSH2 0x1A42 JUMP JUMPDEST ADD MLOAD SWAP1 POP DUP15 DUP1 PUSH2 0x1BAF JUMP JUMPDEST SWAP1 DUP7 PUSH1 0x0 MSTORE PUSH1 0x20 PUSH1 0x0 KECCAK256 SWAP2 PUSH1 0x0 JUMPDEST PUSH1 0x1F NOT DUP6 AND DUP2 LT PUSH2 0x1C32 JUMPI POP DUP4 PUSH1 0x20 SWAP4 PUSH1 0x1 SWAP7 SWAP4 DUP8 SWAP7 SWAP4 DUP8 SWAP5 PUSH1 0x1F NOT DUP2 AND LT PUSH2 0x1C19 JUMPI JUMPDEST POP POP POP DUP2 SHL ADD DUP8 SSTORE PUSH2 0x1BC3 JUMP JUMPDEST ADD MLOAD PUSH1 0x0 NOT PUSH1 0xF8 DUP5 PUSH1 0x3 SHL AND SHR NOT AND SWAP1 SSTORE DUP15 DUP1 DUP1 PUSH2 0x1C0C JUMP JUMPDEST SWAP2 SWAP3 PUSH1 0x20 PUSH1 0x1 DUP2 SWAP3 DUP7 DUP6 ADD MLOAD DUP2 SSTORE ADD SWAP5 ADD SWAP3 ADD PUSH2 0x1BE8 JUMP JUMPDEST PUSH1 0x9 DUP5 ADD PUSH1 0x0 MSTORE PUSH1 0x20 PUSH1 0x0 KECCAK256 SWAP1 DUP4 DUP3 ADD JUMPDEST DUP2 DUP4 ADD DUP2 LT PUSH2 0x1C6B JUMPI POP POP PUSH2 0x1A2C JUMP JUMPDEST DUP1 PUSH2 0x1C78 PUSH1 0x1 SWAP3 SLOAD PUSH2 0x319D JUMP JUMPDEST DUP1 PUSH2 0x1C85 JUMPI JUMPDEST POP ADD PUSH2 0x1C5B JUMP JUMPDEST PUSH1 0x1F DUP2 GT DUP4 EQ PUSH2 0x1C9B JUMPI POP PUSH1 0x0 DUP2 SSTORE JUMPDEST DUP12 PUSH2 0x1C7E JUMP JUMPDEST PUSH1 0x0 SWAP1 DUP3 DUP3 MSTORE PUSH2 0x1CB9 PUSH1 0x1F PUSH1 0x20 DUP5 KECCAK256 SWAP3 ADD PUSH1 0x5 SHR DUP3 ADD DUP6 DUP4 ADD PUSH2 0x3449 JUMP JUMPDEST DUP2 DUP4 SSTORE SSTORE PUSH2 0x1C95 JUMP JUMPDEST DUP1 MLOAD DUP1 MLOAD SWAP1 PUSH1 0x1 PUSH1 0x1 PUSH1 0x40 SHL SUB DUP3 GT PUSH2 0x49F JUMPI PUSH2 0x1CE3 DUP3 PUSH2 0x1B88 DUP9 SLOAD PUSH2 0x319D JUMP JUMPDEST PUSH1 0x20 SWAP1 PUSH1 0x1F DUP4 GT PUSH1 0x1 EQ PUSH2 0x1D2F JUMPI SWAP3 DUP3 PUSH1 0x1 SWAP5 SWAP4 PUSH1 0x20 SWAP4 DUP7 SWAP6 PUSH1 0x0 SWAP3 PUSH2 0x1D24 JUMPI JUMPDEST POP POP PUSH1 0x0 NOT PUSH1 0x3 DUP4 SWAP1 SHL SHR NOT AND SWAP1 DUP5 SHL OR DUP8 SSTORE JUMPDEST ADD SWAP5 ADD SWAP2 ADD SWAP1 SWAP3 PUSH2 0x1A00 JUMP JUMPDEST ADD MLOAD SWAP1 POP DUP16 DUP1 PUSH2 0x1D04 JUMP JUMPDEST SWAP1 DUP7 PUSH1 0x0 MSTORE PUSH1 0x20 PUSH1 0x0 KECCAK256 SWAP2 PUSH1 0x0 JUMPDEST PUSH1 0x1F NOT DUP6 AND DUP2 LT PUSH2 0x1D87 JUMPI POP DUP4 PUSH1 0x20 SWAP4 PUSH1 0x1 SWAP7 SWAP4 DUP8 SWAP7 SWAP4 DUP8 SWAP5 PUSH1 0x1F NOT DUP2 AND LT PUSH2 0x1D6E JUMPI JUMPDEST POP POP POP DUP2 SHL ADD DUP8 SSTORE PUSH2 0x1D18 JUMP JUMPDEST ADD MLOAD PUSH1 0x0 NOT PUSH1 0xF8 DUP5 PUSH1 0x3 SHL AND SHR NOT AND SWAP1 SSTORE DUP16 DUP1 DUP1 PUSH2 0x1D61 JUMP JUMPDEST SWAP2 SWAP3 PUSH1 0x20 PUSH1 0x1 DUP2 SWAP3 DUP7 DUP6 ADD MLOAD DUP2 SSTORE ADD SWAP5 ADD SWAP3 ADD PUSH2 0x1D3D JUMP JUMPDEST PUSH1 0x8 DUP6 ADD PUSH1 0x0 MSTORE PUSH1 0x20 PUSH1 0x0 KECCAK256 SWAP1 DUP4 DUP3 ADD JUMPDEST DUP2 DUP4 ADD DUP2 LT PUSH2 0x1DC0 JUMPI POP POP PUSH2 0x19EA JUMP JUMPDEST DUP1 PUSH2 0x1DCD PUSH1 0x1 SWAP3 SLOAD PUSH2 0x319D JUMP JUMPDEST DUP1 PUSH2 0x1DDA JUMPI JUMPDEST POP ADD PUSH2 0x1DB0 JUMP JUMPDEST PUSH1 0x1F DUP2 GT DUP4 EQ PUSH2 0x1DF0 JUMPI POP PUSH1 0x0 DUP2 SSTORE JUMPDEST DUP13 PUSH2 0x1DD3 JUMP JUMPDEST PUSH1 0x0 SWAP1 DUP3 DUP3 MSTORE PUSH2 0x1E0E PUSH1 0x1F PUSH1 0x20 DUP5 KECCAK256 SWAP3 ADD PUSH1 0x5 SHR DUP3 ADD DUP6 DUP4 ADD PUSH2 0x3449 JUMP JUMPDEST DUP2 DUP4 SSTORE SSTORE PUSH2 0x1DEA JUMP JUMPDEST SWAP1 POP DUP9 ADD MLOAD DUP10 PUSH2 0x19A2 JUMP JUMPDEST SWAP2 POP PUSH1 0x4 DUP6 ADD PUSH1 0x0 MSTORE PUSH1 0x20 PUSH1 0x0 KECCAK256 PUSH1 0x0 SWAP3 JUMPDEST DUP11 PUSH1 0x1F NOT DUP5 AND DUP6 LT PUSH2 0x1E79 JUMPI POP PUSH1 0x1 SWAP4 POP DUP3 PUSH1 0x1F NOT DUP2 AND LT PUSH2 0x1E60 JUMPI JUMPDEST POP POP DUP2 SHL ADD PUSH1 0x4 DUP5 ADD SSTORE PUSH2 0x19B9 JUMP JUMPDEST DUP11 ADD MLOAD PUSH1 0x0 NOT PUSH1 0xF8 DUP5 PUSH1 0x3 SHL AND SHR NOT AND SWAP1 SSTORE DUP10 DUP1 PUSH2 0x1E51 JUMP JUMPDEST DUP2 ADD MLOAD DUP3 SSTORE PUSH1 0x20 SWAP4 DUP5 ADD SWAP4 PUSH1 0x1 SWAP1 SWAP3 ADD SWAP2 ADD PUSH2 0x1E34 JUMP JUMPDEST PUSH1 0x40 MLOAD PUSH3 0x461BCD PUSH1 0xE5 SHL DUP2 MSTORE PUSH1 0x20 PUSH1 0x4 DUP3 ADD MSTORE PUSH1 0x13 PUSH1 0x24 DUP3 ADD MSTORE PUSH19 0x496E76616C696420706F6C6963792074797065 PUSH1 0x68 SHL PUSH1 0x44 DUP3 ADD MSTORE PUSH1 0x64 SWAP1 REVERT JUMPDEST SWAP1 POP DUP6 MLOAD SWAP1 KECCAK256 PUSH2 0x1ED9 PUSH2 0x372B JUMP JUMPDEST PUSH1 0x20 DUP2 MLOAD SWAP2 ADD KECCAK256 EQ DUP7 PUSH2 0x1911 JUMP JUMPDEST PUSH1 0x40 MLOAD PUSH3 0x461BCD PUSH1 0xE5 SHL DUP2 MSTORE PUSH1 0x20 PUSH1 0x4 DUP3 ADD MSTORE PUSH1 0x22 PUSH1 0x24 DUP3 ADD MSTORE PUSH32 0x54726176656C2074696D652063616E6E6F742065786365656420343820686F75 PUSH1 0x44 DUP3 ADD MSTORE PUSH2 0x7273 PUSH1 0xF0 SHL PUSH1 0x64 DUP3 ADD MSTORE REVERT JUMPDEST PUSH1 0x64 PUSH1 0x40 MLOAD PUSH3 0x461BCD PUSH1 0xE5 SHL DUP2 MSTORE PUSH1 0x20 PUSH1 0x4 DUP3 ADD MSTORE PUSH1 0x20 PUSH1 0x24 DUP3 ADD MSTORE PUSH32 0x44656C61792074696D652063616E6E6F7420657863656564203820686F757273 PUSH1 0x44 DUP3 ADD MSTORE REVERT JUMPDEST PUSH1 0x40 MLOAD PUSH3 0x461BCD PUSH1 0xE5 SHL DUP2 MSTORE PUSH1 0x20 PUSH1 0x4 DUP3 ADD MSTORE PUSH1 0x2E PUSH1 0x24 DUP3 ADD MSTORE PUSH32 0x4D617820706F73742D686F73706974616C697A6174696F6E2064617973206361 PUSH1 0x44 DUP3 ADD MSTORE PUSH14 0x6E6E6F742065786365656420363 PUSH1 0x94 SHL PUSH1 0x64 DUP3 ADD MSTORE REVERT JUMPDEST PUSH1 0x40 MLOAD PUSH3 0x461BCD PUSH1 0xE5 SHL DUP2 MSTORE PUSH1 0x20 PUSH1 0x4 DUP3 ADD MSTORE PUSH1 0x2D PUSH1 0x24 DUP3 ADD MSTORE PUSH32 0x4D6178207072652D686F73706974616C697A6174696F6E20646179732063616E PUSH1 0x44 DUP3 ADD MSTORE PUSH13 0x6E6F742065786365656420333 PUSH1 0x9C SHL PUSH1 0x64 DUP3 ADD MSTORE REVERT JUMPDEST PUSH1 0x40 MLOAD PUSH3 0x461BCD PUSH1 0xE5 SHL DUP2 MSTORE PUSH1 0x20 PUSH1 0x4 DUP3 ADD MSTORE PUSH1 0x2A PUSH1 0x24 DUP3 ADD MSTORE PUSH32 0x4D617820686F73706974616C697A6174696F6E20646179732063616E6E6F7420 PUSH1 0x44 DUP3 ADD MSTORE PUSH10 0x65786365656420333635 PUSH1 0xB0 SHL PUSH1 0x64 DUP3 ADD MSTORE REVERT JUMPDEST PUSH1 0x40 MLOAD PUSH3 0x461BCD PUSH1 0xE5 SHL DUP2 MSTORE PUSH1 0x20 PUSH1 0x4 DUP3 ADD MSTORE PUSH1 0x2C PUSH1 0x24 DUP3 ADD MSTORE PUSH32 0x4D617820636C61696D73207065722079656172206D7573742062652062657477 PUSH1 0x44 DUP3 ADD MSTORE PUSH12 0x65656E203120616E6420313 PUSH1 0xA4 SHL PUSH1 0x64 DUP3 ADD MSTORE REVERT JUMPDEST POP PUSH1 0xA PUSH2 0x144 CALLDATALOAD GT ISZERO PUSH2 0x18B1 JUMP JUMPDEST PUSH1 0x40 MLOAD PUSH3 0x461BCD PUSH1 0xE5 SHL DUP2 MSTORE PUSH1 0x20 PUSH1 0x4 DUP3 ADD MSTORE PUSH1 0x24 DUP1 DUP3 ADD MSTORE PUSH32 0x57616974696E6720706572696F642063616E6E6F742065786365656420393020 PUSH1 0x44 DUP3 ADD MSTORE PUSH4 0x64617973 PUSH1 0xE0 SHL PUSH1 0x64 DUP3 ADD MSTORE REVERT JUMPDEST PUSH1 0x40 MLOAD PUSH3 0x461BCD PUSH1 0xE5 SHL DUP2 MSTORE PUSH1 0x20 PUSH1 0x4 DUP3 ADD MSTORE PUSH1 0x22 PUSH1 0x24 DUP3 ADD MSTORE PUSH32 0x436F7061792070657263656E746167652063616E6E6F74206578636565642031 PUSH1 0x44 DUP3 ADD MSTORE PUSH2 0x303 PUSH1 0xF4 SHL PUSH1 0x64 DUP3 ADD MSTORE REVERT JUMPDEST PUSH1 0x40 MLOAD PUSH3 0x461BCD PUSH1 0xE5 SHL DUP2 MSTORE PUSH1 0x20 PUSH1 0x4 DUP3 ADD MSTORE PUSH1 0x33 PUSH1 0x24 DUP3 ADD MSTORE PUSH32 0x4D617820636F7665726167652070657220636C61696D2063616E6E6F74206578 PUSH1 0x44 DUP3 ADD MSTORE PUSH19 0x6365656420746F74616C20636F766572616765 PUSH1 0x68 SHL PUSH1 0x64 DUP3 ADD MSTORE REVERT JUMPDEST PUSH1 0x40 MLOAD PUSH3 0x461BCD PUSH1 0xE5 SHL DUP2 MSTORE PUSH1 0x20 PUSH1 0x4 DUP3 ADD MSTORE PUSH1 0x21 PUSH1 0x24 DUP3 ADD MSTORE PUSH32 0x456E642064617465206D75737420626520616674657220737461727420646174 PUSH1 0x44 DUP3 ADD MSTORE PUSH1 0x65 PUSH1 0xF8 SHL PUSH1 0x64 DUP3 ADD MSTORE REVERT JUMPDEST PUSH1 0x40 MLOAD PUSH3 0x461BCD PUSH1 0xE5 SHL DUP2 MSTORE PUSH1 0x20 PUSH1 0x4 DUP3 ADD MSTORE PUSH1 0x12 PUSH1 0x24 DUP3 ADD MSTORE PUSH18 0x496E76616C69642073746172742064617465 PUSH1 0x70 SHL PUSH1 0x44 DUP3 ADD MSTORE PUSH1 0x64 SWAP1 REVERT JUMPDEST PUSH1 0x40 MLOAD PUSH3 0x461BCD PUSH1 0xE5 SHL DUP2 MSTORE PUSH1 0x20 PUSH1 0x4 DUP3 ADD MSTORE PUSH1 0x1C PUSH1 0x24 DUP3 ADD MSTORE PUSH32 0x496E76616C696420706F6C696379686F6C646572206164647265737300000000 PUSH1 0x44 DUP3 ADD MSTORE PUSH1 0x64 SWAP1 REVERT JUMPDEST PUSH1 0x40 MLOAD PUSH3 0x461BCD PUSH1 0xE5 SHL DUP2 MSTORE PUSH1 0x20 PUSH1 0x4 DUP3 ADD MSTORE PUSH1 0x23 PUSH1 0x24 DUP3 ADD MSTORE PUSH32 0x4F6E6C7920696E73757265722063616E2063616C6C20746869732066756E6374 PUSH1 0x44 DUP3 ADD MSTORE PUSH3 0x34B7B7 PUSH1 0xE9 SHL PUSH1 0x64 DUP3 ADD MSTORE REVERT JUMPDEST CALLVALUE PUSH2 0x19C JUMPI PUSH2 0x120 CALLDATASIZE PUSH1 0x3 NOT ADD SLT PUSH2 0x19C JUMPI PUSH1 0x44 CALLDATALOAD PUSH1 0x1 PUSH1 0x1 PUSH1 0x40 SHL SUB DUP2 GT PUSH2 0x19C JUMPI PUSH2 0x2326 SWAP1 CALLDATASIZE SWAP1 PUSH1 0x4 ADD PUSH2 0x305F JUMP JUMPDEST PUSH1 0x64 SWAP1 DUP2 CALLDATALOAD PUSH1 0x1 PUSH1 0x1 PUSH1 0x40 SHL SUB DUP2 GT PUSH2 0x19C JUMPI PUSH2 0x2347 SWAP1 CALLDATASIZE SWAP1 PUSH1 0x4 ADD PUSH2 0x305F JUMP JUMPDEST SWAP2 PUSH1 0xC4 CALLDATALOAD ISZERO ISZERO SWAP1 DUP2 PUSH1 0xC4 CALLDATALOAD SUB PUSH2 0x19C JUMPI PUSH1 0x4 CALLDATALOAD PUSH1 0x0 MSTORE PUSH1 0xA PUSH1 0x20 MSTORE PUSH1 0x40 PUSH1 0x0 KECCAK256 SWAP2 PUSH1 0x1 DUP1 PUSH1 0xA0 SHL SUB DUP4 SLOAD AND CALLER SUB PUSH2 0x2E09 JUMPI PUSH1 0xFF PUSH1 0x5 DUP5 ADD SLOAD AND ISZERO PUSH2 0x2DCF JUMPI PUSH1 0x2 DUP4 ADD SLOAD PUSH1 0xA DUP5 ADD SLOAD PUSH3 0x15180 SWAP1 DUP2 DUP2 MUL SWAP2 DUP2 DUP4 DIV EQ SWAP1 ISZERO OR ISZERO PUSH2 0xF38 JUMPI DUP2 ADD DUP1 SWAP2 GT PUSH2 0xF38 JUMPI TIMESTAMP LT PUSH2 0x2D8C JUMPI PUSH1 0x3 DUP4 ADD SLOAD TIMESTAMP GT PUSH2 0x2D58 JUMPI PUSH1 0x24 CALLDATALOAD ISZERO PUSH2 0x2D05 JUMPI PUSH1 0x6 DUP4 ADD SLOAD PUSH1 0x24 CALLDATALOAD GT PUSH2 0x2CA9 JUMPI PUSH1 0x19 DUP4 ADD SLOAD PUSH1 0xB DUP5 ADD SLOAD GT ISZERO PUSH2 0x2C66 JUMPI PUSH1 0x40 MLOAD PUSH1 0x4 DUP5 ADD SWAP1 PUSH2 0x23F9 DUP2 PUSH2 0xD97 DUP2 DUP6 PUSH2 0x31D7 JUMP JUMPDEST PUSH1 0x20 DUP2 MLOAD SWAP2 ADD KECCAK256 PUSH2 0x2408 PUSH2 0x3709 JUMP JUMPDEST PUSH1 0x20 DUP2 MLOAD SWAP2 ADD KECCAK256 EQ PUSH1 0x0 EQ PUSH2 0x29F8 JUMPI POP DUP5 MLOAD ISZERO PUSH2 0x29A9 JUMPI PUSH1 0x84 SWAP1 DUP2 CALLDATALOAD ISZERO PUSH2 0x2955 JUMPI PUSH1 0xA4 CALLDATALOAD PUSH2 0x290D JUMPI PUSH2 0x28C1 JUMPI PUSH1 0xE4 CALLDATALOAD PUSH2 0x287C JUMPI PUSH2 0x104 CALLDATALOAD PUSH2 0x2834 JUMPI POP PUSH1 0x9 DUP3 ADD SLOAD PUSH1 0x0 JUMPDEST DUP2 DUP2 LT PUSH2 0x27BC JUMPI POP POP PUSH1 0x0 DUP1 PUSH1 0x8 DUP5 ADD SLOAD SWAP1 JUMPDEST DUP2 DUP2 LT PUSH2 0x276F JUMPI JUMPDEST POP POP ISZERO PUSH2 0x272D JUMPI POP JUMPDEST PUSH1 0x3 SLOAD SWAP3 PUSH2 0x247D DUP5 PUSH2 0x343A JUMP JUMPDEST PUSH1 0x3 SSTORE DUP4 PUSH1 0x0 MSTORE PUSH1 0xB PUSH1 0x20 MSTORE PUSH1 0x40 PUSH1 0x0 KECCAK256 SWAP1 PUSH1 0x4 CALLDATALOAD DUP3 SSTORE PUSH1 0x1 DUP3 ADD CALLER PUSH1 0x1 PUSH1 0x1 PUSH1 0x60 SHL SUB PUSH1 0xA0 SHL DUP3 SLOAD AND OR SWAP1 SSTORE PUSH1 0x24 CALLDATALOAD PUSH1 0x2 DUP4 ADD SSTORE DUP4 MLOAD PUSH1 0x1 PUSH1 0x1 PUSH1 0x40 SHL SUB DUP2 GT PUSH2 0x49F JUMPI PUSH2 0x24DC DUP2 PUSH2 0x24D3 PUSH1 0x3 DUP7 ADD SLOAD PUSH2 0x319D JUMP JUMPDEST PUSH1 0x3 DUP7 ADD PUSH2 0x3460 JUMP JUMPDEST DUP1 PUSH1 0x20 PUSH1 0x1F DUP3 GT PUSH1 0x1 EQ PUSH2 0x26C0 JUMPI PUSH1 0x0 SWAP2 PUSH2 0x26B5 JUMPI JUMPDEST POP DUP2 PUSH1 0x1 SHL SWAP2 PUSH1 0x0 NOT SWAP1 PUSH1 0x3 SHL SHR NOT AND OR PUSH1 0x3 DUP4 ADD SSTORE JUMPDEST DUP1 MLOAD PUSH1 0x1 PUSH1 0x1 PUSH1 0x40 SHL SUB DUP2 GT PUSH2 0x49F JUMPI DUP1 PUSH1 0x7 DUP5 ADD SWAP3 PUSH2 0x2533 DUP3 PUSH2 0x252D DUP7 SLOAD PUSH2 0x319D JUMP JUMPDEST DUP7 PUSH2 0x3460 JUMP JUMPDEST PUSH1 0x20 SWAP1 PUSH1 0x1F DUP4 GT PUSH1 0x1 EQ PUSH2 0x264F JUMPI PUSH1 0x0 SWAP3 PUSH2 0x2644 JUMPI JUMPDEST POP POP DUP2 PUSH1 0x1 SHL SWAP2 PUSH1 0x0 NOT SWAP1 PUSH1 0x3 SHL SHR NOT AND OR SWAP1 SSTORE JUMPDEST PUSH1 0x84 CALLDATALOAD PUSH1 0x8 DUP3 ADD SSTORE PUSH1 0xA4 CALLDATALOAD PUSH1 0x9 DUP3 ADD SSTORE PUSH2 0x2589 PUSH1 0xC4 CALLDATALOAD PUSH1 0xA DUP4 ADD SWAP1 PUSH1 0xFF DUP1 NOT DUP4 SLOAD AND SWAP2 ISZERO ISZERO AND OR SWAP1 SSTORE JUMP JUMPDEST PUSH1 0xE4 CALLDATALOAD PUSH1 0xB DUP3 ADD SSTORE PUSH2 0x104 CALLDATALOAD PUSH1 0xC DUP3 ADD SSTORE PUSH1 0x5 DUP2 ADD PUSH2 0xFFFF NOT DUP2 SLOAD AND SWAP1 SSTORE PUSH1 0x0 PUSH1 0x6 DUP3 ADD SSTORE PUSH1 0x4 TIMESTAMP SWAP2 ADD SSTORE PUSH1 0x19 PUSH2 0x25C2 DUP2 DUP4 ADD SLOAD PUSH2 0x343A JUMP JUMPDEST SWAP2 ADD SSTORE PUSH1 0x4 CALLDATALOAD PUSH1 0x0 MSTORE PUSH1 0xC PUSH1 0x20 MSTORE PUSH2 0x25DE DUP3 PUSH1 0x40 PUSH1 0x0 KECCAK256 PUSH2 0x36D4 JUMP JUMPDEST PUSH1 0x4 CALLDATALOAD PUSH1 0x0 MSTORE PUSH1 0xD PUSH1 0x20 MSTORE PUSH1 0x40 PUSH1 0x0 KECCAK256 PUSH2 0x25F8 DUP2 SLOAD PUSH2 0x343A JUMP JUMPDEST SWAP1 SSTORE PUSH1 0x40 MLOAD SWAP2 PUSH1 0x24 CALLDATALOAD DUP4 MSTORE PUSH1 0x40 PUSH1 0x20 DUP5 ADD MSTORE PUSH32 0xD91AD459D6781AC1A94EB5C677E1AA55AB8D256CAE923E543A7E969235A041CA CALLER SWAP4 DUP1 PUSH2 0x263F PUSH1 0x4 CALLDATALOAD SWAP6 PUSH1 0x40 DUP4 ADD SWAP1 PUSH2 0x2EDD JUMP JUMPDEST SUB SWAP1 LOG4 STOP JUMPDEST ADD MLOAD SWAP1 POP DUP8 DUP1 PUSH2 0x2549 JUMP JUMPDEST PUSH1 0x0 DUP6 DUP2 MSTORE PUSH1 0x20 DUP2 KECCAK256 SWAP4 POP PUSH1 0x1F NOT DUP6 AND SWAP1 JUMPDEST DUP2 DUP2 LT PUSH2 0x269D JUMPI POP SWAP1 DUP5 PUSH1 0x1 SWAP6 SWAP5 SWAP4 SWAP3 LT PUSH2 0x2684 JUMPI JUMPDEST POP POP POP DUP2 SHL ADD SWAP1 SSTORE PUSH2 0x255E JUMP JUMPDEST ADD MLOAD PUSH1 0x0 NOT PUSH1 0xF8 DUP5 PUSH1 0x3 SHL AND SHR NOT AND SWAP1 SSTORE DUP8 DUP1 DUP1 PUSH2 0x2677 JUMP JUMPDEST SWAP3 SWAP4 PUSH1 0x20 PUSH1 0x1 DUP2 SWAP3 DUP8 DUP7 ADD MLOAD DUP2 SSTORE ADD SWAP6 ADD SWAP4 ADD PUSH2 0x2661 JUMP JUMPDEST SWAP1 POP DUP6 ADD MLOAD DUP8 PUSH2 0x24F2 JUMP JUMPDEST SWAP2 POP PUSH1 0x3 DUP5 ADD PUSH1 0x0 MSTORE PUSH1 0x20 PUSH1 0x0 KECCAK256 PUSH1 0x0 SWAP3 JUMPDEST PUSH1 0x1F NOT DUP4 AND DUP5 LT PUSH2 0x2715 JUMPI PUSH1 0x1 SWAP4 POP DUP3 PUSH1 0x1F NOT DUP2 AND LT PUSH2 0x26FC JUMPI JUMPDEST POP POP DUP2 SHL ADD PUSH1 0x3 DUP4 ADD SSTORE PUSH2 0x2509 JUMP JUMPDEST DUP8 ADD MLOAD PUSH1 0x0 NOT PUSH1 0xF8 DUP5 PUSH1 0x3 SHL AND SHR NOT AND SWAP1 SSTORE DUP8 DUP1 PUSH2 0x26ED JUMP JUMPDEST DUP8 DUP2 ADD MLOAD DUP3 SSTORE PUSH1 0x20 SWAP4 DUP5 ADD SWAP4 PUSH1 0x1 SWAP1 SWAP3 ADD SWAP2 ADD PUSH2 0x26D2 JUMP JUMPDEST PUSH1 0x40 MLOAD PUSH3 0x461BCD PUSH1 0xE5 SHL DUP2 MSTORE PUSH1 0x20 PUSH1 0x4 DUP3 ADD MSTORE PUSH1 0x1F PUSH1 0x24 DUP3 ADD MSTORE PUSH32 0x54726561746D656E74206E6F7420636F766572656420627920706F6C69637900 PUSH1 0x44 DUP3 ADD MSTORE REVERT JUMPDEST PUSH2 0xD97 PUSH2 0x278F PUSH2 0x2782 DUP4 PUSH1 0x8 DUP10 ADD PUSH2 0x326D JUMP JUMPDEST POP PUSH1 0x40 MLOAD SWAP3 DUP4 DUP1 SWAP3 PUSH2 0x31D7 JUMP JUMPDEST PUSH1 0x20 DUP2 MLOAD SWAP2 ADD KECCAK256 DUP7 MLOAD PUSH1 0x20 DUP9 ADD KECCAK256 EQ PUSH2 0x27B0 JUMPI PUSH2 0x27AB SWAP1 PUSH2 0x343A JUMP JUMPDEST PUSH2 0x245F JUMP JUMPDEST POP POP POP PUSH1 0x1 DUP6 DUP1 PUSH2 0x2467 JUMP JUMPDEST PUSH2 0xD97 PUSH2 0x27CF PUSH2 0x2782 DUP4 PUSH1 0x9 DUP9 ADD PUSH2 0x326D JUMP JUMPDEST PUSH1 0x20 DUP2 MLOAD SWAP2 ADD KECCAK256 DUP6 MLOAD PUSH1 0x20 DUP8 ADD KECCAK256 EQ PUSH2 0x27F0 JUMPI PUSH2 0x27EB SWAP1 PUSH2 0x343A JUMP JUMPDEST PUSH2 0x244C JUMP JUMPDEST PUSH1 0x40 MLOAD PUSH3 0x461BCD PUSH1 0xE5 SHL DUP2 MSTORE PUSH1 0x20 PUSH1 0x4 DUP3 ADD MSTORE PUSH1 0x1C PUSH1 0x24 DUP3 ADD MSTORE PUSH32 0x54726561746D656E74206578636C7564656420627920706F6C69637900000000 PUSH1 0x44 DUP3 ADD MSTORE DUP4 SWAP1 REVERT JUMPDEST SWAP1 PUSH15 0x333634B3B43A10323AB930BA34B7B7 PUSH1 0x89 SHL PUSH1 0x40 MLOAD SWAP2 PUSH3 0x461BCD PUSH1 0xE5 SHL DUP4 MSTORE PUSH1 0x20 PUSH1 0x4 DUP5 ADD MSTORE PUSH1 0x2F PUSH1 0x24 DUP5 ADD MSTORE PUSH1 0x0 DUP1 MLOAD PUSH1 0x20 PUSH2 0x383F DUP4 CODECOPY DUP2 MLOAD SWAP2 MSTORE PUSH1 0x44 DUP5 ADD MSTORE DUP3 ADD MSTORE REVERT JUMPDEST SWAP1 PUSH12 0x666C696768742064656C6179 PUSH1 0xA0 SHL PUSH1 0x40 MLOAD SWAP2 PUSH3 0x461BCD PUSH1 0xE5 SHL DUP4 MSTORE PUSH1 0x20 PUSH1 0x4 DUP5 ADD MSTORE PUSH1 0x2C PUSH1 0x24 DUP5 ADD MSTORE PUSH1 0x0 DUP1 MLOAD PUSH1 0x20 PUSH2 0x383F DUP4 CODECOPY DUP2 MLOAD SWAP2 MSTORE PUSH1 0x44 DUP5 ADD MSTORE DUP3 ADD MSTORE REVERT JUMPDEST SWAP1 PUSH19 0x333634B3B43A1031B0B731B2B63630BA34B7B7 PUSH1 0x69 SHL PUSH1 0x40 MLOAD SWAP2 PUSH3 0x461BCD PUSH1 0xE5 SHL DUP4 MSTORE PUSH1 0x20 PUSH1 0x4 DUP5 ADD MSTORE PUSH1 0x33 PUSH1 0x24 DUP5 ADD MSTORE PUSH1 0x0 DUP1 MLOAD PUSH1 0x20 PUSH2 0x383F DUP4 CODECOPY DUP2 MLOAD SWAP2 MSTORE PUSH1 0x44 DUP5 ADD MSTORE DUP3 ADD MSTORE REVERT JUMPDEST POP SWAP1 PUSH14 0x666C696768742064657461696C73 PUSH1 0x90 SHL PUSH1 0x40 MLOAD SWAP2 PUSH3 0x461BCD PUSH1 0xE5 SHL DUP4 MSTORE PUSH1 0x20 PUSH1 0x4 DUP5 ADD MSTORE PUSH1 0x2E PUSH1 0x24 DUP5 ADD MSTORE PUSH1 0x0 DUP1 MLOAD PUSH1 0x20 PUSH2 0x383F DUP4 CODECOPY DUP2 MLOAD SWAP2 MSTORE PUSH1 0x44 DUP5 ADD MSTORE DUP3 ADD MSTORE REVERT JUMPDEST POP SWAP1 PUSH8 0x696F6E2064617465 PUSH1 0xC0 SHL PUSH1 0x40 MLOAD SWAP2 PUSH3 0x461BCD PUSH1 0xE5 SHL DUP4 MSTORE PUSH1 0x20 PUSH1 0x4 DUP5 ADD MSTORE PUSH1 0x28 PUSH1 0x24 DUP5 ADD MSTORE PUSH32 0x4865616C746820636C61696D206D75737420696E636C7564652061646D697373 PUSH1 0x44 DUP5 ADD MSTORE DUP3 ADD MSTORE REVERT JUMPDEST PUSH1 0x40 MLOAD PUSH3 0x461BCD PUSH1 0xE5 SHL DUP2 MSTORE PUSH1 0x20 PUSH1 0x4 DUP3 ADD MSTORE PUSH1 0x22 PUSH1 0x24 DUP3 ADD MSTORE PUSH32 0x4865616C746820636C61696D206D75737420696E636C75646520414142484120 PUSH1 0x44 DUP3 ADD MSTORE PUSH2 0x1251 PUSH1 0xF2 SHL DUP2 DUP5 ADD MSTORE PUSH1 0x84 SWAP1 REVERT JUMPDEST PUSH2 0xD97 SWAP2 POP PUSH2 0x2A0D SWAP1 PUSH1 0x40 MLOAD SWAP3 DUP4 DUP1 SWAP3 PUSH2 0x31D7 JUMP JUMPDEST PUSH1 0x20 DUP2 MLOAD SWAP2 ADD KECCAK256 PUSH2 0x2A1C PUSH2 0x372B JUMP JUMPDEST PUSH1 0x20 DUP2 MLOAD SWAP2 ADD KECCAK256 EQ PUSH2 0x2A2F JUMPI JUMPDEST POP PUSH2 0x2470 JUMP JUMPDEST DUP4 MLOAD PUSH2 0x2C11 JUMPI PUSH1 0x84 CALLDATALOAD PUSH2 0x2BB6 JUMPI PUSH1 0xA4 CALLDATALOAD ISZERO PUSH2 0x2B66 JUMPI PUSH2 0x2A56 PUSH1 0x16 DUP4 ADD SLOAD PUSH1 0xE4 CALLDATALOAD GT ISZERO PUSH2 0x374D JUMP JUMPDEST PUSH1 0x18 DUP3 ADD SLOAD PUSH1 0x3C DUP2 MUL SWAP1 DUP1 DUP3 DIV PUSH1 0x3C EQ SWAP1 ISZERO OR ISZERO PUSH2 0xF38 JUMPI PUSH2 0x2A7D SWAP1 PUSH2 0x104 CALLDATALOAD GT ISZERO PUSH2 0x37A3 JUMP JUMPDEST DUP3 MLOAD PUSH32 0x43A6044C82F40F17C19F58406DF90BFF8D5298E48537704F37A8075C5F36D46F PUSH1 0x20 DUP6 ADD SWAP2 DUP3 KECCAK256 PUSH5 0x44454C4159 PUSH1 0xD8 SHL PUSH1 0x20 PUSH1 0x40 MLOAD PUSH2 0x2ABE DUP2 PUSH2 0x3023 JUMP JUMPDEST PUSH1 0x5 DUP2 MSTORE ADD MSTORE EQ SWAP1 DUP2 ISZERO PUSH2 0x2B14 JUMPI JUMPDEST POP PUSH2 0x2A29 JUMPI PUSH1 0x40 MLOAD PUSH3 0x461BCD PUSH1 0xE5 SHL DUP2 MSTORE PUSH1 0x20 PUSH1 0x4 DUP3 ADD MSTORE PUSH1 0x19 PUSH1 0x24 DUP3 ADD MSTORE PUSH32 0x496E76616C69642074726176656C20636C61696D207479706500000000000000 PUSH1 0x44 DUP3 ADD MSTORE REVERT JUMPDEST PUSH32 0xF36BACEB8C936B84649EC32484E0932B39D39183361A521F946479FE7366002 SWAP2 POP DUP5 MLOAD SWAP1 KECCAK256 PUSH12 0x21A0A721A2A62620AA24A7A7 PUSH1 0xA1 SHL PUSH1 0x20 PUSH1 0x40 MLOAD PUSH2 0x2B59 DUP2 PUSH2 0x3023 JUMP JUMPDEST PUSH1 0xC DUP2 MSTORE ADD MSTORE EQ DUP6 PUSH2 0x2ACD JUMP JUMPDEST PUSH1 0x84 SWAP1 PUSH3 0x81251 PUSH1 0xEA SHL PUSH1 0x40 MLOAD SWAP2 PUSH3 0x461BCD PUSH1 0xE5 SHL DUP4 MSTORE PUSH1 0x20 PUSH1 0x4 DUP5 ADD MSTORE PUSH1 0x23 PUSH1 0x24 DUP5 ADD MSTORE PUSH32 0x54726176656C20636C61696D206D75737420696E636C75646520666C69676874 PUSH1 0x44 DUP5 ADD MSTORE DUP3 ADD MSTORE REVERT JUMPDEST PUSH1 0x84 SWAP1 PUSH14 0x61646D697373696F6E2064617465 PUSH1 0x90 SHL PUSH1 0x40 MLOAD SWAP2 PUSH3 0x461BCD PUSH1 0xE5 SHL DUP4 MSTORE PUSH1 0x20 PUSH1 0x4 DUP5 ADD MSTORE PUSH1 0x2E PUSH1 0x24 DUP5 ADD MSTORE PUSH32 0x54726176656C20636C61696D2073686F756C64206E6F7420696E636C75646520 PUSH1 0x44 DUP5 ADD MSTORE DUP3 ADD MSTORE REVERT JUMPDEST PUSH1 0x84 SWAP1 PUSH8 0x1050509210481251 PUSH1 0xC2 SHL PUSH1 0x40 MLOAD SWAP2 PUSH3 0x461BCD PUSH1 0xE5 SHL DUP4 MSTORE PUSH1 0x20 PUSH1 0x4 DUP5 ADD MSTORE PUSH1 0x28 PUSH1 0x24 DUP5 ADD MSTORE PUSH32 0x54726176656C20636C61696D2073686F756C64206E6F7420696E636C75646520 PUSH1 0x44 DUP5 ADD MSTORE DUP3 ADD MSTORE REVERT JUMPDEST POP PUSH1 0x40 MLOAD PUSH3 0x461BCD PUSH1 0xE5 SHL DUP2 MSTORE PUSH1 0x20 PUSH1 0x4 DUP3 ADD MSTORE PUSH1 0x1F PUSH1 0x24 DUP3 ADD MSTORE PUSH32 0x4D6178696D756D20636C61696D73207065722079656172207265616368656400 PUSH1 0x44 DUP3 ADD MSTORE REVERT JUMPDEST PUSH1 0x40 MLOAD PUSH3 0x461BCD PUSH1 0xE5 SHL DUP2 MSTORE PUSH1 0x20 PUSH1 0x4 DUP3 ADD MSTORE PUSH1 0x2F PUSH1 0x24 DUP3 ADD MSTORE PUSH32 0x436C61696D20616D6F756E742065786365656473206D6178696D756D20636F76 PUSH1 0x44 DUP3 ADD MSTORE PUSH15 0x65726167652070657220636C61696D PUSH1 0x88 SHL DUP2 DUP5 ADD MSTORE PUSH1 0x84 SWAP1 REVERT JUMPDEST PUSH1 0x40 MLOAD PUSH3 0x461BCD PUSH1 0xE5 SHL DUP2 MSTORE PUSH1 0x20 PUSH1 0x4 DUP3 ADD MSTORE PUSH1 0x26 PUSH1 0x24 DUP3 ADD MSTORE PUSH32 0x436C61696D20616D6F756E74206D757374206265206772656174657220746861 PUSH1 0x44 DUP3 ADD MSTORE PUSH6 0x6E207A65726F PUSH1 0xD0 SHL DUP2 DUP5 ADD MSTORE PUSH1 0x84 SWAP1 REVERT JUMPDEST POP PUSH1 0x40 MLOAD PUSH3 0x461BCD PUSH1 0xE5 SHL DUP2 MSTORE PUSH1 0x20 PUSH1 0x4 DUP3 ADD MSTORE PUSH1 0xE PUSH1 0x24 DUP3 ADD MSTORE PUSH14 0x141BDB1A58DE48195E1C1A5C9959 PUSH1 0x92 SHL PUSH1 0x44 DUP3 ADD MSTORE REVERT JUMPDEST POP PUSH1 0x40 MLOAD PUSH3 0x461BCD PUSH1 0xE5 SHL DUP2 MSTORE PUSH1 0x20 PUSH1 0x4 DUP3 ADD MSTORE PUSH1 0x17 PUSH1 0x24 DUP3 ADD MSTORE PUSH32 0x57616974696E6720706572696F64206E6F74206F766572000000000000000000 PUSH1 0x44 DUP3 ADD MSTORE REVERT JUMPDEST POP PUSH1 0x40 MLOAD PUSH3 0x461BCD PUSH1 0xE5 SHL DUP2 MSTORE PUSH1 0x20 PUSH1 0x4 DUP3 ADD MSTORE PUSH1 0x14 PUSH1 0x24 DUP3 ADD MSTORE PUSH20 0x506F6C696379206973206E6F7420616374697665 PUSH1 0x60 SHL PUSH1 0x44 DUP3 ADD MSTORE REVERT JUMPDEST PUSH1 0x40 MLOAD PUSH3 0x461BCD PUSH1 0xE5 SHL DUP2 MSTORE PUSH1 0x20 PUSH1 0x4 DUP3 ADD MSTORE PUSH1 0x23 PUSH1 0x24 DUP3 ADD MSTORE PUSH32 0x4F6E6C7920706F6C696379686F6C6465722063616E207375626D697420636C61 PUSH1 0x44 DUP3 ADD MSTORE PUSH3 0x696D73 PUSH1 0xE8 SHL DUP2 DUP5 ADD MSTORE PUSH1 0x84 SWAP1 REVERT JUMPDEST CALLVALUE PUSH2 0x19C JUMPI PUSH1 0x0 CALLDATASIZE PUSH1 0x3 NOT ADD SLT PUSH2 0x19C JUMPI PUSH1 0x6 SLOAD PUSH1 0x0 NOT SWAP1 DUP2 DUP2 ADD DUP2 DUP2 GT PUSH2 0xF38 JUMPI PUSH2 0x2E84 SWAP1 PUSH2 0x34A7 JUMP JUMPDEST SWAP2 PUSH1 0x1 JUMPDEST DUP3 DUP2 LT PUSH2 0x2E9D JUMPI PUSH1 0x40 MLOAD DUP1 PUSH2 0x10D0 DUP7 DUP3 PUSH2 0x2F1D JUMP JUMPDEST DUP1 PUSH1 0x0 MSTORE PUSH1 0x5 PUSH1 0x20 MSTORE PUSH1 0x40 PUSH1 0x0 KECCAK256 SWAP1 DUP3 DUP2 ADD SWAP2 DUP2 DUP4 GT PUSH2 0xF38 JUMPI PUSH2 0x2ED8 SWAP3 PUSH2 0x2EC7 PUSH2 0x1436 SWAP3 PUSH2 0x3552 JUMP JUMPDEST PUSH2 0x2ED1 DUP3 DUP10 PUSH2 0x353E JUMP JUMPDEST MSTORE DUP7 PUSH2 0x353E JUMP JUMPDEST PUSH2 0x2E88 JUMP JUMPDEST SWAP2 SWAP1 DUP3 MLOAD SWAP3 DUP4 DUP3 MSTORE PUSH1 0x0 JUMPDEST DUP5 DUP2 LT PUSH2 0x2F09 JUMPI POP POP DUP3 PUSH1 0x0 PUSH1 0x20 DUP1 SWAP5 SWAP6 DUP5 ADD ADD MSTORE PUSH1 0x1F DUP1 NOT SWAP2 ADD AND ADD ADD SWAP1 JUMP JUMPDEST PUSH1 0x20 DUP2 DUP4 ADD DUP2 ADD MLOAD DUP5 DUP4 ADD DUP3 ADD MSTORE ADD PUSH2 0x2EE8 JUMP JUMPDEST PUSH1 0x20 DUP1 DUP3 ADD SWAP1 DUP1 DUP4 MSTORE DUP4 MLOAD DUP1 SWAP3 MSTORE PUSH1 0x40 SWAP3 DUP4 DUP2 ADD DUP3 DUP6 DUP6 PUSH1 0x5 SHL DUP5 ADD ADD SWAP7 ADD SWAP5 PUSH1 0x0 SWAP3 JUMPDEST DUP6 DUP5 LT PUSH2 0x2F52 JUMPI POP POP POP POP POP POP POP SWAP1 JUMP JUMPDEST SWAP1 SWAP2 SWAP3 SWAP4 SWAP5 SWAP6 SWAP7 DUP6 DUP1 PUSH1 0x1 SWAP3 PUSH1 0x3F NOT DUP6 DUP3 SUB ADD DUP8 MSTORE DUP11 MLOAD SWAP1 DUP5 DUP1 PUSH1 0xA0 SHL SUB DUP3 MLOAD AND DUP2 MSTORE PUSH2 0x2FDE PUSH2 0x2FCB PUSH2 0x2F92 DUP6 DUP6 ADD MLOAD PUSH2 0x140 DUP1 DUP9 DUP8 ADD MSTORE DUP6 ADD SWAP1 PUSH2 0x2EDD JUMP JUMPDEST DUP10 DUP6 ADD MLOAD DUP11 DUP6 ADD MSTORE PUSH1 0x60 DUP1 DUP7 ADD MLOAD SWAP1 DUP6 ADD MSTORE PUSH1 0x80 DUP1 DUP7 ADD MLOAD SWAP1 DUP6 ADD MSTORE PUSH1 0xA0 DUP1 DUP7 ADD MLOAD SWAP1 DUP6 ADD MSTORE PUSH1 0xC0 DUP1 DUP7 ADD MLOAD SWAP1 DUP6 DUP4 SUB SWAP1 DUP7 ADD MSTORE PUSH2 0x2EDD JUMP JUMPDEST PUSH1 0xE0 DUP1 DUP6 ADD MLOAD SWAP1 DUP5 DUP4 SUB SWAP1 DUP6 ADD MSTORE PUSH2 0x2EDD JUMP JUMPDEST SWAP2 PUSH2 0x100 DUP1 DUP3 ADD MLOAD ISZERO ISZERO SWAP1 DUP4 ADD MSTORE PUSH2 0x120 DUP1 SWAP2 ADD MLOAD SWAP2 ADD MSTORE SWAP10 ADD SWAP5 ADD SWAP5 ADD SWAP3 SWAP6 SWAP5 SWAP4 SWAP2 SWAP1 PUSH2 0x2F41 JUMP JUMPDEST PUSH2 0x140 DUP2 ADD SWAP1 DUP2 LT PUSH1 0x1 PUSH1 0x1 PUSH1 0x40 SHL SUB DUP3 GT OR PUSH2 0x49F JUMPI PUSH1 0x40 MSTORE JUMP JUMPDEST PUSH1 0x40 DUP2 ADD SWAP1 DUP2 LT PUSH1 0x1 PUSH1 0x1 PUSH1 0x40 SHL SUB DUP3 GT OR PUSH2 0x49F JUMPI PUSH1 0x40 MSTORE JUMP JUMPDEST SWAP1 PUSH1 0x1F DUP1 NOT SWAP2 ADD AND DUP2 ADD SWAP1 DUP2 LT PUSH1 0x1 PUSH1 0x1 PUSH1 0x40 SHL SUB DUP3 GT OR PUSH2 0x49F JUMPI PUSH1 0x40 MSTORE JUMP JUMPDEST DUP2 PUSH1 0x1F DUP3 ADD SLT ISZERO PUSH2 0x19C JUMPI DUP1 CALLDATALOAD SWAP1 PUSH1 0x1 PUSH1 0x1 PUSH1 0x40 SHL SUB DUP3 GT PUSH2 0x49F JUMPI PUSH1 0x40 MLOAD SWAP3 PUSH2 0x3093 PUSH1 0x1F DUP5 ADD PUSH1 0x1F NOT AND PUSH1 0x20 ADD DUP6 PUSH2 0x303E JUMP JUMPDEST DUP3 DUP5 MSTORE PUSH1 0x20 DUP4 DUP4 ADD ADD GT PUSH2 0x19C JUMPI DUP2 PUSH1 0x0 SWAP3 PUSH1 0x20 DUP1 SWAP4 ADD DUP4 DUP7 ADD CALLDATACOPY DUP4 ADD ADD MSTORE SWAP1 JUMP JUMPDEST PUSH1 0x4 CALLDATALOAD SWAP1 PUSH1 0x1 PUSH1 0x1 PUSH1 0xA0 SHL SUB DUP3 AND DUP3 SUB PUSH2 0x19C JUMPI JUMP JUMPDEST PUSH1 0x1 PUSH1 0x1 PUSH1 0x40 SHL SUB DUP2 GT PUSH2 0x49F JUMPI PUSH1 0x5 SHL PUSH1 0x20 ADD SWAP1 JUMP JUMPDEST SWAP1 DUP1 PUSH1 0x1F DUP4 ADD SLT ISZERO PUSH2 0x19C JUMPI DUP2 CALLDATALOAD SWAP1 PUSH2 0x30FA DUP3 PUSH2 0x30CB JUMP JUMPDEST SWAP3 PUSH2 0x3108 PUSH1 0x40 MLOAD SWAP5 DUP6 PUSH2 0x303E JUMP JUMPDEST DUP3 DUP5 MSTORE PUSH1 0x20 SWAP3 DUP4 DUP1 DUP7 ADD SWAP2 PUSH1 0x5 SHL DUP4 ADD ADD SWAP3 DUP1 DUP5 GT PUSH2 0x19C JUMPI DUP5 DUP4 ADD SWAP2 JUMPDEST DUP5 DUP4 LT PUSH2 0x3136 JUMPI POP POP POP POP POP POP SWAP1 JUMP JUMPDEST DUP3 CALLDATALOAD PUSH1 0x1 PUSH1 0x1 PUSH1 0x40 SHL SUB DUP2 GT PUSH2 0x19C JUMPI DUP7 SWAP2 PUSH2 0x3157 DUP5 DUP5 DUP1 SWAP5 DUP10 ADD ADD PUSH2 0x305F JUMP JUMPDEST DUP2 MSTORE ADD SWAP3 ADD SWAP2 PUSH2 0x3126 JUMP JUMPDEST PUSH1 0x20 SWAP1 DUP2 PUSH1 0x40 DUP2 DUP4 ADD SWAP3 DUP3 DUP2 MSTORE DUP6 MLOAD DUP1 SWAP5 MSTORE ADD SWAP4 ADD SWAP2 PUSH1 0x0 JUMPDEST DUP3 DUP2 LT PUSH2 0x3189 JUMPI POP POP POP POP SWAP1 JUMP JUMPDEST DUP4 MLOAD DUP6 MSTORE SWAP4 DUP2 ADD SWAP4 SWAP3 DUP2 ADD SWAP3 PUSH1 0x1 ADD PUSH2 0x317B JUMP JUMPDEST SWAP1 PUSH1 0x1 DUP3 DUP2 SHR SWAP3 AND DUP1 ISZERO PUSH2 0x31CD JUMPI JUMPDEST PUSH1 0x20 DUP4 LT EQ PUSH2 0x31B7 JUMPI JUMP JUMPDEST PUSH4 0x4E487B71 PUSH1 0xE0 SHL PUSH1 0x0 MSTORE PUSH1 0x22 PUSH1 0x4 MSTORE PUSH1 0x24 PUSH1 0x0 REVERT JUMPDEST SWAP2 PUSH1 0x7F AND SWAP2 PUSH2 0x31AC JUMP JUMPDEST SWAP1 PUSH1 0x0 SWAP3 SWAP2 DUP1 SLOAD SWAP2 PUSH2 0x31E8 DUP4 PUSH2 0x319D JUMP JUMPDEST SWAP2 DUP3 DUP3 MSTORE PUSH1 0x1 SWAP4 DUP5 DUP2 AND SWAP1 DUP2 PUSH1 0x0 EQ PUSH2 0x324A JUMPI POP PUSH1 0x1 EQ PUSH2 0x320A JUMPI JUMPDEST POP POP POP POP JUMP JUMPDEST SWAP1 SWAP2 SWAP4 SWAP5 POP PUSH1 0x0 MSTORE PUSH1 0x20 SWAP3 DUP4 PUSH1 0x0 KECCAK256 SWAP3 DUP5 PUSH1 0x0 SWAP5 JUMPDEST DUP4 DUP7 LT PUSH2 0x3236 JUMPI POP POP POP POP ADD ADD SWAP1 CODESIZE DUP1 DUP1 DUP1 PUSH2 0x3204 JUMP JUMPDEST DUP1 SLOAD DUP6 DUP8 ADD DUP4 ADD MSTORE SWAP5 ADD SWAP4 DUP6 SWAP1 DUP3 ADD PUSH2 0x321F JUMP JUMPDEST SWAP3 SWAP5 POP POP POP PUSH1 0x20 SWAP4 SWAP5 POP PUSH1 0xFF NOT AND DUP4 DUP4 ADD MSTORE ISZERO ISZERO PUSH1 0x5 SHL ADD ADD SWAP1 CODESIZE DUP1 DUP1 DUP1 PUSH2 0x3204 JUMP JUMPDEST DUP1 SLOAD DUP3 LT ISZERO PUSH2 0x3285 JUMPI PUSH1 0x0 MSTORE PUSH1 0x20 PUSH1 0x0 KECCAK256 ADD SWAP1 PUSH1 0x0 SWAP1 JUMP JUMPDEST PUSH4 0x4E487B71 PUSH1 0xE0 SHL PUSH1 0x0 MSTORE PUSH1 0x32 PUSH1 0x4 MSTORE PUSH1 0x24 PUSH1 0x0 REVERT JUMPDEST SWAP11 SWAP8 SWAP4 SWAP10 SWAP15 SWAP14 SWAP13 SWAP10 PUSH2 0x3303 SWAP8 SWAP4 DUP13 PUSH1 0x20 PUSH2 0x1A0 SWAP16 SWAP13 SWAP9 SWAP10 SWAP6 PUSH2 0x32DC SWAP6 DUP4 MSTORE PUSH1 0x1 DUP1 PUSH1 0xA0 SHL SUB AND SWAP2 ADD MSTORE PUSH1 0x40 DUP14 ADD MSTORE PUSH1 0x60 DUP13 PUSH2 0x1C0 SWAP2 DUP3 SWAP2 ADD MSTORE DUP13 ADD SWAP1 PUSH2 0x2EDD JUMP JUMPDEST SWAP5 PUSH1 0x80 DUP12 ADD MSTORE ISZERO ISZERO PUSH1 0xA0 DUP11 ADD MSTORE ISZERO ISZERO PUSH1 0xC0 DUP10 ADD MSTORE PUSH1 0xE0 DUP9 ADD MSTORE DUP7 DUP3 SUB PUSH2 0x100 DUP9 ADD MSTORE PUSH2 0x2EDD JUMP JUMPDEST SWAP8 PUSH2 0x120 DUP6 ADD MSTORE PUSH2 0x140 DUP5 ADD MSTORE ISZERO ISZERO PUSH2 0x160 DUP4 ADD MSTORE PUSH2 0x180 DUP3 ADD MSTORE ADD MSTORE JUMP JUMPDEST SWAP1 DUP2 SLOAD PUSH2 0x332E DUP2 PUSH2 0x30CB JUMP JUMPDEST SWAP3 PUSH1 0x40 SWAP4 PUSH2 0x333E DUP6 MLOAD SWAP2 DUP3 PUSH2 0x303E JUMP JUMPDEST DUP3 DUP2 MSTORE DUP1 SWAP5 PUSH1 0x20 DUP1 SWAP3 ADD SWAP3 PUSH1 0x0 MSTORE DUP2 PUSH1 0x0 KECCAK256 SWAP1 PUSH1 0x0 SWAP4 JUMPDEST DUP6 DUP6 LT PUSH2 0x3364 JUMPI POP POP POP POP POP POP JUMP JUMPDEST PUSH1 0x1 DUP5 DUP2 SWAP3 DUP5 MLOAD PUSH2 0x3379 DUP2 PUSH2 0xD97 DUP2 DUP11 PUSH2 0x31D7 JUMP JUMPDEST DUP2 MSTORE ADD SWAP4 ADD SWAP5 ADD SWAP4 SWAP2 PUSH2 0x3355 JUMP JUMPDEST SWAP1 DUP2 MLOAD DUP1 DUP3 MSTORE PUSH1 0x20 DUP1 SWAP3 ADD SWAP2 DUP3 DUP2 DUP4 PUSH1 0x5 SHL DUP6 ADD SWAP6 ADD SWAP4 PUSH1 0x0 SWAP2 JUMPDEST DUP5 DUP4 LT PUSH2 0x33B2 JUMPI POP POP POP POP POP POP SWAP1 JUMP JUMPDEST SWAP1 SWAP2 SWAP3 SWAP4 SWAP5 SWAP6 DUP5 DUP1 PUSH2 0x33CC DUP4 DUP6 PUSH1 0x1 SWAP6 SUB DUP8 MSTORE DUP11 MLOAD PUSH2 0x2EDD JUMP JUMPDEST SWAP9 ADD SWAP4 ADD SWAP4 ADD SWAP2 SWAP5 SWAP4 SWAP3 SWAP1 PUSH2 0x33A2 JUMP JUMPDEST ISZERO PUSH2 0x33E3 JUMPI JUMP JUMPDEST PUSH1 0x40 MLOAD PUSH3 0x461BCD PUSH1 0xE5 SHL DUP2 MSTORE PUSH1 0x20 PUSH1 0x4 DUP3 ADD MSTORE PUSH1 0x29 PUSH1 0x24 DUP3 ADD MSTORE PUSH32 0x436F76657261676520616D6F756E74206D757374206265206772656174657220 PUSH1 0x44 DUP3 ADD MSTORE PUSH9 0x7468616E207A65726F PUSH1 0xB8 SHL PUSH1 0x64 DUP3 ADD MSTORE PUSH1 0x84 SWAP1 REVERT JUMPDEST PUSH1 0x0 NOT DUP2 EQ PUSH2 0xF38 JUMPI PUSH1 0x1 ADD SWAP1 JUMP JUMPDEST DUP2 DUP2 LT PUSH2 0x3454 JUMPI POP POP JUMP JUMPDEST PUSH1 0x0 DUP2 SSTORE PUSH1 0x1 ADD PUSH2 0x3449 JUMP JUMPDEST SWAP2 SWAP1 PUSH1 0x1F DUP2 GT PUSH2 0x346F JUMPI POP POP POP JUMP JUMPDEST PUSH2 0x349B SWAP3 PUSH1 0x0 MSTORE PUSH1 0x20 PUSH1 0x0 KECCAK256 SWAP1 PUSH1 0x20 PUSH1 0x1F DUP5 ADD PUSH1 0x5 SHR DUP4 ADD SWAP4 LT PUSH2 0x349D JUMPI JUMPDEST PUSH1 0x1F ADD PUSH1 0x5 SHR ADD SWAP1 PUSH2 0x3449 JUMP JUMPDEST JUMP JUMPDEST SWAP1 SWAP2 POP DUP2 SWAP1 PUSH2 0x348E JUMP JUMPDEST SWAP1 PUSH2 0x34B1 DUP3 PUSH2 0x30CB JUMP JUMPDEST PUSH1 0x40 SWAP1 PUSH2 0x34C0 DUP3 MLOAD SWAP2 DUP3 PUSH2 0x303E JUMP JUMPDEST DUP4 DUP2 MSTORE DUP1 SWAP4 PUSH2 0x34D1 PUSH1 0x1F NOT SWAP2 PUSH2 0x30CB JUMP JUMPDEST ADD SWAP2 PUSH1 0x0 JUMPDEST DUP4 DUP2 LT PUSH2 0x34E3 JUMPI POP POP POP POP JUMP JUMPDEST PUSH1 0x20 SWAP1 DUP3 MLOAD PUSH2 0x34F1 DUP2 PUSH2 0x3007 JUMP JUMPDEST PUSH1 0x0 DUP2 MSTORE PUSH1 0x60 DUP4 SWAP1 DUP1 DUP3 DUP5 ADD MSTORE PUSH1 0x0 DUP7 DUP5 ADD MSTORE PUSH1 0x0 DUP2 DUP5 ADD MSTORE PUSH1 0x0 PUSH1 0x80 DUP5 ADD MSTORE PUSH1 0x0 PUSH1 0xA0 DUP5 ADD MSTORE DUP1 PUSH1 0xC0 DUP5 ADD MSTORE PUSH1 0xE0 DUP4 ADD MSTORE PUSH1 0x0 PUSH2 0x100 DUP4 ADD MSTORE PUSH1 0x0 PUSH2 0x120 DUP4 ADD MSTORE DUP3 DUP7 ADD ADD MSTORE ADD PUSH2 0x34D6 JUMP JUMPDEST DUP1 MLOAD DUP3 LT ISZERO PUSH2 0x3285 JUMPI PUSH1 0x20 SWAP2 PUSH1 0x5 SHL ADD ADD SWAP1 JUMP JUMPDEST SWAP1 PUSH1 0x40 MLOAD PUSH2 0x355F DUP2 PUSH2 0x3007 JUMP JUMPDEST PUSH2 0x120 PUSH1 0x9 DUP3 SWAP5 PUSH1 0x1 DUP1 PUSH1 0xA0 SHL SUB DUP2 SLOAD AND DUP5 MSTORE PUSH1 0x40 MLOAD PUSH2 0x3586 DUP2 PUSH2 0xD97 DUP2 PUSH1 0x1 DUP7 ADD PUSH2 0x31D7 JUMP JUMPDEST PUSH1 0x20 DUP6 ADD MSTORE PUSH1 0x2 DUP2 ADD SLOAD PUSH1 0x40 DUP6 ADD MSTORE PUSH1 0x3 DUP2 ADD SLOAD PUSH1 0x60 DUP6 ADD MSTORE PUSH1 0x4 DUP2 ADD SLOAD PUSH1 0x80 DUP6 ADD MSTORE PUSH1 0x5 DUP2 ADD SLOAD PUSH1 0xA0 DUP6 ADD MSTORE PUSH1 0x40 MLOAD PUSH2 0x35C7 DUP2 PUSH2 0xD97 DUP2 PUSH1 0x6 DUP7 ADD PUSH2 0x31D7 JUMP JUMPDEST PUSH1 0xC0 DUP6 ADD MSTORE PUSH1 0x40 MLOAD PUSH2 0x35E0 DUP2 PUSH2 0xD97 DUP2 PUSH1 0x7 DUP7 ADD PUSH2 0x31D7 JUMP JUMPDEST PUSH1 0xE0 DUP6 ADD MSTORE PUSH1 0xFF PUSH1 0x8 DUP3 ADD SLOAD AND ISZERO ISZERO PUSH2 0x100 DUP6 ADD MSTORE ADD SLOAD SWAP2 ADD MSTORE JUMP JUMPDEST SWAP1 DUP1 DUP3 EQ PUSH2 0x36D0 JUMPI PUSH2 0x360E DUP2 SLOAD PUSH2 0x319D JUMP JUMPDEST SWAP1 PUSH1 0x1 PUSH1 0x1 PUSH1 0x40 SHL SUB DUP3 GT PUSH2 0x49F JUMPI DUP2 SWAP1 PUSH2 0x362D DUP3 PUSH2 0x252D DUP7 SLOAD PUSH2 0x319D JUMP JUMPDEST PUSH1 0x0 SWAP1 PUSH1 0x1F DUP4 GT PUSH1 0x1 EQ PUSH2 0x3664 JUMPI PUSH1 0x0 SWAP3 PUSH2 0x3659 JUMPI JUMPDEST POP POP DUP2 PUSH1 0x1 SHL SWAP2 PUSH1 0x0 NOT SWAP1 PUSH1 0x3 SHL SHR NOT AND OR SWAP1 SSTORE JUMP JUMPDEST ADD SLOAD SWAP1 POP CODESIZE DUP1 PUSH2 0x3643 JUMP JUMPDEST DUP2 MSTORE PUSH1 0x20 DUP1 DUP3 KECCAK256 DUP6 DUP4 MSTORE DUP2 DUP4 KECCAK256 SWAP4 POP SWAP1 PUSH1 0x1F NOT DUP6 AND SWAP1 DUP4 SWAP1 JUMPDEST DUP3 DUP3 LT PUSH2 0x36B7 JUMPI POP POP SWAP1 DUP5 PUSH1 0x1 SWAP6 SWAP5 SWAP4 SWAP3 LT PUSH2 0x369E JUMPI JUMPDEST POP POP POP DUP2 SHL ADD SWAP1 SSTORE JUMP JUMPDEST ADD SLOAD PUSH1 0x0 NOT PUSH1 0xF8 DUP5 PUSH1 0x3 SHL AND SHR NOT AND SWAP1 SSTORE CODESIZE DUP1 DUP1 PUSH2 0x3694 JUMP JUMPDEST DUP5 SWAP6 DUP2 SWAP3 SWAP6 DUP6 ADD SLOAD DUP2 SSTORE PUSH1 0x1 DUP1 SWAP2 ADD SWAP7 ADD SWAP5 ADD SWAP1 PUSH2 0x367D JUMP JUMPDEST POP POP JUMP JUMPDEST DUP1 SLOAD PUSH1 0x1 PUSH1 0x40 SHL DUP2 LT ISZERO PUSH2 0x49F JUMPI PUSH2 0x36F1 SWAP2 PUSH1 0x1 DUP3 ADD DUP2 SSTORE PUSH2 0x326D JUMP JUMPDEST DUP2 SWAP3 SWAP2 SLOAD SWAP1 PUSH1 0x3 SHL SWAP2 DUP3 SHL SWAP2 PUSH1 0x0 NOT SWAP1 SHL NOT AND OR SWAP1 SSTORE JUMP JUMPDEST PUSH1 0x40 MLOAD SWAP1 PUSH2 0x3716 DUP3 PUSH2 0x3023 JUMP JUMPDEST PUSH1 0x6 DUP3 MSTORE PUSH6 0x908A8298A89 PUSH1 0xD3 SHL PUSH1 0x20 DUP4 ADD MSTORE JUMP JUMPDEST PUSH1 0x40 MLOAD SWAP1 PUSH2 0x3738 DUP3 PUSH2 0x3023 JUMP JUMPDEST PUSH1 0x6 DUP3 MSTORE PUSH6 0x151490559153 PUSH1 0xD2 SHL PUSH1 0x20 DUP4 ADD MSTORE JUMP JUMPDEST ISZERO PUSH2 0x3754 JUMPI JUMP JUMPDEST PUSH1 0x40 MLOAD PUSH3 0x461BCD PUSH1 0xE5 SHL DUP2 MSTORE PUSH1 0x20 PUSH1 0x4 DUP3 ADD MSTORE PUSH1 0x21 PUSH1 0x24 DUP3 ADD MSTORE PUSH32 0x466C696768742064656C6179206578636565647320706F6C696379206C696D69 PUSH1 0x44 DUP3 ADD MSTORE PUSH1 0x1D PUSH1 0xFA SHL PUSH1 0x64 DUP3 ADD MSTORE PUSH1 0x84 SWAP1 REVERT JUMPDEST ISZERO PUSH2 0x37AA JUMPI JUMP JUMPDEST PUSH1 0x40 MLOAD PUSH3 0x461BCD PUSH1 0xE5 SHL DUP2 MSTORE PUSH1 0x20 PUSH1 0x4 DUP3 ADD MSTORE PUSH1 0x24 DUP1 DUP3 ADD MSTORE PUSH32 0x466C69676874206475726174696F6E206578636565647320706F6C696379206C PUSH1 0x44 DUP3 ADD MSTORE PUSH4 0x1A5B5A5D PUSH1 0xE2 SHL PUSH1 0x64 DUP3 ADD MSTORE PUSH1 0x84 SWAP1 REVERT JUMPDEST ISZERO PUSH2 0x3802 JUMPI JUMP JUMPDEST PUSH1 0x40 MLOAD PUSH3 0x461BCD PUSH1 0xE5 SHL DUP2 MSTORE PUSH1 0x20 PUSH1 0x4 DUP3 ADD MSTORE PUSH1 0x14 PUSH1 0x24 DUP3 ADD MSTORE PUSH20 0x10DB185A5B48191BD95CC81B9BDD08195E1A5CDD PUSH1 0x62 SHL PUSH1 0x44 DUP3 ADD MSTORE PUSH1 0x64 SWAP1 REVERT INVALID BASEFEE PUSH6 0x616C74682063 PUSH13 0x61696D2073686F756C64206E6F PUSH21 0x20696E636C75646520A26469706673582212209EBE PUSH21 0xF913CA43CCF267077B616418478A2529C0B2FA64F2 BASEFEE SSTORE 0xB7 0xBD PUSH25 0xB9D9CF64736F6C634300081300330000000000000000000000 "},"methodIdentifiers":{"addPolicyTemplate(string,uint256,uint256,uint256,uint256,string,string)":"f79a0020","claims(uint256)":"a888c2cd","claimsCountPerYear(uint256)":"c22fc759","createPolicy(address,uint256,uint256,uint256,string,uint256,uint256,string[],string[],uint256,uint256,bool,uint256,uint256,uint256,uint256,uint256,uint256,uint256,uint256,uint256,uint256,bool,uint256)":"055b0840","getAllPolicyTemplates()":"00c84c04","getClaim(uint256)":"5aef2447","getPoliciesByHolder(address)":"34790e44","getPoliciesByProvider(address)":"2d4dbb96","getPolicy(uint256)":"2b07fce3","getPolicyTemplatesByProvider(address)":"3f0318cd","insurer()":"dbc837c5","nextClaimId()":"a0021cf1","nextPolicyNumber()":"161ef13d","nextRecordId()":"dbde207d","nextTemplateId()":"d12edcce","owner()":"8da5cb5b","policies(uint256)":"d3e89483","policyClaims(uint256,uint256)":"560eb394","policyProviders(uint256)":"93057c79","policyTemplates(uint256)":"3147b2cc","processClaim(uint256)":"7257dfc9","providerPolicies(address,uint256)":"fcbe9147","purchasePolicy(uint256)":"c1260c9a","setInsurer(address)":"a8e74108","submitClaim(uint256,uint256,string,string,uint256,uint256,bool,uint256,uint256)":"04dcccc6","userPolicies(address,uint256)":"3d36adc5","verifyClaim(uint256)":"c0d7e2b6"}}}}}