{
  "_format": "hh-sol-artifact-1",
  "contractName": "InsuranceClaims",
  "sourceName": "contracts/InsuranceClaims.sol",
  "abi": [
    {
      "inputs": [],
      "stateMutability": "nonpayable",
      "type": "constructor"
    },
    {
      "anonymous": false,
      "inputs": [
        {
          "indexed": true,
          "internalType": "uint256",
          "name": "claimId",
          "type": "uint256"
        },
        {
          "indexed": true,
          "internalType": "uint256",
          "name": "policyNumber",
          "type": "uint256"
        },
        {
          "indexed": true,
          "internalType": "address",
          "name": "claimant",
          "type": "address"
        },
        {
          "indexed": false,
          "internalType": "uint256",
          "name": "paidAmount",
          "type": "uint256"
        }
      ],
      "name": "ClaimProcessed",
      "type": "event"
    },
    {
      "anonymous": false,
      "inputs": [
        {
          "indexed": true,
          "internalType": "uint256",
          "name": "claimId",
          "type": "uint256"
        },
        {
          "indexed": true,
          "internalType": "uint256",
          "name": "policyNumber",
          "type": "uint256"
        },
        {
          "indexed": true,
          "internalType": "address",
          "name": "claimant",
          "type": "address"
        },
        {
          "indexed": false,
          "internalType": "uint256",
          "name": "amount",
          "type": "uint256"
        },
        {
          "indexed": false,
          "internalType": "string",
          "name": "treatmentType",
          "type": "string"
        }
      ],
      "name": "ClaimSubmitted",
      "type": "event"
    },
    {
      "anonymous": false,
      "inputs": [
        {
          "indexed": true,
          "internalType": "uint256",
          "name": "claimId",
          "type": "uint256"
        }
      ],
      "name": "ClaimVerified",
      "type": "event"
    },
    {
      "anonymous": false,
      "inputs": [
        {
          "indexed": true,
          "internalType": "uint256",
          "name": "policyNumber",
          "type": "uint256"
        },
        {
          "indexed": true,
          "internalType": "address",
          "name": "policyholder",
          "type": "address"
        },
        {
          "indexed": false,
          "internalType": "uint256",
          "name": "coverageAmount",
          "type": "uint256"
        },
        {
          "indexed": false,
          "internalType": "uint256",
          "name": "startDate",
          "type": "uint256"
        },
        {
          "indexed": false,
          "internalType": "uint256",
          "name": "endDate",
          "type": "uint256"
        },
        {
          "indexed": false,
          "internalType": "string",
          "name": "policyType",
          "type": "string"
        }
      ],
      "name": "PolicyCreated",
      "type": "event"
    },
    {
      "anonymous": false,
      "inputs": [
        {
          "indexed": true,
          "internalType": "uint256",
          "name": "policyNumber",
          "type": "uint256"
        },
        {
          "indexed": true,
          "internalType": "address",
          "name": "provider",
          "type": "address"
        },
        {
          "indexed": true,
          "internalType": "address",
          "name": "holder",
          "type": "address"
        },
        {
          "indexed": false,
          "internalType": "uint256",
          "name": "premium",
          "type": "uint256"
        }
      ],
      "name": "PolicyPurchased",
      "type": "event"
    },
    {
      "anonymous": false,
      "inputs": [
        {
          "indexed": true,
          "internalType": "uint256",
          "name": "templateId",
          "type": "uint256"
        },
        {
          "indexed": true,
          "internalType": "address",
          "name": "provider",
          "type": "address"
        },
        {
          "indexed": false,
          "internalType": "string",
          "name": "policyType",
          "type": "string"
        },
        {
          "indexed": false,
          "internalType": "uint256",
          "name": "coverageAmount",
          "type": "uint256"
        },
        {
          "indexed": false,
          "internalType": "uint256",
          "name": "premium",
          "type": "uint256"
        }
      ],
      "name": "PolicyTemplateCreated",
      "type": "event"
    },
    {
      "inputs": [
        {
          "internalType": "string",
          "name": "_policyType",
          "type": "string"
        },
        {
          "internalType": "uint256",
          "name": "_coverageAmount",
          "type": "uint256"
        },
        {
          "internalType": "uint256",
          "name": "_premium",
          "type": "uint256"
        },
        {
          "internalType": "uint256",
          "name": "_insuranceExpDate",
          "type": "uint256"
        },
        {
          "internalType": "uint256",
          "name": "_maxClaimsPerYear",
          "type": "uint256"
        },
        {
          "internalType": "string",
          "name": "_description",
          "type": "string"
        },
        {
          "internalType": "string",
          "name": "_termsAndConditions",
          "type": "string"
        }
      ],
      "name": "addPolicyTemplate",
      "outputs": [],
      "stateMutability": "nonpayable",
      "type": "function"
    },
    {
      "inputs": [
        {
          "internalType": "uint256",
          "name": "",
          "type": "uint256"
        }
      ],
      "name": "claims",
      "outputs": [
        {
          "internalType": "uint256",
          "name": "policyNumber",
          "type": "uint256"
        },
        {
          "internalType": "address",
          "name": "policyholder",
          "type": "address"
        },
        {
          "internalType": "uint256",
          "name": "amount",
          "type": "uint256"
        },
        {
          "internalType": "string",
          "name": "treatmentType",
          "type": "string"
        },
        {
          "internalType": "uint256",
          "name": "timestamp",
          "type": "uint256"
        },
        {
          "internalType": "bool",
          "name": "isVerified",
          "type": "bool"
        },
        {
          "internalType": "bool",
          "name": "isPaid",
          "type": "bool"
        },
        {
          "internalType": "uint256",
          "name": "paidAmount",
          "type": "uint256"
        },
        {
          "internalType": "string",
          "name": "aabhaId",
          "type": "string"
        },
        {
          "internalType": "uint256",
          "name": "patientAdmissionDate",
          "type": "uint256"
        },
        {
          "internalType": "uint256",
          "name": "flightId",
          "type": "uint256"
        },
        {
          "internalType": "bool",
          "name": "flightCancellationStatus",
          "type": "bool"
        },
        {
          "internalType": "uint256",
          "name": "flightDelayMinutes",
          "type": "uint256"
        },
        {
          "internalType": "uint256",
          "name": "flightDurationMinutes",
          "type": "uint256"
        }
      ],
      "stateMutability": "view",
      "type": "function"
    },
    {
      "inputs": [
        {
          "internalType": "uint256",
          "name": "",
          "type": "uint256"
        }
      ],
      "name": "claimsCountPerYear",
      "outputs": [
        {
          "internalType": "uint256",
          "name": "",
          "type": "uint256"
        }
      ],
      "stateMutability": "view",
      "type": "function"
    },
    {
      "inputs": [
        {
          "internalType": "address",
          "name": "_policyholder",
          "type": "address"
        },
        {
          "internalType": "uint256",
          "name": "_coverageAmount",
          "type": "uint256"
        },
        {
          "internalType": "uint256",
          "name": "_startDate",
          "type": "uint256"
        },
        {
          "internalType": "uint256",
          "name": "_endDate",
          "type": "uint256"
        },
        {
          "internalType": "string",
          "name": "_policyType",
          "type": "string"
        },
        {
          "internalType": "uint256",
          "name": "_maxCoveragePerClaim",
          "type": "uint256"
        },
        {
          "internalType": "uint256",
          "name": "_copayPercentage",
          "type": "uint256"
        },
        {
          "internalType": "string[]",
          "name": "_coveredTreatments",
          "type": "string[]"
        },
        {
          "internalType": "string[]",
          "name": "_excludedTreatments",
          "type": "string[]"
        },
        {
          "internalType": "uint256",
          "name": "_waitingPeriod",
          "type": "uint256"
        },
        {
          "internalType": "uint256",
          "name": "_maxClaimsPerYear",
          "type": "uint256"
        },
        {
          "internalType": "bool",
          "name": "_preExistingConditionsCovered",
          "type": "bool"
        },
        {
          "internalType": "uint256",
          "name": "_maxHospitalizationDays",
          "type": "uint256"
        },
        {
          "internalType": "uint256",
          "name": "_maxRoomRent",
          "type": "uint256"
        },
        {
          "internalType": "uint256",
          "name": "_maxICUCharges",
          "type": "uint256"
        },
        {
          "internalType": "uint256",
          "name": "_maxOperationCharges",
          "type": "uint256"
        },
        {
          "internalType": "uint256",
          "name": "_maxMedicineCharges",
          "type": "uint256"
        },
        {
          "internalType": "uint256",
          "name": "_maxDiagnosticCharges",
          "type": "uint256"
        },
        {
          "internalType": "uint256",
          "name": "_maxAmbulanceCharges",
          "type": "uint256"
        },
        {
          "internalType": "uint256",
          "name": "_maxPreHospitalizationDays",
          "type": "uint256"
        },
        {
          "internalType": "uint256",
          "name": "_maxPostHospitalizationDays",
          "type": "uint256"
        },
        {
          "internalType": "uint256",
          "name": "_delayTimeMinutes",
          "type": "uint256"
        },
        {
          "internalType": "bool",
          "name": "_cancellationStatus",
          "type": "bool"
        },
        {
          "internalType": "uint256",
          "name": "_travelTimeHours",
          "type": "uint256"
        }
      ],
      "name": "createPolicy",
      "outputs": [],
      "stateMutability": "nonpayable",
      "type": "function"
    },
    {
      "inputs": [],
      "name": "getAllPolicyTemplates",
      "outputs": [
        {
          "components": [
            {
              "internalType": "address",
              "name": "provider",
              "type": "address"
            },
            {
              "internalType": "string",
              "name": "policyType",
              "type": "string"
            },
            {
              "internalType": "uint256",
              "name": "coverageAmount",
              "type": "uint256"
            },
            {
              "internalType": "uint256",
              "name": "premium",
              "type": "uint256"
            },
            {
              "internalType": "uint256",
              "name": "insuranceExpDate",
              "type": "uint256"
            },
            {
              "internalType": "uint256",
              "name": "maxClaimsPerYear",
              "type": "uint256"
            },
            {
              "internalType": "string",
              "name": "description",
              "type": "string"
            },
            {
              "internalType": "string",
              "name": "termsAndConditions",
              "type": "string"
            },
            {
              "internalType": "bool",
              "name": "isActive",
              "type": "bool"
            },
            {
              "internalType": "uint256",
              "name": "createdAt",
              "type": "uint256"
            }
          ],
          "internalType": "struct InsuranceClaims.PolicyTemplate[]",
          "name": "",
          "type": "tuple[]"
        }
      ],
      "stateMutability": "view",
      "type": "function"
    },
    {
      "inputs": [
        {
          "internalType": "uint256",
          "name": "_claimId",
          "type": "uint256"
        }
      ],
      "name": "getClaim",
      "outputs": [
        {
          "internalType": "uint256",
          "name": "policyNumber",
          "type": "uint256"
        },
        {
          "internalType": "address",
          "name": "policyholder",
          "type": "address"
        },
        {
          "internalType": "uint256",
          "name": "amount",
          "type": "uint256"
        },
        {
          "internalType": "string",
          "name": "treatmentType",
          "type": "string"
        },
        {
          "internalType": "uint256",
          "name": "timestamp",
          "type": "uint256"
        },
        {
          "internalType": "bool",
          "name": "isVerified",
          "type": "bool"
        },
        {
          "internalType": "bool",
          "name": "isPaid",
          "type": "bool"
        },
        {
          "internalType": "uint256",
          "name": "paidAmount",
          "type": "uint256"
        },
        {
          "internalType": "string",
          "name": "aabhaId",
          "type": "string"
        },
        {
          "internalType": "uint256",
          "name": "patientAdmissionDate",
          "type": "uint256"
        },
        {
          "internalType": "uint256",
          "name": "flightId",
          "type": "uint256"
        },
        {
          "internalType": "bool",
          "name": "flightCancellationStatus",
          "type": "bool"
        },
        {
          "internalType": "uint256",
          "name": "flightDelayMinutes",
          "type": "uint256"
        },
        {
          "internalType": "uint256",
          "name": "flightDurationMinutes",
          "type": "uint256"
        }
      ],
      "stateMutability": "view",
      "type": "function"
    },
    {
      "inputs": [
        {
          "internalType": "address",
          "name": "_holder",
          "type": "address"
        }
      ],
      "name": "getPoliciesByHolder",
      "outputs": [
        {
          "internalType": "uint256[]",
          "name": "",
          "type": "uint256[]"
        }
      ],
      "stateMutability": "view",
      "type": "function"
    },
    {
      "inputs": [
        {
          "internalType": "address",
          "name": "_provider",
          "type": "address"
        }
      ],
      "name": "getPoliciesByProvider",
      "outputs": [
        {
          "internalType": "uint256[]",
          "name": "",
          "type": "uint256[]"
        }
      ],
      "stateMutability": "view",
      "type": "function"
    },
    {
      "inputs": [
        {
          "internalType": "uint256",
          "name": "_policyNumber",
          "type": "uint256"
        }
      ],
      "name": "getPolicy",
      "outputs": [
        {
          "internalType": "address",
          "name": "policyholder",
          "type": "address"
        },
        {
          "internalType": "uint256",
          "name": "coverageAmount",
          "type": "uint256"
        },
        {
          "internalType": "uint256",
          "name": "startDate",
          "type": "uint256"
        },
        {
          "internalType": "uint256",
          "name": "endDate",
          "type": "uint256"
        },
        {
          "internalType": "string",
          "name": "policyType",
          "type": "string"
        },
        {
          "internalType": "bool",
          "name": "isActive",
          "type": "bool"
        }
      ],
      "stateMutability": "view",
      "type": "function"
    },
    {
      "inputs": [
        {
          "internalType": "address",
          "name": "_provider",
          "type": "address"
        }
      ],
      "name": "getPolicyTemplatesByProvider",
      "outputs": [
        {
          "components": [
            {
              "internalType": "address",
              "name": "provider",
              "type": "address"
            },
            {
              "internalType": "string",
              "name": "policyType",
              "type": "string"
            },
            {
              "internalType": "uint256",
              "name": "coverageAmount",
              "type": "uint256"
            },
            {
              "internalType": "uint256",
              "name": "premium",
              "type": "uint256"
            },
            {
              "internalType": "uint256",
              "name": "insuranceExpDate",
              "type": "uint256"
            },
            {
              "internalType": "uint256",
              "name": "maxClaimsPerYear",
              "type": "uint256"
            },
            {
              "internalType": "string",
              "name": "description",
              "type": "string"
            },
            {
              "internalType": "string",
              "name": "termsAndConditions",
              "type": "string"
            },
            {
              "internalType": "bool",
              "name": "isActive",
              "type": "bool"
            },
            {
              "internalType": "uint256",
              "name": "createdAt",
              "type": "uint256"
            }
          ],
          "internalType": "struct InsuranceClaims.PolicyTemplate[]",
          "name": "",
          "type": "tuple[]"
        }
      ],
      "stateMutability": "view",
      "type": "function"
    },
    {
      "inputs": [],
      "name": "insurer",
      "outputs": [
        {
          "internalType": "address",
          "name": "",
          "type": "address"
        }
      ],
      "stateMutability": "view",
      "type": "function"
    },
    {
      "inputs": [],
      "name": "nextClaimId",
      "outputs": [
        {
          "internalType": "uint256",
          "name": "",
          "type": "uint256"
        }
      ],
      "stateMutability": "view",
      "type": "function"
    },
    {
      "inputs": [],
      "name": "nextPolicyNumber",
      "outputs": [
        {
          "internalType": "uint256",
          "name": "",
          "type": "uint256"
        }
      ],
      "stateMutability": "view",
      "type": "function"
    },
    {
      "inputs": [],
      "name": "nextRecordId",
      "outputs": [
        {
          "internalType": "uint256",
          "name": "",
          "type": "uint256"
        }
      ],
      "stateMutability": "view",
      "type": "function"
    },
    {
      "inputs": [],
      "name": "nextTemplateId",
      "outputs": [
        {
          "internalType": "uint256",
          "name": "",
          "type": "uint256"
        }
      ],
      "stateMutability": "view",
      "type": "function"
    },
    {
      "inputs": [],
      "name": "owner",
      "outputs": [
        {
          "internalType": "address",
          "name": "",
          "type": "address"
        }
      ],
      "stateMutability": "view",
      "type": "function"
    },
    {
      "inputs": [
        {
          "internalType": "uint256",
          "name": "",
          "type": "uint256"
        }
      ],
      "name": "policies",
      "outputs": [
        {
          "internalType": "address",
          "name": "policyholder",
          "type": "address"
        },
        {
          "internalType": "uint256",
          "name": "coverageAmount",
          "type": "uint256"
        },
        {
          "internalType": "uint256",
          "name": "startDate",
          "type": "uint256"
        },
        {
          "internalType": "uint256",
          "name": "endDate",
          "type": "uint256"
        },
        {
          "internalType": "string",
          "name": "policyType",
          "type": "string"
        },
        {
          "internalType": "bool",
          "name": "isActive",
          "type": "bool"
        },
        {
          "components": [
            {
              "internalType": "uint256",
              "name": "maxCoveragePerClaim",
              "type": "uint256"
            },
            {
              "internalType": "uint256",
              "name": "copayPercentage",
              "type": "uint256"
            },
            {
              "internalType": "string[]",
              "name": "coveredTreatments",
              "type": "string[]"
            },
            {
              "internalType": "string[]",
              "name": "excludedTreatments",
              "type": "string[]"
            },
            {
              "internalType": "uint256",
              "name": "waitingPeriod",
              "type": "uint256"
            },
            {
              "internalType": "uint256",
              "name": "maxClaimsPerYear",
              "type": "uint256"
            },
            {
              "internalType": "bool",
              "name": "preExistingConditionsCovered",
              "type": "bool"
            },
            {
              "internalType": "uint256",
              "name": "maxHospitalizationDays",
              "type": "uint256"
            },
            {
              "internalType": "uint256",
              "name": "maxRoomRent",
              "type": "uint256"
            },
            {
              "internalType": "uint256",
              "name": "maxICUCharges",
              "type": "uint256"
            },
            {
              "internalType": "uint256",
              "name": "maxOperationCharges",
              "type": "uint256"
            },
            {
              "internalType": "uint256",
              "name": "maxMedicineCharges",
              "type": "uint256"
            },
            {
              "internalType": "uint256",
              "name": "maxDiagnosticCharges",
              "type": "uint256"
            },
            {
              "internalType": "uint256",
              "name": "maxAmbulanceCharges",
              "type": "uint256"
            },
            {
              "internalType": "uint256",
              "name": "maxPreHospitalizationDays",
              "type": "uint256"
            },
            {
              "internalType": "uint256",
              "name": "maxPostHospitalizationDays",
              "type": "uint256"
            },
            {
              "internalType": "uint256",
              "name": "delayTimeMinutes",
              "type": "uint256"
            },
            {
              "internalType": "bool",
              "name": "cancellationStatus",
              "type": "bool"
            },
            {
              "internalType": "uint256",
              "name": "travelTimeHours",
              "type": "uint256"
            }
          ],
          "internalType": "struct InsuranceClaims.PolicyTerms",
          "name": "terms",
          "type": "tuple"
        },
        {
          "internalType": "uint256",
          "name": "claimsCount",
          "type": "uint256"
        }
      ],
      "stateMutability": "view",
      "type": "function"
    },
    {
      "inputs": [
        {
          "internalType": "uint256",
          "name": "",
          "type": "uint256"
        },
        {
          "internalType": "uint256",
          "name": "",
          "type": "uint256"
        }
      ],
      "name": "policyClaims",
      "outputs": [
        {
          "internalType": "uint256",
          "name": "",
          "type": "uint256"
        }
      ],
      "stateMutability": "view",
      "type": "function"
    },
    {
      "inputs": [
        {
          "internalType": "uint256",
          "name": "",
          "type": "uint256"
        }
      ],
      "name": "policyProviders",
      "outputs": [
        {
          "internalType": "address",
          "name": "",
          "type": "address"
        }
      ],
      "stateMutability": "view",
      "type": "function"
    },
    {
      "inputs": [
        {
          "internalType": "uint256",
          "name": "",
          "type": "uint256"
        }
      ],
      "name": "policyTemplates",
      "outputs": [
        {
          "internalType": "address",
          "name": "provider",
          "type": "address"
        },
        {
          "internalType": "string",
          "name": "policyType",
          "type": "string"
        },
        {
          "internalType": "uint256",
          "name": "coverageAmount",
          "type": "uint256"
        },
        {
          "internalType": "uint256",
          "name": "premium",
          "type": "uint256"
        },
        {
          "internalType": "uint256",
          "name": "insuranceExpDate",
          "type": "uint256"
        },
        {
          "internalType": "uint256",
          "name": "maxClaimsPerYear",
          "type": "uint256"
        },
        {
          "internalType": "string",
          "name": "description",
          "type": "string"
        },
        {
          "internalType": "string",
          "name": "termsAndConditions",
          "type": "string"
        },
        {
          "internalType": "bool",
          "name": "isActive",
          "type": "bool"
        },
        {
          "internalType": "uint256",
          "name": "createdAt",
          "type": "uint256"
        }
      ],
      "stateMutability": "view",
      "type": "function"
    },
    {
      "inputs": [
        {
          "internalType": "uint256",
          "name": "_claimId",
          "type": "uint256"
        }
      ],
      "name": "processClaim",
      "outputs": [],
      "stateMutability": "nonpayable",
      "type": "function"
    },
    {
      "inputs": [
        {
          "internalType": "address",
          "name": "",
          "type": "address"
        },
        {
          "internalType": "uint256",
          "name": "",
          "type": "uint256"
        }
      ],
      "name": "providerPolicies",
      "outputs": [
        {
          "internalType": "uint256",
          "name": "",
          "type": "uint256"
        }
      ],
      "stateMutability": "view",
      "type": "function"
    },
    {
      "inputs": [
        {
          "internalType": "uint256",
          "name": "_templateId",
          "type": "uint256"
        }
      ],
      "name": "purchasePolicy",
      "outputs": [],
      "stateMutability": "payable",
      "type": "function"
    },
    {
      "inputs": [
        {
          "internalType": "address",
          "name": "_insurer",
          "type": "address"
        }
      ],
      "name": "setInsurer",
      "outputs": [],
      "stateMutability": "nonpayable",
      "type": "function"
    },
    {
      "inputs": [
        {
          "internalType": "uint256",
          "name": "_policyNumber",
          "type": "uint256"
        },
        {
          "internalType": "uint256",
          "name": "_amount",
          "type": "uint256"
        },
        {
          "internalType": "string",
          "name": "_treatmentType",
          "type": "string"
        },
        {
          "internalType": "string",
          "name": "_aabhaId",
          "type": "string"
        },
        {
          "internalType": "uint256",
          "name": "_patientAdmissionDate",
          "type": "uint256"
        },
        {
          "internalType": "uint256",
          "name": "_flightId",
          "type": "uint256"
        },
        {
          "internalType": "bool",
          "name": "_flightCancellationStatus",
          "type": "bool"
        },
        {
          "internalType": "uint256",
          "name": "_flightDelayMinutes",
          "type": "uint256"
        },
        {
          "internalType": "uint256",
          "name": "_flightDurationMinutes",
          "type": "uint256"
        }
      ],
      "name": "submitClaim",
      "outputs": [],
      "stateMutability": "nonpayable",
      "type": "function"
    },
    {
      "inputs": [
        {
          "internalType": "address",
          "name": "",
          "type": "address"
        },
        {
          "internalType": "uint256",
          "name": "",
          "type": "uint256"
        }
      ],
      "name": "userPolicies",
      "outputs": [
        {
          "internalType": "uint256",
          "name": "",
          "type": "uint256"
        }
      ],
      "stateMutability": "view",
      "type": "function"
    },
    {
      "inputs": [
        {
          "internalType": "uint256",
          "name": "_claimId",
          "type": "uint256"
        }
      ],
      "name": "verifyClaim",
      "outputs": [],
      "stateMutability": "nonpayable",
      "type": "function"
    }
  ],
  "bytecode": "0x6080806040523461003c57600080546001600160a01b03191633179055600160028190556003819055600481905560065561389490816100428239f35b600080fdfe6080604052600436101561001257600080fd5b60003560e01c8062c84c0414612e5957806304dcccc6146122f5578063055b0840146117ac578063161ef13d1461178e5780632b07fce3146116b85780632d4dbb96146116405780633147b2cc1461154b57806334790e44146114c75780633d36adc51461147d5780633f0318cd1461138b578063560eb394146113525780635aef2447146112815780637257dfc91461114f5780638da5cb5b1461112657806393057c79146110f2578063a0021cf1146110d4578063a888c2cd1461101d578063a8e7410814610f87578063c0d7e2b614610d36578063c1260c9a14610aaa578063c22fc75914610a7e578063d12edcce14610a60578063d3e89483146107ca578063dbc837c5146107a1578063dbde207d14610783578063f79a0020146101a15763fcbe91471461014457600080fd5b3461019c57604036600319011261019c5761015d6130b5565b6001600160a01b031660009081526008602052604090208054602435919082101561019c5760209161018e9161326d565b90546040519160031b1c8152f35b600080fd5b3461019c5760e036600319011261019c576004356001600160401b03811161019c576101d190369060040161305f565b60a4356001600160401b03811161019c576101f090369060040161305f565b9060c4356001600160401b03811161019c5761021090369060040161305f565b9181511561073e5761022560243515156133dc565b6044918235156106f057426064351115610698576084351561063e578151156105fa578351156105aa576006549161025c8361343a565b600655826000526005602052604060002090336001600160601b0360a01b83541617825582516001600160401b03811161049f576102aa816102a1600186015461319d565b60018601613460565b806020601f821160011461053d57600091610532575b508160011b916000199060031b1c19161760018301555b602435600283015584356003830155606435600483015560843560058301558051906001600160401b03821161049f5781906103238261031a600687015461319d565b60068701613460565b602090601f83116001146104c0576000926104b5575b50508160011b916000199060031b1c19161760068201555b6007810185516001600160401b03811161049f5761037981610373845461319d565b84613460565b6020601f82116001146104155781907f8e7cdd9d98e09543e85896be390aa235ea710584f5cc9eed52445aacd355548d96979860009261040a575b50508160011b916000199060031b1c19161790555b60088101600160ff198254161790556009429101556103f360405191606083526060830190612edd565b9360243560208301523560408201528033940390a3005b0151905088806103b4565b601f198216978360005260206000209860005b8181106104875750917f8e7cdd9d98e09543e85896be390aa235ea710584f5cc9eed52445aacd355548d9798999184600195941061046e575b505050811b0190556103c9565b015160001960f88460031b161c19169055888080610461565b838301518b556001909a019960209384019301610428565b634e487b7160e01b600052604160045260246000fd5b015190508780610339565b9250600684016000526020600020906000935b601f1984168510610517576001945083601f198116106104fe575b505050811b016006820155610351565b015160001960f88460031b161c191690558780806104ee565b818101518355602094850194600190930192909101906104d3565b9050840151886102c0565b91506001840160005260206000206000925b601f1983168410610592576001935082601f19811610610579575b5050811b0160018301556102d7565b86015160001960f88460031b161c19169055888061056a565b8681015182556020938401936001909201910161054f565b60405162461bcd60e51b8152602060048201526024808201527f5465726d7320616e6420636f6e646974696f6e732063616e6e6f74206265206581850152636d70747960e01b6064820152608490fd5b60405162461bcd60e51b815260206004820152601b60248201527f4465736372697074696f6e2063616e6e6f7420626520656d707479000000000081850152606490fd5b60405162461bcd60e51b815260206004820152602d60248201527f4d617820636c61696d73207065722079656172206d7573742062652067726561818501526c746572207468616e207a65726f60981b6064820152608490fd5b60405162461bcd60e51b815260206004820152602b60248201527f496e737572616e6365206578706972792064617465206d75737420626520696e818501526a207468652066757475726560a81b6064820152608490fd5b60405162461bcd60e51b815260206004820152602160248201527f5072656d69756d206d7573742062652067726561746572207468616e207a657281850152606f60f81b6064820152608490fd5b60405162461bcd60e51b815260206004820152601b60248201527f506f6c69637920747970652063616e6e6f7420626520656d70747900000000006044820152606490fd5b3461019c57600036600319011261019c576020600454604051908152f35b3461019c57600036600319011261019c576001546040516001600160a01b039091168152602090f35b3461019c57602036600319011261019c57600435600052600a602052604060002060018060a01b038154166001820154916002810154600382015491604051906108228261081b81600485016131d7565b038361303e565b60ff600582015416916040519461026086018681106001600160401b0382111761049f5761095b93601991604052600681015488526007810154602089015261086d60088201613322565b604089015261087e60098201613322565b6060890152600a8101546080890152600b81015460a089015260ff600c82015416151560c0890152600d81015460e0890152600e810154610100890152600f81015461012089015260108101546101408901526011810154610160890152601281015461018089015260138101546101a089015260148101546101c089015260158101546101e0890152601681015461020089015260ff6017820154161515610220890152601881015461024089015201549460405198899889526020890152604088015260608701526101006080870152610100860190612edd565b90151560a085015283810360c08501528251815260208301516020820152610240806109ad61099b60408701516102606040870152610260860190613387565b60608701518582036060870152613387565b946080810151608085015260a081015160a085015260c0810151151560c085015260e081015160e08501526101008101516101008501526101208101516101208501526101408101516101408501526101608101516101608501526101808101516101808501526101a08101516101a08501526101c08101516101c08501526101e08101516101e08501526102008101516102008501526102208101511515610220850152015191015260e08301520390f35b3461019c57600036600319011261019c576020600654604051908152f35b3461019c57602036600319011261019c57600435600052600d6020526020604060002054604051908152f35b60208060031936011261019c5760043580151580610d2b575b15610cf05760005260058152604060002060ff60088201541615610cb257600381019081543410610c76576004810180544211610c3a577fdea7dba60c96f43197d6382538a72502339e2c6a37b4091d6e1799b2f594b77b9060025492610b298461343a565b60025583600052600a86526040600020847f040c4be14b60aea566c81b5a163dafa67bfa53127ad672a5af714bd08beeed6c6001600160601b0360a01b943386855416178455600285018054600186015542600286015581546003860155600060196001880196610b9d88600483016135fc565b60058101600160ff1982541617905501553360005260078b52610bc48460406000206136d4565b60018060a01b03968787541660005260088c52610be58560406000206136d4565b878754168560005260098d52604060002091825416179055549054604051918252428b83015260408201526080606082015280610c27339560808301906131d7565b0390a354169254936040519485523394a4005b60405162461bcd60e51b815260048101859052601460248201527315195b5c1b185d19481a185cc8195e1c1a5c995960621b6044820152606490fd5b60405162461bcd60e51b8152600481018490526014602482015273125b9cdd59999a58da595b9d081c185e5b595b9d60621b6044820152606490fd5b60405162461bcd60e51b815260048101839052601660248201527554656d706c617465206973206e6f742061637469766560501b6044820152606490fd5b60405162461bcd60e51b8152600481018390526013602482015272125b9d985b1a59081d195b5c1b185d19481251606a1b6044820152606490fd5b506006548110610ac3565b3461019c5760208060031936011261019c576004359081600052600b8152610d6760046040600020015415156137fb565b81600052600b81526040600020908154600052600a81526040600020604051610d9e81610d9781600486016131d7565b038261303e565b828151910120610dac613709565b80519084012003610e805750610dc5600783015461319d565b15610e4957600882015415610e0c57506005905b01805460ff191660011790557f393efda0b92bc01071b66a816d6bcddde867b8c91da505a0f309d9133a53650a600080a2005b6064906040519062461bcd60e51b8252600482015260166024820152754d697373696e672061646d697373696f6e206461746560501b6044820152fd5b6064906040519062461bcd60e51b82526004820152601060248201526f135a5cdcda5b99c8105050921048125160821b6044820152fd5b600983015415610f4e57610e9e600b8401546016830154101561374d565b600c8301546018820154603c810290808204603c1490151715610f3857610ec69111156137a3565b60ff601781600a8601541692015416151590151503610ee85750600590610dd9565b6084906040519062461bcd60e51b82526004820152602360248201527f466c696768742063616e63656c6c6174696f6e20737461747573206d69736d616044820152620e8c6d60eb1b6064820152fd5b634e487b7160e01b600052601160045260246000fd5b60405162461bcd60e51b8152600481018390526011602482015270135a5cdcda5b99c8199b1a59da1d081251607a1b6044820152606490fd5b3461019c57602036600319011261019c57610fa06130b5565b6000546001600160a01b03919082163303610fce57166001600160601b0360a01b6001541617600155600080f35b60405162461bcd60e51b815260206004820152602160248201527f4f6e6c79206f776e65722063616e2063616c6c20746869732066756e6374696f6044820152603760f91b6064820152608490fd5b3461019c57602036600319011261019c57600435600052600b602052604060002080546110d060018060a01b0360018401541691600284015493604051916110738361106c81600386016131d7565b038461303e565b60048201549060058301546006840154604051906110988261081b8160078a016131d7565b60088601549260098701549460ff600a8901541696600c600b8a0154990154996040519d8e9d8e9460ff808860081c1697169561329b565b0390f35b3461019c57600036600319011261019c576020600354604051908152f35b3461019c57602036600319011261019c576004356000526009602052602060018060a01b0360406000205416604051908152f35b3461019c57600036600319011261019c576000546040516001600160a01b039091168152602090f35b3461019c5760208060031936011261019c5760043580600052600b8252604060002090600582019283549060ff8216156112485760ff8260081c1661120f5783549384600052600a825260406000209560076002830154970154808802908882041488151715610f3857606490048703968711610f38576101007f0849691c977f9a77b8daa21c9421d1b771d1b125cbcf97b43d24f17128f6d4359461ff0019161790558560068201556001808060a01b039101541694604051908152a4005b6064906040519062461bcd60e51b82526004820152601260248201527110db185a5b48185b1c9958591e481c185a5960721b6044820152fd5b6064906040519062461bcd60e51b82526004820152601260248201527110db185a5b481b9bdd081d995c9a599a595960721b6044820152fd5b3461019c57602036600319011261019c5760043580600052600b6020526112b160046040600020015415156137fb565b600052600b60205260406000208054906110d060018060a01b036001830154169160028101549360048201549060058301546006840154600760088601549160098701549360ff600a8901541695600b89015497600c8a01549961133a604051916113238361106c81600385016131d7565b61133360405180998193016131d7565b038761303e565b6040519d8e9d8e9460ff808860081c1697169561329b565b3461019c57604036600319011261019c57602435600435600052600c6020526040600020805482101561019c5760209161018e9161326d565b3461019c5760208060031936011261019c576113a56130b5565b6006546001600160a01b0391821692909190600060015b84811061144357506113cd906134a7565b9360009160015b8581106113e957604051806110d08982612f1d565b80600052600582526040600020838682541614611410575b5061140b9061343a565b6113d4565b61140b919461142161143c92613552565b61142b828b61353e565b52611436818a61353e565b5061343a565b9390611401565b806000526005835285846040600020541614611468575b6114639061343a565b6113bc565b906114756114639161343a565b91905061145a565b3461019c57604036600319011261019c576114966130b5565b6001600160a01b031660009081526007602052604090208054602435919082101561019c5760209161018e9161326d565b3461019c5760208060031936011261019c576001600160a01b036114e96130b5565b1660005260078152604060002090604051908181845491828152019360005281600020916000905b828210611534576110d0856115288189038261303e565b60405191829182613162565b835486529485019460019384019390910190611511565b3461019c57602036600319011261019c576004356000526005602052604060002060018060a01b038154166040519161158b8361106c81600185016131d7565b600281015461162d60038301549161161f6004850154916005860154604051906115bc8261081b8160068c016131d7565b604051946115d1866113338160078d016131d7565b600960ff60088b015416990154976115fd6040519c8d9c8d5260208d61014091829101528d0190612edd565b9460408c015260608b015260808a015260a089015287820360c0890152612edd565b9085820360e0870152612edd565b9115156101008401526101208301520390f35b3461019c5760208060031936011261019c576001600160a01b036116626130b5565b1660005260088152604060002090604051908181845491828152019360005281600020916000905b8282106116a1576110d0856115288189038261303e565b83548652948501946001938401939091019061168a565b3461019c57602036600319011261019c576004356000908152600a6020526040902080546001600160a01b03168015611751576001820154916117456004600283015460038401549061171d60ff6005870154169561106c60405180968193016131d7565b604051968796875260208701526040860152606085015260c0608085015260c0840190612edd565b90151560a08301520390f35b60405162461bcd60e51b8152602060048201526015602482015274141bdb1a58de48191bd95cc81b9bdd08195e1a5cdd605a1b6044820152606490fd5b3461019c57600036600319011261019c576020600254604051908152f35b3461019c5761030036600319011261019c576117c66130b5565b60849081356001600160401b03811161019c576117e790369060040161305f565b9160e4356001600160401b03811161019c576118079036906004016130e2565b91610104356001600160401b03811161019c576118289036906004016130e2565b92610164351515610164350361019c576102c43515156102c4350361019c576001546001600160a01b039390841633036122a757838316156122625761187160243515156133dc565b604435156122285760443560643511156121dc5760243560a4351161217e57606460c4351161213157605a61012435116120e357610144351515806120d5575b1561207e5761016d610184351161202957601e6102643511611fd157603c6102843511611f78576101e06102a43511611f345760306102e43511611ee75750845160208601908120611901613709565b6020815191012014908115611ecb575b5015611e9057600254936119248561343a565b60025584600052600a6020526040600020918484166001600160601b0360a01b84541617835560243560018401556044356002840155606435600384015586516001600160401b03811161049f5761198c81611983600487015461319d565b60048701613460565b806020601f8211600114611e2257600091611e17575b508160011b916000199060031b1c19161760048401555b60a435600684015560c4356007840155805190600160401b821161049f576008840154826008860155808310611d9f575b5060200190600884016000526020600020916000905b828210611cc25750505050805190600160401b821161049f576009830154826009850155808310611c4a575b5060200190600983016000526020600020916000905b828210611b675788887f040c4be14b60aea566c81b5a163dafa67bfa53127ad672a5af714bd08beeed6c8989600060198b61012435600a82015561014435600b820155611aa161016435600c83019060ff801983541691151516179055565b61018435600d8201556101a435600e8201556101c435600f8201556101e43560108201556102043560118201556102243560128201556102443560138201556102643560148201556102843560158201556102a4356016820155611b176102c435601783019060ff801983541691151516179055565b6102e435601882015560058101600160ff198254161790550155611b626040519283926024358452604435602085015260643560408501526080606085015216956080830190612edd565b0390a3005b80518051906001600160401b03821161049f57611b8e82611b88885461319d565b88613460565b602090601f8311600114611bda579282600194936020938695600092611bcf575b5050600019600383901b1c191690841b1787555b01940191019092611a42565b015190508e80611baf565b908660005260206000209160005b601f1985168110611c32575083602093600196938796938794601f19811610611c19575b505050811b018755611bc3565b015160001960f88460031b161c191690558e8080611c0c565b91926020600181928685015181550194019201611be8565b600984016000526020600020908382015b8183018110611c6b575050611a2c565b80611c786001925461319d565b80611c85575b5001611c5b565b601f81118314611c9b5750600081555b8b611c7e565b600090828252611cb9601f60208420920160051c8201858301613449565b81835555611c95565b80518051906001600160401b03821161049f57611ce382611b88885461319d565b602090601f8311600114611d2f579282600194936020938695600092611d24575b5050600019600383901b1c191690841b1787555b01940191019092611a00565b015190508f80611d04565b908660005260206000209160005b601f1985168110611d87575083602093600196938796938794601f19811610611d6e575b505050811b018755611d18565b015160001960f88460031b161c191690558f8080611d61565b91926020600181928685015181550194019201611d3d565b600885016000526020600020908382015b8183018110611dc05750506119ea565b80611dcd6001925461319d565b80611dda575b5001611db0565b601f81118314611df05750600081555b8c611dd3565b600090828252611e0e601f60208420920160051c8201858301613449565b81835555611dea565b9050880151896119a2565b91506004850160005260206000206000925b8a601f1984168510611e7957506001935082601f19811610611e60575b5050811b0160048401556119b9565b8a015160001960f88460031b161c191690558980611e51565b810151825560209384019360019092019101611e34565b60405162461bcd60e51b8152602060048201526013602482015272496e76616c696420706f6c696379207479706560681b6044820152606490fd5b905085519020611ed961372b565b602081519101201486611911565b60405162461bcd60e51b815260206004820152602260248201527f54726176656c2074696d652063616e6e6f742065786365656420343820686f75604482015261727360f01b6064820152fd5b606460405162461bcd60e51b815260206004820152602060248201527f44656c61792074696d652063616e6e6f7420657863656564203820686f7572736044820152fd5b60405162461bcd60e51b815260206004820152602e60248201527f4d617820706f73742d686f73706974616c697a6174696f6e206461797320636160448201526d06e6e6f74206578636565642036360941b6064820152fd5b60405162461bcd60e51b815260206004820152602d60248201527f4d6178207072652d686f73706974616c697a6174696f6e20646179732063616e60448201526c06e6f742065786365656420333609c1b6064820152fd5b60405162461bcd60e51b815260206004820152602a60248201527f4d617820686f73706974616c697a6174696f6e20646179732063616e6e6f74206044820152696578636565642033363560b01b6064820152fd5b60405162461bcd60e51b815260206004820152602c60248201527f4d617820636c61696d73207065722079656172206d757374206265206265747760448201526b065656e203120616e642031360a41b6064820152fd5b50600a6101443511156118b1565b60405162461bcd60e51b8152602060048201526024808201527f57616974696e6720706572696f642063616e6e6f7420657863656564203930206044820152636461797360e01b6064820152fd5b60405162461bcd60e51b815260206004820152602260248201527f436f7061792070657263656e746167652063616e6e6f74206578636565642031604482015261030360f41b6064820152fd5b60405162461bcd60e51b815260206004820152603360248201527f4d617820636f7665726167652070657220636c61696d2063616e6e6f742065786044820152726365656420746f74616c20636f76657261676560681b6064820152fd5b60405162461bcd60e51b815260206004820152602160248201527f456e642064617465206d757374206265206166746572207374617274206461746044820152606560f81b6064820152fd5b60405162461bcd60e51b8152602060048201526012602482015271496e76616c6964207374617274206461746560701b6044820152606490fd5b60405162461bcd60e51b815260206004820152601c60248201527f496e76616c696420706f6c696379686f6c6465722061646472657373000000006044820152606490fd5b60405162461bcd60e51b815260206004820152602360248201527f4f6e6c7920696e73757265722063616e2063616c6c20746869732066756e637460448201526234b7b760e91b6064820152fd5b3461019c5761012036600319011261019c576044356001600160401b03811161019c5761232690369060040161305f565b60649081356001600160401b03811161019c5761234790369060040161305f565b9160c4351515908160c4350361019c57600435600052600a60205260406000209160018060a01b038354163303612e095760ff60058401541615612dcf576002830154600a8401546201518090818102918183041490151715610f38578101809111610f38574210612d8c5760038301544211612d585760243515612d0557600683015460243511612ca9576019830154600b8401541115612c665760405160048401906123f981610d9781856131d7565b60208151910120612408613709565b60208151910120146000146129f857508451156129a9576084908135156129555760a43561290d576128c15760e43561287c57610104356128345750600982015460005b8181106127bc5750506000806008840154905b81811061276f575b50501561272d57505b6003549261247d8461343a565b60035583600052600b602052604060002090600435825560018201336001600160601b0360a01b825416179055602435600283015583516001600160401b03811161049f576124dc816124d3600386015461319d565b60038601613460565b806020601f82116001146126c0576000916126b5575b508160011b916000199060031b1c19161760038301555b80516001600160401b03811161049f578060078401926125338261252d865461319d565b86613460565b602090601f831160011461264f57600092612644575b50508160011b916000199060031b1c19161790555b608435600882015560a435600982015561258960c435600a83019060ff801983541691151516179055565b60e435600b82015561010435600c8201556005810161ffff1981541690556000600682015560044291015560196125c28183015461343a565b910155600435600052600c6020526125de8260406000206136d4565b600435600052600d60205260406000206125f8815461343a565b9055604051916024358352604060208401527fd91ad459d6781ac1a94eb5c677e1aa55ab8d256cae923e543a7e969235a041ca33938061263f600435956040830190612edd565b0390a4005b015190508780612549565b6000858152602081209350601f198516905b81811061269d5750908460019594939210612684575b505050811b01905561255e565b015160001960f88460031b161c19169055878080612677565b92936020600181928786015181550195019301612661565b9050850151876124f2565b91506003840160005260206000206000925b601f1983168410612715576001935082601f198116106126fc575b5050811b016003830155612509565b87015160001960f88460031b161c1916905587806126ed565b878101518255602093840193600190920191016126d2565b60405162461bcd60e51b815260206004820152601f60248201527f54726561746d656e74206e6f7420636f766572656420627920706f6c696379006044820152fd5b610d9761278f612782836008890161326d565b50604051928380926131d7565b6020815191012086516020880120146127b0576127ab9061343a565b61245f565b50505060018580612467565b610d976127cf612782836009880161326d565b6020815191012085516020870120146127f0576127eb9061343a565b61244c565b60405162461bcd60e51b815260206004820152601c60248201527f54726561746d656e74206578636c7564656420627920706f6c6963790000000060448201528390fd5b906e333634b3b43a10323ab930ba34b7b760891b6040519162461bcd60e51b835260206004840152602f602484015260008051602061383f8339815191526044840152820152fd5b906b666c696768742064656c617960a01b6040519162461bcd60e51b835260206004840152602c602484015260008051602061383f8339815191526044840152820152fd5b9072333634b3b43a1031b0b731b2b63630ba34b7b760691b6040519162461bcd60e51b8352602060048401526033602484015260008051602061383f8339815191526044840152820152fd5b50906d666c696768742064657461696c7360901b6040519162461bcd60e51b835260206004840152602e602484015260008051602061383f8339815191526044840152820152fd5b509067696f6e206461746560c01b6040519162461bcd60e51b835260206004840152602860248401527f4865616c746820636c61696d206d75737420696e636c7564652061646d6973736044840152820152fd5b60405162461bcd60e51b815260206004820152602260248201527f4865616c746820636c61696d206d75737420696e636c75646520414142484120604482015261125160f21b81840152608490fd5b610d979150612a0d90604051928380926131d7565b60208151910120612a1c61372b565b6020815191012014612a2f575b50612470565b8351612c1157608435612bb65760a43515612b6657612a56601683015460e435111561374d565b6018820154603c810290808204603c1490151715610f3857612a7d906101043511156137a3565b82517f43a6044c82f40f17c19f58406df90bff8d5298e48537704f37a8075c5f36d46f602085019182206444454c415960d81b6020604051612abe81613023565b60058152015214908115612b14575b50612a295760405162461bcd60e51b815260206004820152601960248201527f496e76616c69642074726176656c20636c61696d2074797065000000000000006044820152fd5b7f0f36baceb8c936b84649ec32484e0932b39d39183361a521f946479fe73660029150845190206b21a0a721a2a62620aa24a7a760a11b6020604051612b5981613023565b600c815201521485612acd565b6084906208125160ea1b6040519162461bcd60e51b835260206004840152602360248401527f54726176656c20636c61696d206d75737420696e636c75646520666c696768746044840152820152fd5b6084906d61646d697373696f6e206461746560901b6040519162461bcd60e51b835260206004840152602e60248401527f54726176656c20636c61696d2073686f756c64206e6f7420696e636c756465206044840152820152fd5b60849067105050921048125160c21b6040519162461bcd60e51b835260206004840152602860248401527f54726176656c20636c61696d2073686f756c64206e6f7420696e636c756465206044840152820152fd5b5060405162461bcd60e51b815260206004820152601f60248201527f4d6178696d756d20636c61696d732070657220796561722072656163686564006044820152fd5b60405162461bcd60e51b815260206004820152602f60248201527f436c61696d20616d6f756e742065786365656473206d6178696d756d20636f7660448201526e65726167652070657220636c61696d60881b81840152608490fd5b60405162461bcd60e51b815260206004820152602660248201527f436c61696d20616d6f756e74206d7573742062652067726561746572207468616044820152656e207a65726f60d01b81840152608490fd5b5060405162461bcd60e51b815260206004820152600e60248201526d141bdb1a58de48195e1c1a5c995960921b6044820152fd5b5060405162461bcd60e51b815260206004820152601760248201527f57616974696e6720706572696f64206e6f74206f7665720000000000000000006044820152fd5b5060405162461bcd60e51b8152602060048201526014602482015273506f6c696379206973206e6f742061637469766560601b6044820152fd5b60405162461bcd60e51b815260206004820152602360248201527f4f6e6c7920706f6c696379686f6c6465722063616e207375626d697420636c61604482015262696d7360e81b81840152608490fd5b3461019c57600036600319011261019c5760065460001990818101818111610f3857612e84906134a7565b9160015b828110612e9d57604051806110d08682612f1d565b80600052600560205260406000209082810191818311610f3857612ed892612ec761143692613552565b612ed1828961353e565b528661353e565b612e88565b919082519283825260005b848110612f09575050826000602080949584010152601f8019910116010190565b602081830181015184830182015201612ee8565b602080820190808352835180925260409283810182858560051b8401019601946000925b858410612f52575050505050505090565b909192939495968580600192603f198582030187528a5190848060a01b038251168152612fde612fcb612f92858501516101408088870152850190612edd565b898501518a850152606080860151908501526080808601519085015260a0808601519085015260c0808601519085830390860152612edd565b60e0808501519084830390850152612edd565b916101008082015115159083015261012080910151910152990194019401929594939190612f41565b61014081019081106001600160401b0382111761049f57604052565b604081019081106001600160401b0382111761049f57604052565b90601f801991011681019081106001600160401b0382111761049f57604052565b81601f8201121561019c578035906001600160401b03821161049f5760405192613093601f8401601f19166020018561303e565b8284526020838301011161019c57816000926020809301838601378301015290565b600435906001600160a01b038216820361019c57565b6001600160401b03811161049f5760051b60200190565b9080601f8301121561019c578135906130fa826130cb565b92613108604051948561303e565b828452602092838086019160051b8301019280841161019c57848301915b8483106131365750505050505090565b82356001600160401b03811161019c5786916131578484809489010161305f565b815201920191613126565b6020908160408183019282815285518094520193019160005b828110613189575050505090565b83518552938101939281019260010161317b565b90600182811c921680156131cd575b60208310146131b757565b634e487b7160e01b600052602260045260246000fd5b91607f16916131ac565b90600092918054916131e88361319d565b91828252600193848116908160001461324a575060011461320a575b50505050565b90919394506000526020928360002092846000945b838610613236575050505001019038808080613204565b80548587018301529401938590820161321f565b9294505050602093945060ff191683830152151560051b01019038808080613204565b80548210156132855760005260206000200190600090565b634e487b7160e01b600052603260045260246000fd5b9a9793999e9d9c9961330397938c60206101a09f9c9899956132dc95835260018060a01b031691015260408d015260608c6101c091829101528c0190612edd565b9460808b0152151560a08a0152151560c089015260e0880152868203610100880152612edd565b9761012085015261014084015215156101608301526101808201520152565b90815461332e816130cb565b9260409361333e8551918261303e565b828152809460208092019260005281600020906000935b85851061336457505050505050565b6001848192845161337981610d97818a6131d7565b815201930194019391613355565b90815180825260208092019182818360051b85019501936000915b8483106133b25750505050505090565b90919293949584806133cc83856001950387528a51612edd565b98019301930191949392906133a2565b156133e357565b60405162461bcd60e51b815260206004820152602960248201527f436f76657261676520616d6f756e74206d7573742062652067726561746572206044820152687468616e207a65726f60b81b6064820152608490fd5b6000198114610f385760010190565b818110613454575050565b60008155600101613449565b9190601f811161346f57505050565b61349b926000526020600020906020601f840160051c8301931061349d575b601f0160051c0190613449565b565b909150819061348e565b906134b1826130cb565b6040906134c08251918261303e565b83815280936134d1601f19916130cb565b019160005b8381106134e35750505050565b60209082516134f181613007565b6000815260608390808284015260008684015260008184015260006080840152600060a08401528060c084015260e0830152600061010083015260006101208301528286010152016134d6565b80518210156132855760209160051b010190565b9060405161355f81613007565b6101206009829460018060a01b03815416845260405161358681610d9781600186016131d7565b6020850152600281015460408501526003810154606085015260048101546080850152600581015460a08501526040516135c781610d9781600686016131d7565b60c08501526040516135e081610d9781600786016131d7565b60e085015260ff60088201541615156101008501520154910152565b908082146136d05761360e815461319d565b906001600160401b03821161049f57819061362d8261252d865461319d565b600090601f831160011461366457600092613659575b50508160011b916000199060031b1c1916179055565b015490503880613643565b81526020808220858352818320935090601f1985169083905b8282106136b757505090846001959493921061369e575b505050811b019055565b015460001960f88460031b161c19169055388080613694565b849581929585015481556001809101960194019061367d565b5050565b8054600160401b81101561049f576136f19160018201815561326d565b819291549060031b91821b91600019901b1916179055565b6040519061371682613023565b60068252650908a8298a8960d31b6020830152565b6040519061373882613023565b600682526515149055915360d21b6020830152565b1561375457565b60405162461bcd60e51b815260206004820152602160248201527f466c696768742064656c6179206578636565647320706f6c696379206c696d696044820152601d60fa1b6064820152608490fd5b156137aa57565b60405162461bcd60e51b8152602060048201526024808201527f466c69676874206475726174696f6e206578636565647320706f6c696379206c6044820152631a5b5a5d60e21b6064820152608490fd5b1561380257565b60405162461bcd60e51b815260206004820152601460248201527310db185a5b48191bd95cc81b9bdd08195e1a5cdd60621b6044820152606490fdfe4865616c746820636c61696d2073686f756c64206e6f7420696e636c75646520a26469706673582212209ebe74f913ca43ccf267077b616418478a2529c0b2fa64f24855b7bd78b9d9cf64736f6c63430008130033",
  "linkReferences": {},
  "deployedLinkReferences": {}
}